:020000040800F2
:1000000000070020F1010008E52C00089D2C0008E5
:10001000C52C00089D2C0008BD2C0008F301000829
:10002000F3010008F3010008F3010008913D000806
:10003000F3010008F3010008F3010008F3010008D0
:10004000F3010008F3010008F3010008F3010008C0
:10005000F3010008F3010008056A00082D6A000892
:10006000556A00087D6A0008A56A0008F3010008C7
:10007000F3010008F3010008F3010008F301000890
:10008000F3010008F3010008F3010008512C0008F7
:100090007D2C00088D2C0008F3010008CD6A0008B3
:1000A000F3010008F3010008F3010008F301000860
:1000B000C96B0008F3010008F3010008F301000810
:1000C000F3010008F3010008F3010008F301000840
:1000D000F3010008A16B0008B56B0008F3010008EC
:1000E000316B0008F3010008F3010008F301000878
:1000F000F3010008F3010008F3010008F301000810
:10010000F3010008F3010008F3010008F3010008FF
:10011000F3010008F3010008F3010008F3010008EF
:10012000F3010008F3010008F3010008F3010008DF
:10013000F3010008F3010008F3010008F3010008CF
:10014000F3010008F3010008F3010008295A000830
:10015000F3010008F3010008F3010008F3010008AF
:10016000F3010008F3010008F3010008F30100089F
:10017000F3010008F3010008F3010008F30100088F
:10018000F3010008F3010008F3010008F30100087F
:10019000F3010008F3010008F3010008F30100086F
:1001A000F3010008F3010008F3010008F30100085F
:1001B000F3010008F3010008F3010008F30100084F
:1001C000F3010008F3010008F3010008F30100083F
:1001D000F3010008F3010008F3010008F30100082F
:1001E000551500080000000000000000000000009D
:1001F00002E000F000F8FEE772B6374880F30888A6
:10020000364880F3098836483649086040F20000D5
:10021000CCF200004EF63471CEF200010860BFF35C
:100220004F8FBFF36F8F40F20000C0F2F0004EF628
:100230008851CEF200010860BFF34F8FBFF36F8F7C
:100240004FF00000E1EE100A4EF63C71CEF20001D4
:100250000860062080F31488BFF36F8F05F0ACF8B8
:1002600006F01EFA4FF055301F491B4A91423CBF21
:1002700041F8040BFAE71D49184A91423CBF41F886
:10028000040BFAE71A491B4A1B4B9A423EBF51F82E
:10029000040B42F8040BF8E700201849184A914271
:1002A0003CBF41F8040BFAE705F08AF806F094FA2F
:1002B000144C154DAC4203DA54F8041B8847F9E797
:1002C00000F042F8114C124DAC4203DA54F8041B12
:1002D0008847F9E705F072B80007002000230020E6
:1002E0000000000808ED00E00001002000070020E9
:1002F000F070000800230020B8230020B82300205D
:10030000445B0020E0010008E4010008E40100086B
:10031000E40100082DE9F04F2DED108AC1F80CD052
:10032000C3689D46BDEC108ABDE8F08F002383F3BF
:1003300011882846A047002004F044FBFEE704F0A3
:10034000C3FA00DFFEE70000F8B501F071F904F030
:10035000C1FF074605F010F80546002839D1234BA8
:100360009F4236D001339F4236D0214B27F0FF0207
:100370009A4234D1F8B200F009FF2E4642F21074CE
:1003800000F00AFF08B10024264601F069FD20B103
:10039000032000F083F80024264635B1154B9F4218
:1003A00003D004F0E1FF00242646002004F09CFF67
:1003B000114B1B691B0716D40EB100F085F801F034
:1003C00091FA00F057FF204600F0DAF800F07CF8D0
:1003D000F9E72E460024D3E704460126D0E7064677
:1003E0004FF47A74CCE70024E9E700BF010007B0BE
:1003F000000008B0263A09B00004024008B501F038
:10040000E3F8A0F120035842584108BD07B541F276
:100410001203022101A8ADF8043001F0F3F803B093
:100420005DF804FB38B5302383F31188174803685F
:100430000BB104F093FB164A144800234FF47A7171
:1004400004F082FB002383F31188124C236813B15C
:100450002368013B2360636813B16368013B6360F9
:100460000D4D2B7833B963687BB9022001F0A4F9F4
:10047000322363602B78032B07D163682BB90220EA
:1004800001F09AF94FF47A73636038BDB823002005
:1004900025040008D8240020D0230020084B187021
:1004A00003280CD8DFE800F008050208022001F05C
:1004B00079B9022001F06EB9024B00225A607047F0
:1004C000D0230020D824002010B501F0C9FC30B1A1
:1004D000244B03221A70244B00225A6010BD234B78
:1004E000234A1C4619680131F8D004339342F9D1EC
:1004F0006268204B9A42F1D91F4B9B6803F100635D
:1005000003F580339A42E9D204F002FF04F014FFAD
:10051000002001F0A7F80220FFF7C0FF174B1A6C6C
:1005200000221A64196E1A66196E596C5A64596E53
:100530005A665A6E5A6942F080025A615A6922F02C
:1005400080025A615B6972B64FF0E0233021C3F834
:10055000084DD4E9003281F311889D4683F3088861
:100560001047BBE7D0230020D8240020000001085A
:1005700020000108FFFF000800230020003802408F
:100580002DE9F04F93B0AC4B00902022FF210AA838
:100590009D6801F051F9A94A1378A3B9A84801212F
:1005A00003601170302383F3118803680BB104F0EA
:1005B000D5FAA44AA24800234FF47A7104F0C4FA91
:1005C000002383F31188009B13B19F4B009A1A609C
:1005D0009E4A009C1378032B1EBF002313709A4A77
:1005E0004FF0000A18BF5360D3465646D14601204B
:1005F00001F0D8F824B1944B1B68002B00F0158251
:10060000002000F0E1FF0390039B002B01DA00F0D3
:1006100079FE039B002BEDDB012001F0BBF8039B6F
:10062000213B162BE3D801A252F823F089060008DB
:10063000B106000845070008EF050008EF050008AF
:10064000EF050008CF0700089F090008B908000857
:100650001B0900084309000869090008EF050008A4
:100660007B090008EF050008ED09000829070008CC
:10067000EF050008310A0008950600082907000860
:10068000EF0500081B0900080220FFF7B7FE00284D
:1006900040F0F581009B0221BAF1000F08BF1C4613
:1006A00005A841F21233ADF8143000F0ABFF9EE71D
:1006B0004FF47A7000F088FF071EEBDB0220FFF793
:1006C0009DFE0028E6D0013F052F00F2DA81DFE829
:1006D00007F0030A0D10133605230593042105A81E
:1006E00000F090FF17E054480421F9E7584804212E
:1006F000F6E758480421F3E74FF01C08404600F0A5
:10070000B3FF08F104080590042105A800F07AFF62
:10071000B8F12C0FF2D1012000FA07F747EA0B0BD2
:100720005FFA8BFB4FF0000901F0D2F826B10BF015
:100730000B030B2B08BF0024FFF768FE57E7464862
:100740000421CDE7002EA5D00BF00B030B2BA1D17C
:100750000220FFF753FE074600289BD0012000F03F
:1007600081FF0220FFF79AFE00261FFA86F8404616
:1007700000F088FF044690B10021404600F09AFF47
:1007800001360028F1D1BA46044641F21213022183
:1007900005A8ADF814303E4600F034FF27E70120ED
:1007A000FFF77CFE2546244B9B68AB4207D92846C1
:1007B00000F05AFF013040F067810435F3E7234B26
:1007C00000251D70204BBA465D603E46ACE7002E0A
:1007D0003FF460AF0BF00B030B2B7FF45BAF0220F9
:1007E000FFF75CFE322000F0EFFEB0F10008FFF6EC
:1007F00051AF18F003077FF44DAF0F4A926808EB32
:10080000050393423FF646AFB8F5807F3FF742AF0E
:10081000124B0193B84523DD4FF47A7000F0D4FEFB
:100820000390039A002AFFF635AF019B039A03F861
:10083000012B0137EDE700BF00230020D424002066
:10084000B823002025040008D8240020D02300204D
:1008500004230020082300200C230020D4230020A0
:10086000C820FFF7CBFD074600283FF413AF1F2D2C
:1008700011D8C5F1200242450AAB25F0030028BF7C
:10088000424683490192184400F0B0FF019A804823
:10089000FF2100F0D1FF4FEAA8037D490193C8F37F
:1008A0008702284600F0D0FF064600283FF46DAFCF
:1008B000019B05EB830537E70220FFF79FFD00282A
:1008C0003FF4E8AE00F016FF00283FF4E3AE002747
:1008D000B846704B9B68BB4218D91F2F11D80A9B92
:1008E00001330ED027F0030312AA134453F8203C1F
:1008F00005934046042205A901F06AFA04378046B0
:10090000E7E7384600F0B0FE0590F2E7CDF8148036
:10091000042105A800F076FE06E70023642104A860
:10092000049300F065FE00287FF4B4AE0220FFF7C8
:1009300065FD00283FF4AEAE049800F0C3FE0590BC
:10094000E6E70023642104A8049300F051FE002888
:100950007FF4A0AE0220FFF751FD00283FF49AAECD
:10096000049800F0BFFEEAE70220FFF747FD0028E9
:100970003FF490AE00F0CEFEE1E70220FFF73EFD2F
:1009800000283FF487AE05A9142000F0C9FE042119
:100990000746049004A800F035FE3946B9E7322036
:1009A00000F012FE071EFFF675AEBB077FF472AEB5
:1009B000384A926807EB090393423FF66BAE022078
:1009C000FFF71CFD00283FF465AE27F003074F44F6
:1009D000B9453FF4A9AE484600F046FE0421059013
:1009E00005A800F00FFE09F10409F1E74FF47A7051
:1009F000FFF704FD00283FF44DAE00F07BFE002819
:100A000044D00A9B01330BD008220AA9002000F031
:100A10001BFF00283AD02022FF210AA800F00CFF7B
:100A2000FFF7F4FC1C4803F0D3FF13B0BDE8F08FD0
:100A3000002E3FF42FAE0BF00B030B2B7FF42AAEEE
:100A40000023642105A8059300F0D2FD0746002885
:100A50007FF420AE0220FFF7D1FC804600283FF44F
:100A600019AEFFF7D3FC41F2883003F0B1FF0598CF
:100A700000F070FF464600F02BFF3C46B7E5064607
:100A800052E64FF0000905E6BA467EE637467CE6B8
:100A9000D423002000230020A0860100094A136807
:100AA00049F2690099B21B0C00FB01331360064B3D
:100AB000186844F2506182B2000C01FB0200186019
:100AC00080B27047182300201423002010B50021A5
:100AD0001022044600F0B0FE034B03CB206061609F
:100AE0001868A06010BD00BF107AFF1FF0B5ADF50B
:100AF0004F7D6CAC4FF4C47207460D462046002172
:100B000000F09AFE02F0F6F8244B4FF47A72B0FB34
:100B1000F2F0186093E80700022384E807000DF55F
:100B2000E9702382FFF7D2FF43F618531C49238450
:100B300006A806F0F3F8192384F832310DF2E32207
:100B400006AB0DF1300C1E4603CE664510605160B9
:100B5000334602F10802F6D1337813700DAE3146F8
:100B60000122204600F018FF00230393AB7E02937E
:100B700005F11903019380B20123CDE904600093CC
:100B8000E97E04A3D3E90023384602F0D1FC0DF539
:100B90004F7DF0BD9E6AC421818A46EEE02400208C
:100BA0002C6D00082DE9F0412C4C237ADAB08046F8
:100BB0000D465BBB27A9284601F014F8074600281C
:100BC00042D19DF89D60C82E3ED801464FF4A662E2
:100BD000204600F031FE4FF48073C4F8F8314FF432
:100BE0000073C4F80C334FF44073C4F82034324619
:100BF0000DF19E0104F1090000F0F8FD26449DF876
:100C00009C30777223720BB9EB7E23728122002114
:100C100006AC27A800F010FE0122214627A801F00B
:100C200027F800230393AB7E029305F1190380B2EA
:100C300001932823CDE904400093E97E05A3D3E97D
:100C40000023404602F074FC5AB0BDE8F08100BFBA
:100C5000AFF3008026417272DF25D7B72835002018
:100C6000F0B5254E4FF48A7505FB0065F1B096F896
:100C7000D83085F8DC300024D822214685F8E840B9
:100C80003AA800F0D9FD06F1090000F0CDFDD5F835
:100C9000E4308DF8F000C2B206AF06F109010DF1A3
:100CA000F100CDE93A3400F0A1FD394601223AA81D
:100CB00001F014F880B2CDE9047008230127CDE9D2
:100CC000023706F1D803019330230093317A0B48A1
:100CD00007A3D3E9002302F02BFCA04206DD02F0BB
:100CE00009F8C5F8E000384671B0F0BD2046FBE7D2
:100CF00078F6339F93CACD8D28350020F834002034
:100D00002DE9F0411D4D1E4E1E4F86B0284602F0C3
:100D10003BFC034658B30024CDE90344ADF814402E
:100D2000027B8DF8142099684068029403AA03C2DC
:100D30001B68DFF8548043F00043029301F0DCFFAE
:100D4000821941F10003009402A9384601F070FABB
:100D5000A04205DD284602F01BFC88F80040D5E7DC
:100D600098F80030072B05D8013388F8003006B01A
:100D7000BDE8F081014802F00BFCF8E7F8340020F0
:100D800040420F00603A00205D3A002070B50D46E9
:100D900014461E4602F028FB50B9022E10D1012C39
:100DA0000ED112A3D3E90023C5E90023012007E0F7
:100DB000282C10D005D8012C09D0052C0FD00020EC
:100DC00070BD302CFBD10BA3D3E90023ECE70BA3C0
:100DD000D3E90023E8E70BA3D3E90023E4E70BA35F
:100DE000D3E90023E0E700BFAFF30080401DA1205E
:100DF00026812A0B78F6339F93CACD8D9E6AC42133
:100E0000818A46EE26417272DF25D7B7F017304A45
:100E100039059E5638B505460E4C0021013500F0C7
:100E200049FCA4F82C55B4F82C0500F02BFC78B143
:100E3000B4F82C0500F036FC014648B9B4F82C058E
:100E400000F038FCB4F82C350133A4F82C35EAE76F
:100E500038BD00BF2835002010B50A4B0A4A1A6079
:100E600003F5805393F870203AB9DC6E2CB120461C
:100E700001F074F8204601F0B1F9BDE810400348D4
:100E800001F06CB8603A0020E46D0008B84A002018
:100E90002DE9F04F8FB000AF05460C4602F0A4FAE2
:100EA00000284BD1237E022B1BD1E38A012B18D1C2
:100EB00001F020FF0646FFF7F1FD03464FF4C8702E
:100EC000DFF8C482B3FBF0F206F5167602FB1033AE
:100ED00016FA83F3C8F80030E37E33B9A34B00223F
:100EE0001A703C37BD46BDE8F08F07F1240120465B
:100EF00000F02CFE0028F4D107F11400FFF7E6FD06
:100F000097F8264007F11401224607F1270005F063
:100F1000D3FE0028E2D10F2C08D8944B1C70D8F8CF
:100F20000030A3F51673C8F80030DAE797F82410FC
:100F30000029D6D0284602F04FFAD2E7E38A282BC0
:100F40002BD010D8012B23D0052BCAD1BFF34F8F44
:100F50008749884BCA6802F4E0621343CB60BFF351
:100F60004F8F00BFFDE7302BBBD1834EE17E327A3D
:100F70009142B6D1607E3146002291F8DC50854224
:100F800000F0A5800132042A01F58A71F5D1A8E7A5
:100F900021462846FFF7AAFDA3E721462846FFF78A
:100FA00001FE9EE7B2F8EC507B6005F103094FEAC1
:100FB00099094FEA8902D11DC908A8EBC1039D46D2
:100FC000EB460021584600F037FC04F1EE012A46BA
:100FD0003144584600F00AFC7B6813B9012000F048
:100FE00041FB96F8D20000F04DFB044630B9307258
:100FF00000F080FB204600F035FBB0E0D6F8D420AE
:101000003AB996F8D200B6F82C25824201D8FFF7FB
:1010100001FFD6F8D4202A44944208D296F8D20090
:10102000B6F82C250130824201D8FFF7F3FE706834
:101030005FFA89F2594600F007FC08B9C54679E025
:10104000726896F8D2002A447260D6F8D42005EB74
:101050000209C6F8D49000F015FB814509D396F833
:10106000D220D6F8D4000132001B86F8D220C6F870
:10107000D400FF2D0FD80024347200F03BFB204633
:1010800000F0F0FA00F0ECFE3C4B188108B9FFF7D5
:101090001BFAC54625E7BB6896F8D9000AFB036230
:1010A000FB68D2F8E41082F8E83001F58061C2F8FC
:1010B000E030C2F8E410FFF7D3FDFFF721FE96F809
:1010C000D920013202F0030286F8D920B6E74FF4A6
:1010D0008A7A0AFB02F505F1EA013144204600F064
:1010E00031FEF86000287FF4FCAE3544012285F81B
:1010F000E82001F0FFFDD5F8E020D6ED007ADFED25
:10110000206A801A192838BF192040F6B832904258
:1011100028BF1046B8EE677A07EE900AF8EEE77A35
:1011200067EEA67ADFED176AE7EE267AFCEEE77A3D
:10113000C6ED007A96F8D9307168BB600AFB03F4FB
:10114000321992F8E8505DB1D2F8E4308B42E846AB
:101150003FF428AF002182F8E810C2F8E010C5463D
:101160007368064A9B0A01331381BAE6F134002002
:1011700000ED00E00400FA0528350020E0240020FE
:10118000CDCCCC3D6666663FF4340020014B187030
:10119000704700BFEC24002030B54FF000542C4BBA
:1011A00022689A4285B023D1637D0BB3294A2A482D
:1011B0001370237D03724FF48073C0F8F8314FF43D
:1011C0000073C0F80C3300254FF44073C0F820348E
:1011D0002249C0F8E450C922093000F007FB20463C
:1011E000E022294600F028FB0124204605B030BD4E
:1011F00004F0CCF8044608B90024F6E7184A194D63
:10120000136C43F000731364AA6D174B9A42F3D129
:101210002B6E013B7E2BEFD8144A07CA01AB83E843
:1012200007001846032100F0E9FD6B6D83424FF083
:101230000003E1D12A6D8A4201BFAB65054B2A6EDE
:101240001A7003BF0A4BEA6D1A601C46CDE700BF57
:101250009AAD44C5EC24002028350020160000205B
:1012600000380240006600405041A0B0586600407F
:101270001023002037B51A4D00F0F2FD02236B71E8
:10128000184B288119681848012201F0CDFB002372
:101290000193164B164900931648174B4FF4805292
:1012A00002F072F8154B197811B1124802F094F857
:1012B00001F020FD0446FFF7F1FB4FF4C873B0FBCB
:1012C000F3F202FB130304F5167010FA83F00C4BD3
:1012D000186004F051F808B10F232B8103B030BD22
:1012E000E024002010230020603A00208D0D00082B
:1012F000F0240020F8340020910E0008EC24002097
:10130000F43400202DE9F04F2DED028B0FF2382937
:10131000D9E90089834C93B00BAE9FED7E8BFFF72C
:10132000EFFC814FDFF828A200230A93ADF8343098
:101330000B9373604FF0000B5B468DED008B012526
:101340000DF11D0207A938468DF81C508DF81DB00F
:1013500001F018FB9DF81C30002B40F0A5802046C2
:1013600002F042F80646002845D1704F01F0C2FC59
:101370003B6898423FD301F0BDFC8246FFF78EFBED
:101380004FF4C873B0FBF3F202FB13030AF51670B7
:1013900010FA83F03860664F97F800B0CBF1100A6E
:1013A000BBF1000F14BF33462B465FFA8AFA0EA832
:1013B0008DF82830FFF78AFBBAF1060F28BF4FF0EF
:1013C000060A0EAB03EB0B0152460DF1290000F0AB
:1013D0000DFA0AAB0393182302930AF10102554B4D
:1013E000D2B2CDE90053049220464CA3D3E90023A6
:1013F00002F040F83E7001F07DFC4F4A4F4D1368FB
:10140000C31AB3F57A7F2ED3106001F075FC024643
:101410000B46204602F0C6F8204601F0E5FF10B367
:101420002B7A474E002B14BF03230223737101F064
:1014300061FC0EAF4FF47A730122B0FBF3F0394632
:101440003060304600F05AFB182302933D4B019365
:1014500080B240F25513CDE90370009342464B46EB
:10146000204602F007F82B7A93B101F043FC0026E6
:1014700007464FF48A7A95F8D900304400F003000B
:101480000AFB005393F8E82092B30136042EF2D100
:10149000C82003F09DFA2B7A002B7FF43DAF13B0E8
:1014A000BDEC028BBDE8F08FDAF8143083F0010355
:1014B000CAF81430594610220EA800F0BDF90DF1FB
:1014C0001E0308AA0AA9384600F0B8FF96E80300F0
:1014D0000FAB83E803009DF834308DF844300A9B4D
:1014E0000E930EA9DDE90823204602F02FFA21E72A
:1014F000D3F8E02042B12B68FA2B38BFFA23BA1A8E
:101500000533B2EB430FC0D3FFF7AAFB0028BCD1D1
:10151000BEE700BF0000000000000000401DA12049
:1015200026812A0BF8340020603A0020F434002091
:10153000F1340020F0340020583A002028350020F3
:10154000E02400205C3A0020F1C6A7C1D068080F53
:101550000004024008B5054801F00EF8BDE8084057
:10156000034A0449002005F083BB00BF603A002015
:10157000944B0020590E000870B5104B1B780133B6
:10158000DBB2012B0C4612D80D4B1D6829684FF4B5
:101590007A730E6AA2FB0332014622462846B04700
:1015A000844204D1074B00221A70012070BD4FF411
:1015B000FA7003F00DFA0020F8E700BF1C230020AA
:1015C00020230020884B002007B50023024601217C
:1015D0000DF107008DF80730FFF7CEFF20B19DF821
:1015E000070003B05DF804FB4FF0FF30F9E700009F
:1015F0000A4608B50421FFF7BFFF80F00100C0B222
:10160000404208BD30B4074B0A461978064B53F8E0
:1016100021402368DD69054B0146AC46204630BCBD
:10162000604700BF884B002020230020A0860100D7
:1016300070B503F0FDFC094E094D30800024286888
:101640003388834208D903F0EDFC2B68044401334E
:10165000B4F5803F2B60F2D370BD00BF8A4B0020F1
:10166000484B002003F094BD00F1006000F580308D
:101670000068704700F10060920000F5803003F0D0
:101680001DBD0000054B1A68054B1B889B1A834241
:1016900002D9104403F0C6BC00207047484B00201C
:1016A0008A4B0020024B1B68184403F0C3BC00BFE8
:1016B000484B0020024B1B68184403F0D3BC00BF0A
:1016C000484B002010F003030AD1B0F5047F05D287
:1016D00000F10050A0F51040D0F8003818467047CF
:1016E0000023FBE700F10050A0F51040D0F8100AED
:1016F00070470000064991F8243033B10023086A8E
:1017000081F824300822FFF7B5BF0120704700BFE1
:101710004C4B0020014B1868704700BF002004E0CC
:1017200070B5194B1D68194B0138C5F30B040844FB
:101730002D0C04221E88A6420BD15C680A46013C8F
:10174000824213460FD214F9016F4EB102F8016BB9
:10175000F6E7013A03F10803ECD181420B4602D2CD
:101760002C2203F8012B0A4A05241688AE4204D124
:10177000984284BF967803F8016B013C02F10402A1
:10178000F3D1581A70BD00BF002004E0886D000836
:10179000746D0008022802BF014B01229A61704754
:1017A00000040240022802BF024B4FF480329A61CB
:1017B000704700BF00040240022801BF024A53697B
:1017C00083F00103536170470004024070B5044682
:1017D0004FF47A764CB1412C254628BF412506FBB3
:1017E00005F003F0F5F8641BF4E770BD10B50023B5
:1017F000934203D0CC5CC4540133F9E710BD000020
:1018000010B5013810F9013F3BB191F900409C42FD
:1018100003D11AB10131013AF4E71AB191F900206C
:10182000981A10BD1046FCE703460246D01A12F97A
:10183000011B0029FAD1704702440346934202D0AB
:1018400003F8011BFAE770472DE9F8431F4D1446D2
:1018500095F824200746884652BBDFF870909CB369
:1018600095F824302BB92022FF2148462F62FFF73C
:10187000E3FF95F82400C0F10802A24228BF2246E7
:10188000D6B24146920005EB8000FFF7AFFF95F816
:101890002430A41B1E44F6B2082E17449044E4B230
:1018A00085F82460DBD1FFF725FF0028D7D108E0B9
:1018B0002B6A03EB82038342CFD0FFF71BFF002884
:1018C000CBD10020BDE8F8830120FBE74C4B002082
:1018D000024B1A78024B1A70704700BF884B0020E9
:1018E0001C23002038B5164C164D204602F0BEFBD6
:1018F0002946204602F0E6FB2D68EA6ED2F804384D
:1019000043F00203C2F804384FF47A70FFF75EFF29
:101910000D49284602F0DEFCEA6E0C49D2F8043884
:1019200023F00203C2F804384FF461430B60084B04
:101930001868A04203D0BDE8384002F0F7BA38BDBD
:10194000084E0020FC6E0008046F0008744B002055
:101950002023002070B50C4B0C4D1E780C4B55F815
:1019600026209A4204460DD00A4B00211422184624
:10197000FFF762FF0460014655F82600BDE870409D
:1019800002F0D4BA70BD00BF884B00202023002095
:10199000084E0020744B00202DE9F3470D46044605
:1019A00000219046284640F27912FFF745FF234672
:1019B00020220021284601F06BFF231D0222202156
:1019C000284601F065FF631D03222221284601F00D
:1019D0005FFFA31D03222521284601F059FF04F1D2
:1019E000080310222821284601F052FF04F11003B9
:1019F00008223821284601F04BFF04F11103082288
:101A00004021284601F044FF04F112030822482136
:101A1000284601F03DFF04F11403202250212846FE
:101A200001F036FF04F1180340227021284601F02E
:101A30002FFF04F120030822B021284601F028FFDF
:101A400004F121030822B821284601F021FF04F106
:101A50002207C0263B46314608222846083601F0B8
:101A600017FFB6F5A07F07F10107F3D194F83230E4
:101A70008DF8073031460DF107030822284601F0A2
:101A800007FF002604F1330A9DF807304FEAC60924
:101A90009E4209F5A47720D394F83231502B28BF09
:101AA00050238DF80730B8F1000F08D139460DF1F9
:101AB00007030722284601F0EBFE09F24F17002624
:101AC00004F233149DF807309E4207EBC6010DD394
:101AD0000731C80802B0BDE8F0870AEB0603082208
:101AE0003946284601F0D4FE0136CDE7A319082275
:101AF000284601F0CDFE0136E4E7000013B50446A8
:101B00000846002101602346C0F8031020220190FE
:101B100001F0BEFE0198231D0222202101F0B8FE33
:101B20000198631D0322222101F0B2FE0198A31D3A
:101B30000322252101F0ACFE019804F108031022D4
:101B4000282101F0A5FE072002B010BDF7B5047FE3
:101B500005460E462CB1838A122B02D9012003B010
:101B6000F0BD0023194607220096284601F054FDD7
:101B7000731C0093012200230721284601F04CFD2D
:101B8000D4B9B31C0093052223460821284601F04E
:101B900043FD0D24B378102BE0D83746B278BB1B39
:101BA000934210D32B7FA88A0734E408B3B9844248
:101BB00094BF00200120D2E7AB8ADB00083BDB08A2
:101BC000B3700824E6E7FB1C00932146002308229B
:101BD000284601F021FD08340137DFE7201A18BF3D
:101BE0000120BCE7F7B5047F05460E462CB1838A79
:101BF000CA2B02D9012003B0F0BD0023194600967C
:101C00000822284601F008FD731CD4B9082200936D
:101C100011462346284601F0FFFC10247378C82B98
:101C2000E8D8012372785F1C013B934210D32B7FCD
:101C3000A88A0734E408B3B9844294BF0020012085
:101C4000D9E7AB8ADB00083BDB0873700824E5E7C3
:101C5000F3190093214600230822284601F0DCFCFA
:101C600008343B46DEE7201A18BF0120C3E7000016
:101C7000F7B50D4604460021164628468122FFF797
:101C8000DBFD234608220021284601F001FE94F9DD
:101C900001206378002AB8BF7F238DF807309EB9F2
:101CA0000DF1070307220821284601F0F1FD0F2757
:101CB000002602349DF807309E4207EBC60105D38B
:101CC0000731C80803B0F0BD0827F1E7A3190822BF
:101CD000284601F0DDFD0136ECE70000F7B50E46C1
:101CE0000546002114463046CE22FFF7A5FD2B46BF
:101CF00028220021304601F0CBFD2B7AC82B28BFCB
:101D0000C8238DF807308CB90DF10703082228216C
:101D1000304601F0BDFD30242F469DF807207B1B87
:101D2000934205D3E01DC00803B0F0BD2824F3E7BB
:101D300007F1090321460822304601F0A9FD0834C5
:101D40000137EAE7F7B5047F05460E4634B1838ACA
:101D5000B3F5827F02D9012003B0F0BD00960123C4
:101D600010220021284601F057FCDCB9B31C009377
:101D7000092223461021284601F04EFC19247388BD
:101D8000B3F5807FE7D837467288BB1B934210D3E8
:101D90002B7FA88A0734E408B3B9844294BF00209B
:101DA0000120D9E7AB8ADB00103BDB0873801024ED
:101DB000E5E73B1D0093214600230822284601F059
:101DC0002BFC08340137DFE7201A18BF0120C3E7D6
:101DD00030B5094D0A4491420DD011F8013B5840ED
:101DE000082340F30004013B2C4013F0FF0384EA76
:101DF0005000F6D1EFE730BD2083B8EDF7B54FF0D6
:101E0000FF33DFF854C0DFF854E000EB81011A46DD
:101E100088421CD050F8044B019401AF042417F8F9
:101E2000015B82EA05620825DB18164605F1FF35DD
:101E30005241002EBCBF83EA0C0382EA0E0215F069
:101E4000FF05F1D1013C14F0FF04E8D1E0E7D843ED
:101E5000D14303B0F0BD00BF9336EAA9EBE1F042F5
:101E6000F7B5384A106851686B4603C36A4636496D
:101E70003648082304F030FF0446002833D10A25F1
:101E8000334A106851686B4603C36A4631492F488C
:101E9000082304F021FF0446002849D00369B3F564
:101EA000E02F45D8B0F8661041F63D0291423FD18F
:101EB000294A024402F15C018B4239D35C3B23493D
:101EC00000209E1AFFF784FF3246074604F16401A2
:101ED0000020FFF77DFFA3689F4229D1E368984265
:101EE00008BF002524E00369B3F5E02F27D8418B14
:101EF00041F63D02914220D1174A024402F11001FD
:101F00008B4218D3103B114900209D1AFFF760FF48
:101F10002A46064604F118010020FFF759FFA3687E
:101F20009E4202D1E368984201D00D25A8E7002522
:101F3000284603B0F0BD1025A2E70C25A0E70B252D
:101F40009EE700BFA86D0008DCFF06000000010846
:101F5000B16D000890FF06000800FFF710B5037C84
:101F6000044613B9006804F09FFE204610BD00002F
:101F70000023BFF35B8FC360BFF35B8FBFF35B8F47
:101F80008360BFF35B8F7047BFF35B8F0068BFF365
:101F90005B8F704770B505460C30FFF7F5FF05F114
:101FA000080604463046FFF7EFFFA04206D9304648
:101FB0006D68FFF7E9FF2544281A70BD3046FFF72A
:101FC000E3FF201AF9E7000070B50546406898B1B4
:101FD00005F10800FFF7D8FF05F10C06044630466E
:101FE000FFF7D2FF8442304694BF6D680025FFF7AB
:101FF000CBFF013C2C44201A70BD000038B50C46C4
:102000000546FFF7C7FFA04210D305F10800FFF710
:10201000BBFF04446868B4FBF0F100FB1144BFF35C
:102020005B8F0120AC60BFF35B8F38BD0020FCE705
:102030002DE9F041144607460D46FFF7C5FF8442DF
:1020400028BF0446D4B1B84658F80C6B4046FFF799
:102050009BFF3044286040467E68FFF795FF331AA7
:102060009C4203D86C600120BDE8F0816B60A41B2A
:102070003B68AB602044E8600220F5E72046F3E7C8
:1020800038B50C460546FFF79FFFA04210D305F177
:102090000C00FFF779FF04446868B4FBF0F100FB23
:1020A0001144BFF35B8F0120EC60BFF35B8F38BD41
:1020B0000020FCE72DE9FF41884669460746FFF707
:1020C000B7FF6C4606B204EBC6060025B44209D041
:1020D0006268206808EB0501FFF788FB6368083435
:1020E0001D44F3E729463846FFF7CAFF284604B0E7
:1020F000BDE8F081F8B505460C300F46FFF744FF08
:1021000005F1080604463046FFF73EFFA042304680
:1021100088BF6C68FFF738FF201A386020B130465E
:102120002C68FFF731FF2044F8BD000073B514465A
:1021300006460D46FFF72EFF844228BF0446019055
:10214000DCB101A93046FFF7D5FF019B33B93268F6
:10215000C5E90233C5E9002401200CE09C4238BFE8
:1021600001942860019868608442F5D93368AB60B7
:10217000241AEC60022002B070BD2046FBE700008C
:102180002DE9FF410F466946FFF7D0FF6C4600B2CC
:1021900004EBC0050026AC4209D0D4F8048054F802
:1021A000081BB8194246FFF721FB4644F3E73046C7
:1021B00004B0BDE8F081000038B50546FFF7E0FF48
:1021C000044601462846FFF719FF204638BD0000A7
:1021D0000121884238BF084604F050BD08B104F020
:1021E00063BD704710B4026854681A4623465DF810
:1021F000044B1847002070470020704770470000CC
:10220000002070470E20704700F5805090F8D800ED
:10221000C0F340007047000000F5805090F9E000E6
:102220007047000000F58050C0F8DC1001207047B6
:10223000F7B50C68BDF8207014F0005473D10D7B15
:10224000082D70D8302585F31188456AAE6876016F
:102250000CD4AC68240108D4AC6814F0805460D16C
:1022600084F31188204603B0F0BD01240E6804F108
:10227000180C002EB8BFF6004FEA0C1CB4BF46F095
:102280000406760545F80C600E680FFA84FC16F01B
:10229000804F18BF05EB0C1E05EB0C1C1EBFDEF8B3
:1022A000806146F00206CEF880610E7BCCF8846136
:1022B00005EB04158E68C5F88C614E68C5F8886119
:1022C000DCF8805145F00105CCF8805141F27805E9
:1022D00000EB441C660105EB4414AC440444CCE917
:1022E00000230D46083401F10C0C55F804EB44F8BA
:1022F00004EB6545F9D12D882580841904F58054B7
:1023000007F0030594F8946026F00B06354384F833
:102310009450002484F31188009700F03BFD0120C5
:10232000A1E70224A2E74FF0FF309CE713B500F5C8
:1023300080540191E06EFFF747FE1F280AD90199EA
:10234000E06E2022FFF7B6FEA0F12003584258416C
:1023500002B010BD0020FBE708B5302383F31188DD
:1023600000F58050C06EFFF703FE002383F3118851
:1023700008BD0000002202608281426082607047D6
:1023800010B500220023C0E9002300230446038186
:102390000C30FFF7EFFF204610BD0000F0B50546FA
:1023A00000F580500C4690F8D83013F0040FC3F3BA
:1023B000800108BF114661F3820380F8D83005EB35
:1023C000441303F58453103389B01B79D8074FEABF
:1023D00044162FD582B319072ED46846FFF7D0FFD5
:1023E00005EB441303F5845303AA03F108071868A7
:1023F0005968144603C40833BB422246F7D1186813
:1024000020609B88A380DDE90E23CDE90023012312
:10241000ADF808302B6869461B6C28469847354450
:1024200005F5845510352B791A075CBF43F0080376
:102430002B7101E0002AF2D109B0F0BD2DE9F0477F
:102440009A4688B0074688469146302383F3118820
:1024500007F580546846FFF793FFE06EFFF79AFD9B
:102460001F282AD9E06E20226946FFF7A5FE202802
:1024700023D103AD444605AB2E4603CE9E422060D9
:102480006160354604F10804F6D130682060B388F5
:10249000A380DDE90023C9E90023BDF80830AAF8CC
:1024A0000030002383F3118853464A46414638469C
:1024B00008B0BDE8F04700F02BBC002080F3118885
:1024C00008B0BDE8F08700002DE9F84F1822044657
:1024D0000F4604300021FFF7AFF92046234B40F8A8
:1024E000283BFFF747FF04F13800FFF749FF04F1ED
:1024F000580804F582554646183530462036FFF711
:102500003FFFAE42F9D104F580554FF480534FF0B0
:102510000009C5E91739C5F858800123EE6604F5AE
:10252000875804F58456C5F8649085F8683085F8B6
:102530007030183608F118084FF0000A4FF0000B01
:1025400046E908ABA6F11800FFF714FF203646F85D
:10255000289C4645F4D185F8E07017B1044800F096
:10256000C3FB044B63622046BDE8F88FE46D0008AE
:10257000BC6D00080064004010B5044B1978044697
:102580004A1C1A70FFF7A0FF204610BD904B002098
:102590002DE9F047002950D0294B2A4FB7FBF1F520
:1025A00099428CBF0A231123581EB5FBF3FC03FB91
:1025B0001C53C4B22BB102280346F5D80020BDE855
:1025C000F0870CF1FF36B6F5806FF7D2C4EBC40E7E
:1025D0000EF103034FEAE309C3F3C703A4EB0308B7
:1025E00009F1010A4FF47A755FFA88F009FB055585
:1025F0005AFA88F8B5FBF8F5B5F5617FC1BF0EF161
:10260000FF33C3F3C703E01AC0B25C1C50FA84F472
:102610000CFB04F4B7FBF4F4A142CFD1013BDBB2D5
:102620000F2BCBD80138C0B20728C7D800211071B2
:1026300016809170D3700120C1E70846BFE700BF44
:102640003F420F0040787D0170B505460E464FF4BD
:102650007A746B6A5B6803F00103B34207D04FF4EE
:102660007A7002F0B5F9013CF3D1204670BD01202B
:10267000FCE7000070B5426A936913F0700F17D041
:1026800000230C4D936141F2900400EB431222446D
:1026900011794E0709D5890707D5416A55F8236096
:1026A0008E60117941F0040111710133032BECD1DB
:1026B00070BD00BFD06D000873B51D46436A164655
:1026C0009A68D207044609D59A6801219960C2F335
:1026D0004002CDE900650021FFF760FE636A9A6859
:1026E000D1050BD59A684FF480719960C2F34022EE
:1026F000CDE9006501212046FFF750FE636A9A6824
:10270000D2030BD59A684FF480319960C2F34042EE
:10271000CDE9006502212046FFF740FE04F5805315
:10272000D3F8DC0010B103681B699847204602B05B
:10273000BDE87040FFF79EBFF8B50446466A002921
:1027400077D106F10C073868800775D006EB0115C4
:102750003868D5F8B00110F0040FD5F8B0011ABFF1
:10276000C00840F00040400DA062D5F8B0C11CF098
:10277000020F1CBF40F08040A062D5F8B40106EB08
:10278000011100F00F0084F83400D1F8B80184F88A
:102790002C00D1F8B801000A84F82D00D1F8B80156
:1027A000000C84F82E00D1F8B801000E84F82F0038
:1027B000D1F8BC0184F83000D1F8BC01000A84F8DB
:1027C0003100D1F8BC01000C84F83200D1F8BC1102
:1027D000090E84F833103821396004F1440004F103
:1027E000280104F1340551F8046B40F8046BA94248
:1027F000F9D109880180C4E90E2321460023A4F8F9
:10280000403051F8383B20461B6C984704F5805304
:1028100093F8D820D3F8DC0042F0040283F8D820E3
:1028200010B103681B6998472046BDE8F840FFF7E0
:1028300021BF06F1100786E7F8BD000010B5044679
:1028400000F05AFA02460B4652EA030102D0013A5E
:1028500063F100030449086820B12146BDE8104037
:10286000FFF76ABF10BD00BF8C4B0020F0B53021D0
:1028700081F31188DFF848E000F583511831002416
:1028800041F2900C00EB441565442E7977070ED485
:10289000F6060CD5D1E9007697429E4107D2466AEA
:1028A0005EF82470B7602E7946F004062E7101346C
:1028B000032C01F12001E5D1002383F31188F0BD41
:1028C000D06D000808B5302383F31188FFF7D2FEDE
:1028D000002383F3118808BD2DE9F041436A0446C3
:1028E000986800F0E050B0F1E05F0E4622D0F8B1F9
:1028F000302383F31188002504F5845741F29008B2
:1029000004EB451343441B791A0706D50135032D03
:1029100007F12007F4D1012007E05B07F6D4394620
:10292000304600F08BFA0028F0D1002383F31188A1
:10293000BDE8F0810120FBE708B5302383F311885F
:1029400000F58050C06EFFF725FB002383F311884C
:1029500043090CBF0120002008BD0000F8B51D464A
:10296000002313700F4606461446FFF7E5FF80F07C
:102970000100387025B129463046FFF7ADFF2070C1
:10298000F8BD00002DE9B8410C4615461F468046AB
:1029900000F0B2F90B462178024609B9287850B107
:1029A0004046FFF763FFFFF78DFF3B462A4621466F
:1029B000FFF7D4FF0120BDE8B881000070B53026D4
:1029C00086F31188174B1A6C42F000721A641A6A67
:1029D00042F000721A621A6A22F000721A62002330
:1029E00083F3118800F5805494F8D83013F0010572
:1029F00016D1A9B186F311880321132001F026FA1C
:102A00000321142001F022FA0321152001F01EFAFF
:102A100094F8D83043F0010384F8D83085F3118856
:102A200070BD00BF003802402DE9F04700F5805529
:102A300088B095F8E030012B04468846164600F22F
:102A40008280824F57F823200AB947F82300D7F82D
:102A500000A0C4F81C8084F82060BAF1000F64D094
:102A600095F8E030012B70D001212046FFF7A6FF3A
:102A7000302383F31188626A136823F00203136022
:102A8000626A136843F001031360636A00275F61A1
:102A900087F3118801212046FFF7D6FD002800F0BA
:102AA0009580E86EFFF764FA04F58359BA4609F198
:102AB0001809202200216846FEF7BEFE02A8FFF793
:102AC00059FCCDF818A06A4609EB07030DF1180E62
:102AD0009446BCE80300F44518605960624603F16F
:102AE0000803F5D1DCF80000186020379CF80420BA
:102AF0001A71602FDDD195F8D8306FF3820300276B
:102B000085F8D8306A4641462046ADF80070ADF8E9
:102B100002708DF80470FFF73BFD636A48BB4FF409
:102B200000421A6008B0BDE8F08741F2E800FFF704
:102B30004FFB814610B15146FFF7C6FCC7F8009025
:102B4000B9F1000F8CD10020ECE7386803681B6BEB
:102B500098470146002887D13868FFF72FFF38686B
:102B6000036832465B684146984700287FF47CAF93
:102B7000E9E761221A609DF802309DF803201B06E8
:102B8000120402F4702203F040731343BDF80020D6
:102B9000C2F3090213439DF804201205022E02F429
:102BA000E0020CBF4FF0004100211343626A0B4367
:102BB000D361636A13225A61626A136823F00103C6
:102BC000136039462046FFF73FFD08B9636AA6E760
:102BD00095F8E03093BB616AD1F8002242F001021F
:102BE000C1F80022616AD1F8002222F47C5222F05E
:102BF0000E02C1F80022616AD1F8002242F460623C
:102C0000C1F80022626AC2F81432626AC2F8043261
:102C1000626A41F6FF71C2F80C12626AC2F8403271
:102C2000626AC2F84432636A0122C3F81C22626AF3
:102C3000D2F8003223F00103C2F8003295F8D83000
:102C400043F0020385F8D8306CE700BF8C4B0020BE
:102C500008B500F051F850EA0103024602D0421EC6
:102C600061F10001044B186810B10B46FFF724FD19
:102C7000BDE8084001F0C0B88C4B002008B500202A
:102C8000FFF7DCFDBDE8084001F0B6B808B501204B
:102C9000FFF7D4FDBDE8084001F0AEB800B59BB029
:102CA000EFF3098168226846FEF7A0FDEFF3058384
:102CB000014B9B6BFEE700BF00ED00E008B5FFF79E
:102CC000EDFF000000B59BB0EFF309816822684674
:102CD000FEF78CFDEFF30583014B5B6BFEE700BF56
:102CE00000ED00E0FEE700000FB408B5029801F027
:102CF00015FEFEE702F08CBA02F06EBA0139C9B2D5
:102D000002299EBF00EBC1000023C0E901337047D8
:102D10002DE9F8431E461B885B070546884618D4F4
:102D2000044600F118094C4513D063686BB12B6859
:102D30002846DB6B98473388A768C1B243F0040389
:102D400060684246B8470834EDE7A368002BEED12F
:102D5000F9E70120BDE8F88373B56C4684E8060006
:102D6000014600224E68D5B26EB98E685EB900EB9E
:102D7000C200021D94E80300013582E803001D70C3
:102D8000012002B070BD0132032A01F10801E9D12E
:102D90000020F6E72DE9F04F2DED028B89B09FED75
:102DA000258BBDF8508004468B46054600F1180976
:102DB000002708F0040AA94536D06B680BB9AB6848
:102DC00063B1BAF1000F0BD123682046DB6B984743
:102DD0004346C1B25A46D5E90106B0470835EAE78D
:102DE000002FFBD18DED008BADF808705B4603AA78
:102DF0000BF1080C18685968174603C70833634578
:102E00003A46F7D1186838609B88BB80FFF774FF9B
:102E10000423ADF808302368CDE900011B6C694636
:102E2000204698470127D9E7012009B0BDEC028B65
:102E3000BDE8F08F000000000000000030B503681E
:102E40000968DD0FB5EBD17F23F0604421F06042CB
:102E50004FEAD1700BD0002BB8BFA40C0029B8BF2B
:102E6000920C944202D034BF0120002030BD944225
:102E700005D1C1F38070C3F380738342F6D19442CD
:102E80002CBF00200120F1E72DE9F041456A15B97A
:102E90004162BDE8F0814B6823F06047C3F38A4686
:102EA0004FEAD37EC3F3807816EA230638BF3E4646
:102EB000AC462B465A68BEEBD27F22F060440AD063
:102EC000002A18DAA40CB44217D19D420FD10D602C
:102ED000DEE71346EEE7A74207D102F08044C2F3D3
:102EE000807242450BD054B1EFE708D2EDE7CCF841
:102EF00000100B60CDE7B44201D0B442E5D81A68A7
:102F00009C46002AE5D11960C3E700002DE9F0478F
:102F1000089D01F007044FEAD508224405F0070593
:102F200000EBD1004FF47F49944201D1BDE8F08716
:102F300004F0070705F0070A57453E4638BF5646D6
:102F4000C6F10806111B8E4228BF0E46E10808EBA9
:102F5000D50E415C13F80EC0B94029FA06F721FAE4
:102F60000AF1FFB28CEA010147FA0AF739408CEA0C
:102F7000010C03F80EC034443544D5E780EA012043
:102F8000082341F2210201B24000002980B203F17E
:102F9000FF33B8BF504013F0FF03F4D17047000077
:102FA00038B50C468D18A54200D138BD14F8011B68
:102FB000FFF7E4FFF7E7000042684AB11368436097
:102FC0004389818901339BB29942438138BF838110
:102FD0001046704770B588B0202204460D466846FA
:102FE0000021FEF729FC20460495FFF7E5FF024685
:102FF00058B16B46054608AE1C4603CCB442286067
:103000006960234605F10805F6D1104608B070BD89
:10301000082817D909280CD00A280CD00B280CD066
:103020000C280CD00D280CD00E2814BF40203020C6
:1030300070470C20704710207047142070471820EC
:103040007047202070470000082817D90C280CD999
:1030500010280CD914280CD918280CD920280CD9E0
:1030600030288CBF0F200E207047092070470A209F
:1030700070470B2070470C2070470D2070470000F0
:103080002DE9F843078C072F04461ED9D0E9029892
:1030900000254FF6FF73C5F12006A5F1200029FA9F
:1030A00005F108FA06F628FA00F031430143C9B2E7
:1030B0001846FFF763FF0835402D0346EBD1E16961
:1030C0003A46BDE8F843FFF76BBF4FF6FF70BDE827
:1030D000F883000010B54B6823B9CA8A63F309026C
:1030E000CA8210BD04691A681C600361C38A013B6F
:1030F000C3824A60EFE700002DE9F84F1D46CB8AF6
:103100000F46C3F309010529814692460B4630D08C
:103110000020AAB207F11A049EB2042E1FFA80F80A
:103120000FD8904503F1010306D3FB8A0A4462F3EA
:103130000903FB8201201AE01AF80060E65401300E
:10314000EAE79045F1D2A1F1050B1C237C68BBFB9B
:10315000F3F203FB12BB1FFA8BF6002C45D1484655
:10316000FFF72AFF044638B978606FF00200BDE827
:10317000F88F4FF00008E6E7002606607860ADB2F1
:103180004FF0000B454510D90AEB0803221D13F838
:10319000011B9155B1B208F101081B291FFA88F8EB
:1031A0002BD0454506F10106F1D8FB8AC3F309028D
:1031B000154465F30903BCE7013292B21C4623684B
:1031C000002BF9D16B1F0B441C21B3FBF1F301332E
:1031D0009BB29A42D3D2BBF1000FD0D14846FFF741
:1031E000EBFE20B9C4F800B0BFE70122E7E7C0F862
:1031F00000B05E4620600446C1E74545D5D9484643
:10320000FFF7DAFE08B92060AFE7C0F800B000268B
:1032100020600446B6E700002DE9F04F2DED028B4B
:103220001C4683B05B69019207468846002B00F07C
:10323000A780238C2BB1E269002A00F0A180072B24
:1032400035D807F10C00FFF7B7FE054638B96FF027
:103250000205284603B0BDEC028BBDE8F08F1422B6
:103260000021FEF7E9FA228CE16905F10800FEF77A
:10327000BDFA208C013080B2FFF7E6FEFFF7C8FEF2
:10328000013880B22084013028746369228C1B7855
:103290002A4403F01F0363F03F0348F00041137218
:1032A000384669602946FFF7EFFD0125D1E7023373
:1032B0009BB20722C18A0633B3FBF2F3828A521A09
:1032C0009BB292B29342C2D800F10C034FF00009B6
:1032D00008EE103A4FF0800A4E464D4618EE100A9E
:1032E000FFF76AFE83460028B1D014220021FEF7C2
:1032F000A3FA002E3AD1019BABF8083002220BF161
:10330000080E1FFA82FC0CF10100BCF1060F218CA3
:1033100080B201D88E422BD3FFF796FEFFF778FEDE
:1033200062691278013802F01F028E4208BF4FF026
:10333000400A42EA49121BFA80F14AEA020A0130C5
:1033400048F0004281F808A08BF81000CBF8042068
:1033500059463846FFF798FD238C0135B3422DB20C
:1033600089F001094FF0000AB8D172E70022C6E7E0
:10337000E169895D0EF802100136B6B20132C0E78C
:103380006FF0010565E70000F8B515460E463022DE
:10339000002104461F46FEF74FFA069B6360B5F511
:1033A000001F079BA76034BF6A094FF6FF72A36234
:1033B00097B2E66104F1100000239A4206D8002378
:1033C0000360A782E3822383E360F8BD06600133D4
:1033D00030462036F1E7000003781BB94BB2002BD2
:1033E000C8BF01707047000000787047F8B50C4600
:1033F000C969074611B9238C002B37D1257E1F2DB3
:1034000034D8387828BB228C072A2CD8268A36F064
:1034100003032BD14FF6FF70FFF7C2FD20F0010030
:103420003102400441EA0561400C41EA40254FF673
:10343000FF72234629463846FFF7EEFE002807DDD7
:10344000626913780133DBB21F2B88BF002313702E
:10345000F8BD218A2D0645EA012505432046FFF7E0
:103460000FFE0246E5E76FF00300F1E76FF00100A1
:10347000EEE7000070B58AB0044616460021282207
:1034800068461D46FEF7D8F9BDF83830ADF8103063
:103490000F9B05939DF840308DF81830119B0793D2
:1034A0006946BDF84830ADF820302046CDE90265C8
:1034B000FFF79CFF0AB070BD2DE9F041D3690546C6
:1034C0000C4616460BB9138C5BBB377E1F2F28D8D2
:1034D00095F80080B8F1000F26D03046FFF7D0FDF8
:1034E0003378210241EAC33141EA0801338A41EAD3
:1034F000076141EA03410246334641F08001284614
:10350000FFF78AFE00280ADD3378012B07D17269A4
:1035100013780133DBB21F2B88BF00231370BDE883
:10352000F0816FF00100FAE76FF00300F7E70000A9
:10353000F0B58BB004460D46174600212822684698
:103540001E46FEF779F99DF84C305A1E53425341FE
:103550008DF800309DF84030ADF81030119B059388
:103560009DF848308DF81830149B07936A46BDF8D3
:103570005430ADF8203029462046CDE90276FFF7D9
:103580009BFF0BB0F0BD0000406A00B104307047F3
:10359000436A1A68426202691A600361C38A013B86
:1035A000C38270472DE9F041D0F82080194E1446AF
:1035B0001D464146002709B9BDE8F081D1E9022343
:1035C000A21A65EB0303964277EB03031ED2036A4C
:1035D0008B420DD1FFF77EFD036A1B68036203690E
:1035E0000B60C38A0161016A013BC3828846E2E73E
:1035F000FFF770FD0B68C8F8003003690B60C38AE1
:103600000161013BC382D8F80010D4E788460968FD
:10361000D1E700BF80841E002DE9F04F8BB00D462E
:10362000DDF8509014469B468046002800F0198132
:10363000B9F1000F00F01581531E3F2B00F21181EC
:10364000012A03D1BBF1000F40F00B810023CDE92B
:103650000833B8F81430B5EBC30F4FEAC30703D3F0
:1036600000200BB0BDE8F08F2B199F42D8F80C302A
:103670003ABF7F1BFFB227461BB9D8F81030002B8A
:103680007AD0272D4ED8C5F12806B7424FF0000357
:103690002CBFF6B23E4600932946D8F8080008AB86
:1036A0003246FFF733FCA7EB060A35445FFA8AFA85
:1036B000B8F8143003F10053053BDB000493D8F84D
:1036C0000C3003932821039B13B1BAF1000F2CD1C6
:1036D000D8F8100040B1BAF1000F05D0009608AB41
:1036E0005246691AFFF712FC38B2002FB8D06607AD
:1036F0000AD00AAB03EBD401624211F8083C02F095
:103700000702134101F8083C082C3CD9102C40F268
:10371000B580202C40F2B780BBF1000F00F09C80F8
:10372000082334E0BA460026C2E7049BE02B28BFFA
:10373000E02306930B44AB42059314D95A1B03981C
:103740000096924534BF5246D2B2691A08AB043093
:103750000792FFF7DBFB079A1644AAEB020A15440F
:10376000F6B25FFA8AFA049B069A05999B1A0493AB
:10377000039B1B680393A6E70093D8F8080008ABE7
:103780003A462946AEE7BBF1000F13D00123B4EB54
:10379000C30F6CD0082C12D89DF82030621E23FA7B
:1037A00002F2D50706D54FF0FF3202FA04F42343A4
:1037B0008DF820309DF8203089F8003051E7102C2A
:1037C00012D8BDF82030621E23FA02F2D10706D5C6
:1037D0004FF0FF3202FA04F42343ADF82030BDF875
:1037E0002030A9F800303CE7202C0FD80899631E40
:1037F00021FA03F3DA0705D54FF0FF3202FA04F499
:103800000C430894089BC9F800302AE7402C2BD0C1
:10381000DDE90865611EC4F12102A4F1210326FA45
:1038200001F105FA02F225FA03F311431943CB071C
:1038300012D50122A4F12003C4F1200102FA03F3FE
:1038400022FA01F1A240524243EA010363EB43032F
:1038500032432B43CDE90823DDE90823C9E90023DE
:10386000FFE66FF00100FCE66FF00800F9E6082CB7
:10387000A0D9102CB3D9202CEED8C3E7BBF1000F90
:10388000ADD0022383E7BBF1000FBBD004237EE75A
:1038900030B5012A144638BF0124402C85B028BF1A
:1038A00040240025012ACDE9025518D81B788DF84F
:1038B000083063070AD004AB03EBD405624215F865
:1038C000083C02F00702934005F8083C00910346CB
:1038D0002246002102A8FFF719FB05B030BD082AD7
:1038E000E4D9102A03D81B88ADF80830E1E7202A74
:1038F0008DBFD3E900231B680293CDE90223D8E7EB
:1039000010B5CB681BB98B600B618B8210BD04694D
:103910001A681C600361C38A013BC382CA60F0E776
:1039200003064CBFC0F3C0300220704708B5024602
:10393000FFF7F6FF022806D15306C2F30F2001D18C
:1039400000F0030008BDC2F30740FBE72DE9F04F8C
:1039500093B0CDE903230A6804461046FFF7E0FF61
:10396000022814BFC2F306260026002A0D4682460E
:1039700080F2F78112F0C04940F0F381097B002901
:1039800000F0EF81022803D02378B34240F0EC81AD
:10399000C2F304630693104602F07F030593FFF71A
:1039A000C5FF059B29444FEA834848EA0A4848EA8C
:1039B0004668CE7800230022CDE90823F309834628
:1039C00048EA0008029367D0059B009302466768A7
:1039D000534608A92046B847002800F0C881276A46
:1039E0004FB9414604F10C00FFF7F4FA074690B9CD
:1039F0006FF0020054E03B6998450DD03F68002FFE
:103A0000F9D1414604F10C00FFF7E4FA074600281B
:103A1000EED0236A3B60276297F817C006F01F08B4
:103A2000CCF3840CACEB08001FFA80FE0028B8BF72
:103A30000EF12000A8EB0C031FFA83FED7E9022148
:103A4000B8BF00B2002B0793BEBF0EF120031BB21C
:103A5000079352EA010338D0039BDFF824E39A1A54
:103A6000049B4FF0000C63EB010196457CEB0103D6
:103A70002BD36B7B97F81AE0734519D1029B002B6F
:103A800078D0012821DC7868F8B9DFF8F0C29445D5
:103A900070EB010316D337E0276A27B96FF00C00EB
:103AA00013B0BDE8F08F3B699845B5D03F68F4E7A7
:103AB000B24890427CEB010301D30020F0E7029B67
:103AC000002BFAD0079B0F2B17DCFA7DB30002F016
:103AD000030203F07C031343FB7539462046FFF7CE
:103AE000F9FA6B7BBB76029B3BB9FB7DC3F3840287
:103AF000013262F38603FB75D0E76A7BBB7E9A4294
:103B0000DBD1029B002B35D0B309022B32D0039BB3
:103B1000BB60049BFB60142200210DA8FDF78CFE06
:103B2000039B0A93049B0B932B1D0C932B7BADF8EB
:103B30003EB0013BDBB2ADF83C30069B8DF8423025
:103B4000059B8DF8433094F82C308DF840A083F01D
:103B500001038DF844308DF84180A3680AA92046FE
:103B60009847FB7DC3F38403013303F01F039B02DB
:103B7000FB82A2E7FB7DC6F34012B2EBD31F40F0FD
:103B8000F980C3F38403434540F0FC80029A2B7B09
:103B9000B609002A52D016F0010661D1032B40F27B
:103BA000F480039BBB60049BFB60FB8A66F3090304
:103BB000FB822B7BAE1D033BDBB23246394604F160
:103BC0000C00FFF799FA00280CDA39462046FFF777
:103BD00081FAFB7DC3F38403013303F01F039B02CF
:103BE000FB8205E7DDE90884AB883B834FF6FF7372
:103BF000C9F12000A9F1200228FA09F104FA00F025
:103C0000014324FA02F211431846C9B2FFF7B6F98C
:103C100009F10809B9F1400F0346E9D1B8822A7BBE
:103C2000033AD2B23146FFF7BBF9FB7DB882DA43E3
:103C3000C2F3C01262F3C713FB753EE786B92E1DAF
:103C4000013BDBB23246394604F10C00FFF754FA6F
:103C50000028BADB2A7BB88A013AD2B23146E2E7C1
:103C6000F98AC1F30901013B0429DAB25BD8281DA6
:103C7000002307F11B069A4208D910F801CB06F879
:103C800001C0013101330529DBB2F4D103990A9156
:103C900004990B91934207F11B010C9138BF043337
:103CA00079680D9134BF55FA83F300230E93FB8A94
:103CB000ADF83EB0C3F309031A44069B8DF84230B9
:103CC000059B8DF8433094F82C30ADF83C2083F000
:103CD00001038DF8443000238DF840A08DF8418019
:103CE0007B602A7BB88A013A291DFFF759F93B8B83
:103CF000B882834203D1A3680AA920469847204688
:103D00000AA9FFF7FDFDFB7DBA8AC3F384030133E3
:103D100003F01F039B02FB823B8B9A420CBF0020E7
:103D20006FF01000BCE67B68002BAFD0052001E0EF
:103D30001C3033461E68002EFAD1091A081D2E1DAC
:103D4000184401EB090CBCF11B0F5FFA89F39DD8F5
:103D50009A429BD916F8013B00F8013B09F1010991
:103D6000EFE76FF009009BE66FF00A0098E66FF04E
:103D70000B0095E66FF00D0092E600BF40420F0089
:103D800080841E006FF00E008AE66FF00F0087E659
:103D9000EFF3098305494A6B22F001024A63683355
:103DA00083F30988002383F31188704700EF00E054
:103DB000302080F3118862B60C4B0D4AD96821F48B
:103DC000E0610904090C0A43DA60D3F8FC200949D0
:103DD00042F08072C3F8FC200A6842F001020A60D7
:103DE0002022DA7783F82200704700BF00ED00E060
:103DF0000003FA05001000E010B5302383F31188AA
:103E00000E4B5B6813F4006314D0F1EE103AEFF33D
:103E10000984683C4FF08073E361094BDB6B2366D8
:103E200084F3098800F044FD10B1064BA36110BD76
:103E3000054BFBE783F31188F9E700BF00ED00E0D5
:103E400000EF00E03F0300084203000800F1604378
:103E500003F561430901C9B283F80013012200F0A0
:103E60001F039A4043099B0003F1604303F561433C
:103E7000C3F880211A6070470268436811430160EB
:103E800003B1184770470000143002F0E5BA000093
:103E90004FF0FF33143002F0DFBA0000383002F088
:103EA0005BBB00004FF0FF33383002F055BB000021
:103EB000143002F0ABBA00004FF0FF31143002F0C2
:103EC000A5BA0000383002F005BB00004FF0FF3209
:103ED000383002F0FFBA0000012914BF6FF0130060
:103EE0000020704701F03EBF37B515460E4A02600C
:103EF00000224260C0E902220122044602740B46FD
:103F0000009000F15C014FF48072143002F054FA1A
:103F100000942B464FF4807204F5AE7104F1380022
:103F200002F0CCFA03B030BD286E000810B5302383
:103F3000044683F3118801F03BFF02232374002021
:103F400080F3118810BD000038B5C36904460D46E2
:103F50001BB904210844FFF78FFF294604F1140020
:103F600002F038FA002806DA201D4FF40061BDE89F
:103F70003840FFF781BF38BD0268436811430160D4
:103F800003B118477047000013B5446BD4F894345C
:103F90001A681178042915D1217C022912D11979C6
:103FA000128901238B4013420CD101A904F14C006A
:103FB00002F0D6F8D4F89444019B21790246206897
:103FC00000F0D6F902B010BD143002F059B800006C
:103FD0004FF0FF33143002F053B800004C3002F0C1
:103FE0002BB900004FF0FF334C3002F025B9000030
:103FF000143002F027B800004FF0FF31143002F007
:1040000021B800004C3002F0F7B800004FF0FF324A
:104010004C3002F0F1B800000020704710B5D0F825
:1040200094341A6811780429044617D1017C0229B6
:1040300014D15979528901238B4013420ED1143087
:1040400001F0BAFF024648B1D4F894444FF48073AB
:1040500061792068BDE8104000F078B910BD00001B
:10406000406BFFF7DBBF0000704700007FB5124BCD
:10407000036000234360C0E90233012502260F4B91
:10408000057404460290019300F1840229460096CB
:104090004FF48073143001F06BFF094B0294CDE9AB
:1040A000006304F523724FF48073294604F14C0039
:1040B00002F032F804B070BD506E00086140000894
:1040C000893F00080B68302282F311880A7903EBDC
:1040D000820210624A790D3243F822008A7912B1C5
:1040E00003EB820318620223C0F8941403740020C7
:1040F00080F311887047000038B5037F044613B180
:1041000090F85430ABB9201D01250221FFF734FF90
:1041100004F1140025776FF0010100F081FC84F8B0
:10412000545004F14C006FF00101BDE8384000F03C
:1041300077BC38BD10B5012104460430FFF71CFFE1
:104140000023237784F8543010BD000038B50446AE
:104150000025143001F024FF04F14C00257701F014
:10416000F3FF201D84F854500121FFF705FF20467E
:10417000BDE83840FFF752BF90F85C3003F06003B1
:10418000202B07D190F85D20212A4FF0000303D89F
:104190001F2A06D800207047222AFBD1C0E9143319
:1041A00003E0034A026507224265836501207047E8
:1041B0002423002037B5D0F894341A6811780429E4
:1041C00004461AD1017C022917D1197912890123D9
:1041D0008B40134211D100F14C05284602F074F8CF
:1041E00058B101A9284601F0BBFFD4F89444019BC3
:1041F00021790246206800F0BBF803B030BD000012
:10420000F0B500EB810385B01E6A04460D46FEB191
:10421000302383F3118804EB8507301D0821FFF755
:10422000ABFEFB685B691B6806F14C001BB101909B
:1042300001F0A4FF019803A901F092FF024648B1E2
:10424000039B2946204600F093F8002383F311884E
:1042500005B0F0BDFB685A691268002AF5D01B8AC8
:10426000013B1340F1D104F15C02EAE70D3138B5AE
:1042700050F82140DCB1302383F31188D4F8942422
:104280001368527903EB8203DB689B695D6845B173
:1042900004216018FFF770FE294604F1140001F0B4
:1042A00095FE2046FFF7BAFE002383F3118838BD40
:1042B0007047000001F0D8B810B501230446282249
:1042C00000F8243B0021FDF7B7FA0023C4E90133CD
:1042D00010BD000038B50446302383F31188002553
:1042E000C0E90355C0E90555C0E90755416001F033
:1042F000CBF80223237085F31188284638BD0000CF
:1043000070B500EB810305465069DA600E4614462D
:1043100018B110220021FDF78FFAA06918B1102200
:104320000021FDF789FA31462846BDE8704001F0CA
:1043300075B90000826802F0011282600022C0E9B3
:104340000422C0E90622026201F0F4B9F0B400EBE5
:1043500081044789E4680125A4698D403D43458176
:1043600023600023A2606360F0BC01F00FBA00007C
:10437000F0B400EB81040789E468012564698D408D
:104380003D43058123600023A2606360F0BC01F01F
:1043900089BA000070B50223002504460370C0E905
:1043A0000255C0E90455C0E906554566056280F826
:1043B0004C5001F0CFF863681B6823B129462046B2
:1043C000BDE87040184770BD0378052B10B5044652
:1043D0000AD080F868300523037043681B680BB16E
:1043E000042198470023A36010BD0000017805292F
:1043F00006D190F86820436802701B6803B1184723
:104400007047000070B590F84C30044613B100239B
:1044100080F84C3004F15C02204601F0ADF963688D
:104420009B68B3B994F85C3013F0600535D0002177
:10443000204601F061FC0021204601F053FC636836
:104440001B6813B1062120469847062384F84C3098
:1044500070BD204698470028E4D0B4F86230626D01
:104460009A4288BF636594F95C30656D002B4FF00C
:10447000300380F20381002D00F0F280092284F8DD
:104480004C2083F311880021D4E914232046FFF740
:104490006FFF002383F31188DAE794F85D2003F0BF
:1044A0007F0343EA022340F20232934200F0C580C8
:1044B00021D8B3F5807F48D00DD8012B3FD0022BF7
:1044C00000F09380002BB2D104F164022265022235
:1044D0006265A365C1E7B3F5817F00F09B80B3F50A
:1044E000407FA4D194F85E30012BA0D1B4F86430A1
:1044F00043F0020332E0B3F5006F4DD017D8B3F5A7
:10450000A06F31D0A3F5C063012B90D8636894F8F5
:104510005E205E6894F85F10B4F860302046B047C3
:10452000002884D043682365036863651AE0B3F507
:10453000106F36D040F6024293427FF478AF5C4B66
:104540002365022363650023C3E794F85E30012BE3
:104550007FF46DAFB4F8643023F00203C4E914555E
:10456000A4F86430A56578E7B4F85C30B3F5A06FC3
:104570000ED194F85E3084F86630204601F042F89F
:1045800063681B6813B101212046984703232370F9
:104590000023C4E914339CE704F167032365012376
:1045A000C3E72378042B10D1302383F311882046EE
:1045B000FFF7C0FE85F311880321636884F8675014
:1045C00021701B680BB12046984794F85E30002B91
:1045D000DED084F867300423237063681B68002BE7
:1045E000D6D0022120469847D2E794F860301D06C5
:1045F00003F00F0120460AD501F0B0F8012804D0DD
:1046000002287FF414AF2B4B9AE72B4B98E701F06D
:1046100097F8F3E794F85E30002B7FF408AF94F836
:10462000603013F00F01B3D01A06204602D501F016
:1046300077FBADE701F06AFBAAE794F85E30002B48
:104640007FF4F5AE94F8603013F00F01A0D01B0694
:10465000204602D501F050FB9AE701F043FB97E7B3
:10466000142284F84C2083F311882B462A462946CD
:104670002046FFF76BFE85F31188E9E65DB1152250
:1046800084F84C2083F311880021D4E914232046B8
:10469000FFF75CFEFDE60B2284F84C2083F31188C3
:1046A0002B462A4629462046FFF762FEE3E700BF75
:1046B000806E0008786E00087C6E000838B590F8AF
:1046C0004C300446002B3ED0063BDAB20F2A34D8D9
:1046D0000F2B32D8DFE803F0373131082232313185
:1046E0003131313131313737456DB0F862309D426B
:1046F00014D2C3681B8AB5FBF3F203FB12556DB9E4
:10470000302383F311882B462A462946FFF730FED3
:1047100085F311880A2384F84C300EE0142384F8C2
:104720004C30302383F3118800231A461946204663
:10473000FFF70CFE002383F3118838BD836D03B1AE
:1047400098470023E7E70021204601F0D5FA002131
:10475000204601F0C7FA63681B6813B106212046A2
:1047600098470623D7E7000010B590F84C30142B7B
:10477000044629D017D8062B05D001D81BB110BD8F
:10478000093B022BFBD80021204601F0B5FA00219D
:10479000204601F0A7FA63681B6813B10621204682
:1047A0009847062319E0152BE9D10B2380F84C30EC
:1047B000302383F3118800231A461946FFF7D8FDEA
:1047C000002383F31188DAE7C3689B695B68002BD9
:1047D000D5D1836D03B19847002384F84C30CEE7E0
:1047E00000230375826803691B6899689142FBD2B4
:1047F0005A68036042601060586070470023037578
:10480000826803691B6899689142FBD85A68036003
:10481000426010605860704708B50846302383F343
:1048200011880B7D032B05D0042B0DD02BB983F3FE
:10483000118808BD8B6900221A604FF0FF33836135
:10484000FFF7CEFF0023F2E7D1E9003213605A6090
:10485000F3E70000FFF7C4BF054BD9680875186877
:1048600002681A60536001220275D860FBF752BDDE
:10487000984B002030B50C4BDD684B1C87B00446CC
:104880000FD02B46094A684600F05EF92046FFF734
:10489000E3FF009B13B1684600F060F9A86907B018
:1048A00030BDFFF7D9FFF9E7984B00201948000801
:1048B000044B1A68DB6890689B68984294BF00209C
:1048C00001207047984B0020084B10B51C68D86831
:1048D00022681A60536001222275DC60FFF78EFFA8
:1048E00001462046BDE81040FBF714BD984B002060
:1048F00038B5074C07490848012300252370656037
:1049000001F076FE0223237085F3118838BD00BFC5
:10491000004E0020886E0008984B002008B572B643
:10492000044B186500F048FC00F0F0FC024B032239
:104930001A70FEE7984B0020004E002000F044B9AA
:10494000034A516853685B1A9842FBD8704700BF0E
:10495000001000E08B60022308618B8208467047DC
:104960008368A3F1840243F8142C026943F8442CB1
:10497000426943F8402C094A43F8242CC26843F8A2
:10498000182C022203F80C2C002203F80B2C044AEA
:1049900043F8102CA3F12000704700BF2D0300083E
:1049A000984B002008B5FFF7DBFFBDE80840FFF794
:1049B00051BF0000024BDB6898610F20FFF74CBF2E
:1049C000984B0020302383F31188FFF7F3BF0000DA
:1049D00008B50146302383F311880820FFF74AFF0A
:1049E000002383F3118808BD064BDB6839B14268A8
:1049F00018605A60136043600420FFF73BBF4FF01C
:104A0000FF307047984B00200368984206D01A6820
:104A10000260506099611846FFF71CBF70470000A4
:104A200038B504460D462068844200D138BD03687D
:104A300023605C608561FFF70DFFF4E710B5036844
:104A40009C68A2420CD85C688A600B604C60216054
:104A5000596099688A1A9A604FF0FF33836010BDDD
:104A60001B68121BECE700000A2938BF0A2170B549
:104A700004460D460A26601901F0B4FD01F0A0FDC0
:104A8000041BA54203D8751C2E460446F3E70A2EE4
:104A900004D9BDE87040012001F0EABD70BD0000FE
:104AA000F8B5144B0D46D96103F1100141600A2A93
:104AB0001969826038BF0A22016048601861A8182D
:104AC000144601F081FD0A2701F07AFD431BA34241
:104AD000064606D37C1C281901F084FD274635467E
:104AE000F2E70A2F04D9BDE8F840012001F0C0BD6B
:104AF000F8BD00BF984B0020F8B506460D4601F002
:104B00005FFD0F4A134653F8107F9F4206D12A4695
:104B100001463046BDE8F840FFF7C2BFD169BB6827
:104B2000441A2C1928BF2C46A34202D92946FFF764
:104B30009BFF224631460348BDE8F840FFF77EBFA1
:104B4000984B0020A84B002010B4C0E90323002399
:104B50005DF8044B4361FFF7CFBF000010B5194C5F
:104B6000236998420DD0D0E90032816813605A6001
:104B70009A680A449A60002303604FF0FF33A361F0
:104B800010BD2346026843F8102F536000220260D4
:104B900022699A4203D1BDE8104001F01DBD93681F
:104BA00081680B44936001F00BFD2269E169926812
:104BB000441AA242E4D91144BDE81040091AFFF793
:104BC00053BF00BF984B00202DE9F047DFF8BC80B1
:104BD00008F110072C4ED8F8105001F0F1FCD8F86D
:104BE0001C40AA68031B9A423ED81444D5E90032FF
:104BF0004FF00009C8F81C4013605A60C5F80090D7
:104C0000D8F81030B34201D101F0E6FC89F31188E5
:104C1000D5E9033128469847302383F311886B691F
:104C2000002BD8D001F0CCFC6A69A0EB04094A45FE
:104C300082460DD2022001F01BFD0022D8F8103070
:104C4000B34208D151462846BDE8F047FFF728BFD8
:104C5000121A2244F2E712EB090938BF4A462946E4
:104C60003846FFF7EBFEB5E7D8F81030B34208D06E
:104C70001444211AC8F81C00A960BDE8F047FFF7EA
:104C8000F3BEBDE8F08700BFA84B0020984B002082
:104C900038B501F095FC054AD2E90845031B1819FF
:104CA00045F10001C2E9080138BD00BF984B002062
:104CB00000207047FEE70000704700004FF0FF3013
:104CC0007047000002290CD0032904D001290748AD
:104CD00018BF00207047032A05D8054800EBC20022
:104CE0007047044870470020704700BF606F00089D
:104CF00034230020146F000870B59AB005460846AA
:104D000001A9144600F0C2F801A8FCF78DFD431C70
:104D10005B00C5E900340022237003236370C6B230
:104D200001AB02341046D1B28E4204F1020401D824
:104D30001AB070BD13F8011B04F8021C04F8010C32
:104D40000132F0E708B5302383F311880348FFF7F9
:104D500031FA002383F3118808BD00BF084E0020FC
:104D600090F85C3003F01F02012A07D190F85D2013
:104D70000B2A03D10023C0E9143315E003F06003CC
:104D8000202B08D1B0F860302BB990F85D20212A93
:104D900003D81F2A04D8FFF7EFB9222AEBD0FAE78D
:104DA000034A02650722426583650120704700BF00
:104DB0002B23002007B5052917D8DFE801F01916C5
:104DC00003191920302383F31188104A019001211F
:104DD000FFF796FA01980E4A0221FFF791FA0D4863
:104DE000FFF7B4F9002383F3118803B05DF804FBE7
:104DF000302383F311880748FFF77EF9F2E7302369
:104E000083F311880348FFF795F9EBE7B46E0008C8
:104E1000D86E0008084E002038B50C4D0C4C0D49DA
:104E20002A4604F10800FFF767FF05F1CA0204F102
:104E300010000949FFF760FF05F5CA7204F1180078
:104E40000649BDE83840FFF757BF00BFD0520020E9
:104E500034230020946E00089E6E0008A96E00089E
:104E600070B5044608460D46FCF7DEFCC6B2204687
:104E7000013403780BB9184670BD32462946FCF759
:104E8000BFFC0028F3D10120F6E700002DE9F84F20
:104E900005460C46FCF7C8FC2B49C6B22846FFF76E
:104EA000DFFF08B10436F6B228492846FFF7D8FFDD
:104EB00008B11036F6B2632E0DD8DFF88C90DFF80B
:104EC0008CA0DFF89480DFF894B0214F2E7846B99B
:104ED0002670BDE8F88F29462046BDE8F84F01F05E
:104EE0001DBF252E2CD1072249462846FCF788FCF9
:104EF00050B93B6823607B6863603B892381BB7A40
:104F0000A37207350B34E1E7082251462846FCF727
:104F100077FCA8B90F4BA21C19780909023211F8C5
:104F2000081002F8041C13F8011B01F00F015B4587
:104F300011F8081002F8031CEED118340835C5E743
:104F400004F8016B0135C1E7806F0008A96E000805
:104F50003A6D0008107AFF1F886F00081C7AFF1F47
:104F6000BFF34F8F024AD368DB03FCD4704700BF06
:104F7000003C024008B5094B1B7873B9FFF7F0FFFE
:104F8000074B1A69002ABFBF064A5A6002F18832ED
:104F90005A601A6822F480621A6008BD2E550020FB
:104FA000003C02402301674508B50B4B1B7893B9C1
:104FB000FFF7D6FF094B1A6942F000421A611A68DE
:104FC00042F480521A601A6822F480521A601A68F9
:104FD00042F480621A6008BD2E550020003C024059
:104FE0000728F0B516D80C4C0C4923787BB90C4D2A
:104FF0000E4608234FF0006255F8047B46F8042B58
:10500000013B13F0FF033A44F6D10123237051F81A
:105010002000F0BD0020FCE7505500203055002056
:105020009C6F0008014B53F8200070479C6F0008EC
:1050300008207047072810B5044601D9002010BD8C
:10504000FFF7CEFF064B53F824301844C21A0BB9B1
:105050000120F4E712680132F0D1043BF6E700BF0B
:105060009C6F0008072810B5044621D8FFF778FF89
:10507000FFF780FF0F4AF323D360C300DBB243F492
:10508000007343F002031361136943F48033136127
:10509000FFF766FFFFF7A4FF074B53F8241000F05B
:1050A00031F9FFF781FF2046BDE81040FFF7C2BF8E
:1050B000002010BD003C02409C6F0008F8B512F0C3
:1050C0000103144642D185182E4A954257D82E4BDB
:1050D0001B6813F0010352D02C4DFFF74BFFF32355
:1050E000EB60FFF73DFF40F20127032C15D824F0B9
:1050F00001046618254C401A40F20117B142236999
:1051000000EB010524D123F001032361FFF74CFFDD
:105110000120F8BD043C0430E7E78307E7D12B69A1
:1051200023F440732B612B693B432B6151F8046BD3
:105130000660BFF34F8FFFF713FF03689E42E9D06D
:105140002B6923F001032B61FFF72EFF0020E0E71E
:1051500023F44073236123693B4323610B882B8035
:10516000BFF34F8FFFF7FCFE2D8831F8023BADB245
:10517000AB42C3D0236923F001032361E4E718465F
:10518000C7E700BF0000080800380240003C0240AA
:10519000084908B50B7828B11BB9FFF7EBFE0123CE
:1051A0000B7008BD002BFCD0BDE808400870FFF76D
:1051B000FBBE00BF2E5500200149024800F0A4B8F4
:1051C00000FF0300000100200846114601F056BD13
:1051D000084601F069BD000038B5EFF311859DB9AF
:1051E000EFF30584C4F30804302334B183F311884A
:1051F000FFF74EFD85F3118838BD83F31188FFF763
:1052000047FD84F3118838BDBDE83840FFF740BD45
:1052100038B5FFF7E1FF114C114AC00840EA417070
:10522000A0FB025EC908A0FB040C1CEB050CA1FB53
:1052300004404FF000035B41A1FB02121CEB040C85
:1052400043EB000011EB0E0142F10002411842F164
:105250000000090941EA007038BD00BFCFF753E3F1
:10526000A59BC42010B50244064BD2B2904200D197
:1052700010BD441C00B253F8200041F8040BE0B20A
:10528000F4E700BF502800400F4B30B51C6F2404DA
:1052900007D41C6F44F400741C671C6F44F4004472
:1052A0001C670A4C236843F4807323600244084B54
:1052B000D2B2904200D130BD441C00B251F8045B20
:1052C00043F82050E0B2F4E700380240007000409C
:1052D0005028004007B5012201A90020FFF7C2FFB6
:1052E000019803B05DF804FB13B50446FFF7F2FF25
:1052F000A04205D0012201A900200194FFF7C4FFBC
:1053000002B010BD704700007047000070470000F9
:10531000074B45F255521A6003225A6040F2FF7261
:105320009A604CF6CC421A60024B01221A70704708
:105330000030004058550020034B1B781BB1034B35
:105340004AF6AA221A6070475855002000300040E3
:10535000034B1A681AB9034AD2F874281A607047C6
:105360005455002000300240024B4FF08072C3F8C9
:10537000742870470030024008B5FFF7E9FF024B80
:105380001868C0F3407008BD5455002008B5FFF7F9
:10539000DFFF024B1868C0F3007008BD54550020B1
:1053A000CAB201460120FFF76FBF0000CAB2014632
:1053B0000120FFF757BF000070470000FEE7000024
:1053C0000A4B0B480B4A90420BD30B4BDA1C121AB8
:1053D000C11E22F003028B4238BF00220021FCF7DD
:1053E0002BBA53F8041B40F8041BECE7A871000823
:1053F000445B0020445B0020445B002070B5D0E992
:105400001B439E6800224FF0FF3504EB421351010D
:10541000D3F800090028BEBFD3F8000940F080404F
:10542000C3F80009D3F8000B0028BEBFD3F8000B67
:1054300040F08040C3F8000B013263189642C3F875
:105440000859C3F8085BE0D24FF00113C4F81C38C8
:1054500070BD0000890141F02001016103699B06D4
:10546000FCD41220FFF76CBA10B5054C2046FEF7AD
:1054700023FF4FF0A043E366024B236710BD00BF3C
:105480005C550020E06F000870B50378012B0546DD
:1054900050D12A4BC46E98421BD1294B5A6B42F013
:1054A00080025A635A6D42F080025A655A6D5A69F9
:1054B00042F080025A615A6922F080025A610E213C
:1054C00043205B69FEF7C2FC1E4BE3601E4BC4F831
:1054D00000380023C4F8003EC0232360EE6E4FF472
:1054E0000413A3633369002BFCDA012333610C201E
:1054F000FFF726FA3369DB07FCD41220FFF720FA06
:105500003369002BFCDA0026A6602846FFF776FFF9
:105510006B68C4F81068DB68C4F81468C4F81C68C9
:105520004BB90A4BA3614FF0FF336361A36843F0AB
:105530000103A36070BD064BF4E700BF5C5500207B
:10554000003802404014004003002002003C30C0FC
:10555000083C30C0F8B5C46E054600212046FFF770
:1055600079FF296F00234FF001128F68C4F8343897
:105570004FF00066C4F81C284FF0FF3004EB4312D4
:1055800001339F42C2F80069C2F8006BC2F80809F3
:10559000C2F8080BF2D20B68EA6E6B6763621023E5
:1055A0001361166916F01006FBD11220FFF7C8F937
:1055B000D4F8003823F4FE63C4F80038A36943F438
:1055C000402343F01003A3610923C4F81038C4F842
:1055D00014380A4BEB604FF0C043C4F8103B084B43
:1055E000C4F8003BC4F81069C4F800396B6F03F1CC
:1055F000100243F480136A67A362F8BDBC6F000811
:1056000040800010C26E90F86610D2F8003823F483
:10561000FE6343EA0113C2F8003870472DE9F843EE
:1056200000EB8103C56EDA68166806F00306731E88
:10563000022B05EB41130C4680460FFA81F94FEA25
:1056400041104FF00001C3F8101B4FF0010104F1AD
:10565000100398BFB60401FA03F391698EBF334E6D
:1056600006F1805606F5004600293AD0578A04F123
:105670005801490137436F50D5F81C180B43C5F842
:105680001C382B180021C3F8101953690127611E1B
:10569000A7409BB3138A928B9B08012A88BF534370
:1056A000D8F87420981842EA034301F1400205EB50
:1056B0008202C8F87400214653602846FFF7CAFEEC
:1056C00008EB8900C3681B8A43EA845348346401A9
:1056D0001E432E51D5F81C381F43C5F81C78BDE871
:1056E000F88305EB4917D7F8001B21F40041C7F8F0
:1056F000001BD5F81C1821EA0303C0E704F13F039F
:1057000005EB83030A4A5A6028462146FFF7A2FEAA
:1057100005EB4910D0F8003923F40043C0F80039F4
:10572000D5F81C3823EA0707D7E700BF0080001030
:1057300000040002026F12684267FFF75FBE0000BC
:105740005831C36E49015B5813F4004004D013F480
:10575000001F0CBF02200120704700004831C36EBB
:1057600049015B5813F4004004D013F4001F0CBF30
:10577000022001207047000000EB8101CB68196A0C
:105780000B6813604B6853607047000000EB8103A7
:1057900030B5DD68AA691368D36019B9402B84BF9E
:1057A000402313606B8A1468C26E1C44013CB4FB36
:1057B000F3F46343033323F0030302EB411043EAA2
:1057C000C44343F0C043C0F8103B2B6803F003030D
:1057D000012B09B20ED1D2F8083802EB411013F4B4
:1057E000807FD0F8003B14BF43F0805343F0005358
:1057F000C0F8003B02EB4112D2F8003B43F00443F7
:10580000C2F8003B30BD00002DE9F041244DEE6EA2
:1058100006EB40130446D3F8087BC3F8087B38072F
:105820000AD5D6F81438190706D505EB84032146A6
:10583000DB6828465B689847FA071FD5D6F8143806
:10584000DB071BD505EB8403D968CCB98B69488A83
:105850005A68B2FBF0F600FB16228AB91868DA68BB
:1058600090420DD2121AC3E90024302383F3118829
:105870000B482146FFF78AFF84F31188BDE8F081C9
:10588000012303FA04F26B8923EA02036B81CB68DC
:10589000002BF3D021460248BDE8F041184700BF75
:1058A0005C55002000EB810370B5DD68C36E6C6948
:1058B0002668E6604A0156BB1A444FF40020C2F83D
:1058C00010092A6802F00302012A0AB20ED1D3F8A5
:1058D000080803EB421410F4807FD4F8000914BFC9
:1058E00040F0805040F00050C4F8000903EB421231
:1058F000D2F8000940F00440C2F80009D3F8340897
:10590000012202FA01F10143C3F8341870BD19B93C
:10591000402E84BF4020206020682E8A8419013CDC
:10592000B4FBF6F440EAC44040F000501A44C6E725
:105930002DE9F8433B4DEE6E06EB40130446D3F8D9
:105940000889C3F8088918F0010F4FEA40171AD0E8
:10595000D6F81038DB0716D505EB8003D9684B69FC
:105960001868DA68904230D2121A4FF000091A60B3
:10597000C3F80490302383F3118821462846FFF7AB
:1059800091FF89F3118818F0800F1CD0D6F83438B5
:105990000126A640334216D005EB8403ED6ED3F802
:1059A0000CC0DCF814200134E4B2D2F800E005EBBE
:1059B00004342F445168714515D3D5F8343823EA9F
:1059C0000606C5F83468BDE8F883012303FA04F23B
:1059D0002B8923EA02032B818B68002BD3D021462D
:1059E00028469847CFE7BCF81000AEEB010383428E
:1059F00028BF0346D7F8180980B2B3EB800FE2D86E
:105A00009068A0F1040959F8048FC4F80080A0EB55
:105A100009089844B8F1040FF5D818440B44906075
:105A20005360C7E75C5500202DE9F74FAC4CE56E9D
:105A30006E69AB691E4016F480586E6107D020462F
:105A4000FEF7A8FC03B0BDE8F04FFEF7D5B9002E75
:105A500012DAD5F8003EA2489B071EBFD5F8003EDB
:105A600023F00303C5F8003ED5F8043823F0010302
:105A7000C5F80438FEF7BAFC370505D59848FFF796
:105A8000BDFC9748FEF7A0FCB0040CD5D5F808384B
:105A900013F0060FEB6823F470530CBF43F410535C
:105AA00043F4A053EB6031071BD56368DB681BB977
:105AB000AB6923F00803AB612378052B0CD1D5F833
:105AC000003E87489A071EBFD5F8003E23F0030327
:105AD000C5F8003EFEF78AFC6368DB680BB18048BE
