:020000040800F2
:1000000000100020FD01000845020008450200081C
:1000100045020008450200084502000800000000F3
:100020000000000000000000000000004502000881
:1000300045020008000000004502000845020008D3
:100040004502000845020008450200084502000874
:100050004502000845020008450200084502000864
:100060004502000845020008450200084502000854
:100070004502000845020008450200084502000844
:100080004502000845020008450200084502000834
:100090004502000845020008450200084502000824
:1000A0004502000845020008450200084502000814
:1000B0004502000845020008450200084502000804
:1000C00045020008450200084502000845020008F4
:1000D00045020008450200084502000845020008E4
:1000E0004502000845020008450200080000000023
:1000F0000000000000000000000000000000000000
:100100000000000045020008450200080000000051
:100110004502000845020008000000000000000041
:100120004502000845020008450200084502000893
:1001300000000000000000000000000000000000BF
:100140000000000000000000000000004502000860
:100150000000000000000000450200084502000801
:100160000000000000000000000000004502000840
:100170000348044B834202D0034B03B11847704736
:100180000400002004000020000000000548064B89
:100190001B1AD90F01EBA301491002D0034B03B185
:1001A00018477047040000200400002000000000F1
:1001B00010B5064C237843B9FFF7DAFF044B13B1AF
:1001C0000448AFF300800123237010BD1802002003
:1001D00000000000400E000808B5054B1BB10549A2
:1001E0000548AFF30080BDE80840FFF7CFBF00BF70
:1001F000000000001C020020400E0008002103E067
:100200000B4B5B58435004310A480B4B42189A423F
:10021000F6D30A4A02E0002342F8043B084B9A4214
:10022000F9D300F00FFB00F0D9FD00F03BFB704765
:10023000700E0008000000200400002004000020D0
:1002400034020020FEE70000114B1A6842F0010260
:100250001A601A689207FCD55A6822F003025A60A5
:100260005A6812F00C0FC2F38101F9D11A6822F01A
:10027000867222F480321A6041F610725960DA6296
:100280004FF480121A634FF41F029A60704700BF48
:1002900000100240030C03F1804303F5043300F027
:1002A0001F001A680123834093430CBF01200020E4
:1002B0007047030C03F1804303F50433012900F078
:1002C0001F0019684FF0010202FA00F20CBF0A4346
:1002D00021EA02021A60704704281FD8DFE800F004
:1002E00003090E1319000E4B1A6861F300021A601D
:1002F00070470B4B1A6861F31042F8E7084B1A6815
:1003000061F31862F3E7064B1A6A61F300021A629E
:100310007047034B5A6A61F300025A62704700BF8C
:1003200000100240024B5A6860F307125A6070478F
:1003300000100240024B5A6860F30A225A6070476C
:1003400000100240024B5A6860F3CD225A60704799
:1003500000100240114B5A6890B960F310425A6085
:1003600000205A6861F395425A605A68C1F301113E
:1003700061F35E725A60DA6A60F31A62DA62704799
:1003800042F480325A6001285A6804D122F40032C3
:100390005A600220E5E742F40032E0E70010024034
:1003A000024B5A6860F301025A6070470010024025
:1003B000024B5868C0F38100704700BF0010024034
:1003C000044B5A6D01280CBF42F0300222F030027B
:1003D0005A65704700100240014BD860704700BF5B
:1003E00000200240084BDA68D10709D4DA685207C6
:1003F00008D4D868C0F30010C0F10300C0B2704741
:1004000000207047012070470020024010B50446CC
:10041000FFF7E8FF30B90CB9042010BDFFF7E2FF89
:10042000013CF7E7002C08BF0420F6E7034B044A21
:100430005A6002F188325A60704700BF00200240C3
:1004400023016745024A136943F080031361704733
:100450000020024010B5094C236943F002032361D8
:100460006061236943F0400323614FF08040FFF750
:10047000CDFF236923F00203236110BD0020024059
:1004800010B5074C236943F00103236101604FF469
:100490008010FFF7BBFF236923F00103236110BD28
:1004A00000200240F0B58C790A68032C95B24AD03E
:1004B000002C3DD14B79182B02D10561082303E0B4
:1004C000282B32D003F00F03D1B2A9B1002492B28D
:1004D0000F2742FA04F1C9070BD50668A10007FAF5
:1004E00001FC26EA0C060660066803FA01F13143B6
:1004F00001600134082CECD1FF2D15D92D0A002103
:100500000F2645FA01F2D2070BD544688A0006FA95
:1005100002F724EA07044460446803FA02F2224323
:10052000426001310829ECD1F0BD93B24361C5E7C7
:100530000B79C97903F0040304F00804234301F0A4
:1005400003010B43C0E70023BEE70000024B4FF658
:10055000FF72C0E90023704700040003C0F30722C4
:1005600030B5C2F12002C0F30744121B4FF0FF3335
:100570009340D340020E02F1804202F58032E34004
:100580001568A34025EA030311B1C0B2A04003439C
:10059000136030BD2DE9F84342EA01039B0705468D
:1005A0000E46144631D14FEA9108FFF73FFF184B32
:1005B000B3F8E030812B34BF4FF480624FF4006217
:1005C000B4FBF2F302FB134313B92046FFF742FFDB
:1005D00005EB88082F46A4EB050947450BD1FFF72B
:1005E00031FF32462146284600F0E0FBB0FA80F0A9
:1005F0004009BDE8F883396809EB0700FFF740FFC1
:100600000320FFF7E9FE0437E7E70020F1E700BF2A
:1006100000F7FF1F00F006BC0549064B4A6A92B27C
:100620001A804B6A9B1A9BB29842FAD8704700BF57
:100630000004004004000020F8B50C4E10270546C9
:1006400077613420FFF7E8FF0824EB074CBF3761E0
:1006500077613420013CFFF7DFFF14F0FF044FEA1D
:100660005505F2D1014B10221A61F8BD000C014072
:10067000114B1B78012B03D0104B00225A8070477E
:100680000F4A136803F16043B3F5803FF4D8536811
:1006900003F17843A3F58053B3F5802FECD872B6FD
:1006A00008490B6823F001030B60D2E900329D4634
:1006B00083F3088810477047007C0008040000207E
:1006C0000010000800040040074A1023136113685B
:1006D00023F4702343F400331360044B1B7913B1EC
:1006E0003420FFF799BF7047000C01400400002040
:1006F00070B51448ADF5806DFFF7CCFD01281ED113
:10070000114CA378102B1AD0013BDBB2FD2B16D86D
:100710004FF480622146684600F084FB0B4E1023A4
:100720008DF802306D46224628464FF4807104F55C
:100730008074FFF72FFFB44205F58075F3D10DF5F6
:10074000806D70BD1C002400007C00080080000843
:10075000034A136823F4702343F4C01313607047F3
:10076000000C014010B50446FFF7AEFF2046FFF72E
:1007700063FFBDE81040FFF7EBBF000008B5302075
:10078000FFF7F0FF014B00225A8008BD0400002053
:1007900008B5C220FFF7E6FF024A538801335380B1
:1007A00008BD00BF0400002008B5C120FFF7DAFF34
:1007B000024A53880133538008BD00BF0400002063
:1007C00038B504460D46FFF77FFF254414F8010BAA
:1007D000FFF732FF3420FFF71FFFAC42F6D1BDE830
:1007E0003840FFF7B5BF000008B504480921FFF7FE
:1007F000E7FF034B01221A7108BD00BFE80F000894
:10080000040000200A4A536D9B050FD5136B09495C
:1008100013F0007F084B08BF0B4652680749C2F32C
:1008200003128A5CD340064A13607047014BF4E719
:100830000010024000127A00006CDC02580E000822
:100840000000002070470022F0B505461046914296
:1008500000DCF0BDAE5C082486EA000303F001036F
:1008600003EB830703EB473383EA500398B2631E1D
:1008700013F0FF044FEA5606EED10132E7E700001D
:1008800010B5074C0146601DFFF7DDFF21448A7952
:100890004B7943EA02231B1A5842584110BD00BF4E
:1008A000040000202DE98048B04B85B04FF4AA72B7
:1008B00000AF1A60FFF7C8FC01210020FFF70CFD14
:1008C0000120FFF7E7FC01280446F9D1232100208D
:1008D000FFF740FD21460220FFF7FEFC1920FFF73D
:1008E000D9FC01280446F9D10020FFF71BFD0420A4
:1008F000FFF728FD0420FFF71DFD2046FFF760FDF0
:100900000220FFF74DFDFFF753FD0228FBD1002029
:10091000FFF756FDFFF776FF95480121FFF7C9FC69
:10092000944B95488F229A624FF6FF72DA625A69A9
:1009300042F001025A611A6842F001021A60012174
:10094000FFF7B7FC8D480121FFF7B3FC01214FF4FD
:10095000C010FFF7AEFC01218948FFF7FFFD07F14A
:100960000800FFF7F3FD874B1024C7E90243864CCC
:1009700007F108012046FFF795FD236823F4702353
:1009800043F4201323604FF4FA70FFF745FE4FF451
:100990007A66002540F2C318A368D8065CBF01350B
:1009A000ADB20A20FFF738FE454500F09E80013EBB
:1009B000F2D1754E336823F4702343F4C0134FF41F
:1009C000FA703360FFF728FE0446B368D90658BFB3
:1009D00001354FF00A0058BFADB2FFF71DFE013CD4
:1009E000F3D1D5B1684E336823F4702343F48023E8
:1009F0004FF4FA703360FFF70FFE0546B368DA066E
:100A000058BF01344FF00A0058BFA4B2FFF704FEEC
:100A1000013DF3D10CB1FFF72BFE5B4A554E136835
:100A200023F4702343F4C0131360FFF761FE574CA7
:100A30004FF0000B4FF481725946601D84F807B1E6
:100A400000F0C4F9FFF784FE04F1050AD146D84648
:100A5000002384F80831726A4B4892B2228044F62F
:100A600020658368DB0649D5726A94F80701464D14
:100A700092B22280AB68D9064ED41A20FFF7CCFD83
:100A8000AD6815F0100540D12A4634207A60FFF792
:100A9000C3FD3D4B7A689B68C3F3001393402B431F
:100AA0000132DDB2082A84F80851EED1FFF7B4FD17
:100AB000354B9A6894F80931D20626D5012284F87C
:100AC0000721002B68D0B4F80A31023398452BD0A7
:100AD000904489F800501FFA88F80BF1010BBBF520
:100AE000817F09F10109B3D11EE02948FFF7D2FB4C
:100AF00001283FF45EAFFFF7BBFD5AE7736A9B1A0C
:100B00009BB2AB42ADD96523638094F807315BB9E2
:100B100063880133638021E0736A9B1A9BB2B3F54B
:100B2000827FA7D90028A5D094F80931002B4DD099
:100B3000B4F80A512846FFF7A3FE002843D04FF42B
:100B400080721448002100F041F9124A0023AB42A0
:100B500033DBFFF713FE002384F809316388642B2D
:100B60007FF665AFFFF784FD61E700BF002002401C
:100B700001001C00000400400200180003001800DF
:100B80000203103000040001000C014004000020AA
:100B90001C00240010010020736A22889B1A9BB25B
:100BA000FA2BC1D840F201139B4508BF638889F82E
:100BB000005004BF143363808FE71AF8011B02F85A
:100BC000011B0133C3E7FFF7E3FDC7E7637D6079EE
:100BD0007D2B0AD1637B0D2BC0D1A37B422BBDD1D2
:100BE000FFF702FE00236376B8E7637E7D2B05D115
:100BF000637C0D2B02D1A37C422BF1D094F82D30D5
:100C00007D2B07D194F825300D2B03D194F8263095
:100C1000422BE5D058B9E279A3791343227A1343E2
:100C200001D165236380C120FFF79CFD70E7012897
:100C30001ED10220FFF724FE0028C4D0D4F80C22D5
:100C4000564B9A4202D8FFF7AFFD87E7544BB4F8F2
:100C50000A119A4204D1022984BF102384F80E316C
:100C60005048FFF797FC0028EDD0FFF787FD75E7A8
:100C7000FF2821D10420FFF703FE0028A3D0002382
:100C80006380B4F807305BBA9BB2202BC4F80C32F7
:100C900003D1434BC4F80C32E7E7212B01D1424B7F
:100CA000F8E7222B02D1D4F81032F3E7B3F5806FC6
:100CB000C9DB03F10063EDE7FE2813D10420FFF741
:100CC000DFFD00283FF47FAFE379012B14BF237AC7
:100CD0004FF48073A4F80A31012384F80931FFF737
:100CE00037FD3BE7FD2809D10220FFF7C9FD0028A9
:100CF0003FF469AFC120FFF735FD2FE702280AD185
:100D0000FFF7BEFD00283FF45EAFD4F80C22234B62
:100D10009A4298D9A9E7032885D10220E846FFF72F
:100D2000AFFD18B9FFF734FDC54617E7D4F80CA29C
:100D3000BAF1000F02D1FFF737FDF5E7A579002DD5
:100D400008BF4FF4807505F10A0323F00703ADEBEC
:100D5000030D05F103094A460021684600F036F804
:100D60002A4651466846FFF755FC29466846FFF774
:100D70006AFD0DEB05030DF805003022000A5870DE
:100D80009A7049466846FFF71BFDD4F80C322B4495
:100D9000C4F810320023C4F80C32C5E7FF0F000876
:100DA000007C000810010020E07B000810B501392C
:100DB0000244904201D1002005E0037811F8014F70
:100DC000A34201D0181B10BD0130F2E702440346D4
:100DD000934200D1704703F8011BF9E770B50D4B42
:100DE0000D4D5B1B9C100026A64209D100F028F88F
:100DF0000A4D0B4B5B1B9C100026A64205D170BD13
:100E000055F8043B98470136EEE755F8043B984700
:100E10000136F2E7680E0008680E0008680E000848
:100E20006C0E00080A44914200F1FF3300D1704774
:100E300010B511F8014B03F8014F9142F9D110BDE3
:100E4000F8B500BFF8BC08BC9E467047F8B500BFB7
:080E5000F8BC08BC9E46704787
:100E58000000000000000000010203040607080962
:040E6800D9010008A4
:040E6C00B1010008C8
:040E700000127A00F2
:100FE000DAE32559D963B84E343731141F060602A7
:040FF00030000000CD
:04000005080001FDF1
:00000001FF
