:020000040800F2
:1010000000400020C53900087D48000881480008DC
:1010100085480008894800088D4800080000000045
:1010200000000000000000000000000091480008DF
:101030009548000800000000994800089D480008F5
:101040000D3A00080D3A00080D3A00080D3A000864
:101050000D3A00080D3A00080D3A00080D3A000854
:101060000D3A00080D3A00080D3A0008A1480008A2
:101070000D3A00080D3A0008C94800080D3A00086A
:10108000094900080D3A00080D3A00080D3A000819
:101090000D3A00080D3A00080D3A00080D3A000814
:1010A000F1490008254A00080D4A00080D3A0008D9
:1010B0000D3A00083D4A00080D3A00080D3A0008B4
:1010C0000D3A00080D3A00080D3A00080D3A0008E4
:1010D0000D3A0008394A00080D3A00080D3A000898
:1010E000614A00080D3A00080D3A000800000000AF
:1010F00000000000000000000000000000000000F0
:10110000000000000D3A00080D3A00080000000041
:101110000D3A00080D3A0008000000000000000031
:101120000D3A00080D3A00080D3A00080D3A000883
:1011300000000000000000000000000000000000AF
:101140000000000000000000000000000D3A000850
:101150000000000000000000A94900080D3A000846
:101160000000000000000000000000000D3A000830
:1011700053B94AB9002908BF00281CBF4FF0FF31FE
:101180004FF0FF3000F00CB8ADF1080C6DE904CE63
:1011900004F072FBDDF804E0DDE9022304B07047DF
:1011A000704700BF10B5054C237833B9044B13B119
:1011B0000448AFF300800123237010BD38080020DD
:1011C00000000000BC5B000808B5034B1BB10349DD
:1011D0000348AFF3008008BD000000003C08002079
:1011E000BC5B0008AF4BB04AB3F87CC018882DE94F
:1011F000F04FACEB00011588AC4C89B24A098D4226
:1012000087B02180628080F0E580A94D2D888D42D5
:1012100040F2E0805968DFF89C820F1AD3E902019E
:10122000BFB2081A80B2BA422CBF002701278242FF
:101230002CBF002101210591A160D3E90451A1EB4C
:10124000050ED3E90651A1EB050AD3E908511FFAAF
:101250008EFE1FFA8AFA7245A1EB050189B22CBFF6
:101260004FF0000E4FF0010E52452CBF4FF0000A18
:101270004FF0010A8A422CBF0021012104916161D3
:10128000D3E90A51491B89B28A42D3E90C51A1EB37
:10129000050189B22CBF002001208A422CBF002505
:1012A00001250295E561D3E90E51491B89B28A42B5
:1012B000D3E91051A1EB050189B22CBF002601260C
:1012C0008A422CBF4FF0000B4FF0010B0390A0613E
:1012D000019626626760C4F80CE0C4F810A0C4F858
:1012E00024B0D3E912514D1BD3E914618E1B0021A8
:1012F000A8F80010D3E91A01ADB2B6B2AA42A1EB28
:10130000000189B22CBF00250125B2422CBF002666
:1013100001268A422CBF002101214FEA8108A163E6
:10132000D3E91691A1EB0909D3E918011FFA89F94C
:10133000091A89B24A452CBF4FF000094FF0010944
:101340008A422CBF0021012148EAC1086163996FDC
:101350000398C4F83090ACEB010189B28A422CBFEB
:101360000021012148EA01082164D3E91C31CB1A8C
:101370009BB29A422CBF00230123E36348EA43084F
:10138000059B4D49A56243406B409A00049B019820
:10139000E6627B408BEA030342EAC30380EA0A0267
:1013A00089EA0209029A43EA090382EA0E0986EAF7
:1013B000090943EA49090B787BB1404B1B7883B993
:1013C000C84513D0B4F8543000220133A4F8543087
:1013D00084F8482007B0BDE8F08F384B1A78002A0F
:1013E00076D0C8F10F085FFA88F8E9E7B4F846301C
:1013F00030480133A4F84630236B0022012B0280D1
:1014000004BF2F4A1370059B049A5B0243EA8723AB
:10141000334343EA0E2343EACA1343EA8213039A8F
:1014200043EA4213029A43EA0213019A43EAC203CF
:1014300094F8482043EA8B0343EA4505FAB92F2D77
:1014400067DD94F84D30002B40F09A801D4E3578C2
:10145000002DBFD01C4B1B78002BBBD10B78002B71
:10146000B8D094F85030AB4200F09180052D84F84C
:10147000505040F29780012384F84E30AAE7012AA9
:1014800078D0022A70D0032AA4D1252DA2D10F49E9
:10149000B4F84A2094F84C008854002384F848306B
:1014A00098E700BF3807002024070020C803002069
:1014B000C0030020B00600207C060020C1060020EA
:1014C000AA060020DA06002064060020000500209D
:1014D000019303F0FFFB019B6E4918B394F844207D
:1014E0000132D2B2642A84F844201BD901221A7036
:1014F000D4E90173059363690493A3690393E369D2
:101500000293236AE66A0193D4E903EAD4E909B5B0
:1015100067E76B1E2E2B16D85F4B604E1A80EDB21C
:10152000357097E7D4E90172059262690492A26965
:101530000392E2690292226AE66A0192D4E903EA1E
:10154000D4E909B53AE7002D80D194F84F305249DB
:10155000524A012B4FF0000308BF84F84D500B8016
:10156000137084F84E3035E7032384F84C5084F828
:1015700048302FE70223A4F84A5084F8483029E77E
:101580004549464B0D801A7084F84E2022E7052D00
:1015900008D994F84E300133DBB2052B84F84E3075
:1015A0007FF618AF0023013D84F84E30232D16D866
:1015B000DFE805F0126C6864605C554E4A46153EE3
:1015C000322B1515151515241F151515151515157F
:1015D000151515151515151B314B01221A70314AB9
:1015E0003178117000233370F4E6012384F8483019
:1015F000F5E72D4A2D4B527C1A70F0E72A4B2B4A07
:101600005B7CC3F101031370E9E70022012384F836
:10161000512084F85330E2E794F84F30012293428E
:1016200084F8512084F85220D9D184F84D30D6E77F
:1016300000F05CFB1C4B1A4A5B7C01331370CEE755
:10164000194B01229A74CAE7174B00229A74C6E715
:101650001549164B0120002248741A70BFE7124941
:10166000124B0020012248741A70B8E7104B012277
:101670001A70B4E70A4B05221A70B0E7084B04222F
:101680001A70ACE7064B03221A70A8E7044B02223B
:101690001A70A4E77C06002066060020DA06002007
:1016A0007D060020DB0600200005002054000020FD
:1016B0000807002030B5824D95F85130002B36D107
:1016C00095F85230002B3DD095F85330002285F824
:1016D0005220002B00F0C08000237A4C85F8533054
:1016E0004EF6F173012285F85E20774A774892F82A
:1016F00000E06B6605EB8E03802200EB8E001A671C
:101700001146AC66043013224FF0010C0CFA02F3C0
:101710002340D34083EAD111013AC901531C40F858
:10172000041FF3D105EB8E050023EB6630BD95F861
:101730005E40002C49D095F85230002285F85E209A
:10174000002BC1D195F85330002BC5D1604B1B78CD
:10175000002B00F08580C30B024640F0838083138A
:10176000012B00F0A3804313012B00F0A180031391
:10177000012B00F09980C312012B00F09F8083128F
:10178000012B00F099804312012B00F0938000237D
:101790002B66030A83EA10134340DB4303F00F0375
:1017A00043EA021319134B4A03F00F00515C145C17
:1017B00044EAC134C3F30321515C44EA8124C3F3F6
:1017C0000311525C44EA42148FE7B5F85C30B5F877
:1017D0005A20B5F8581001339BB20132013192B250
:1017E00089B2272BA5F85C30A5F85A20A5F8581027
:1017F00041D8C72A4ED9384A384B1288A5F85A40E2
:10180000A3FB0232C2F3C70242F4806295F8523061
:10181000002B7FF459AF95F85330002B7FF45CAF69
:10182000110A81EA12115140C9432A4801F00F01FF
:10183000C2F3132441EA021310F804C0445CC2F35B
:10184000031102F00F02415C825C44EACC3444EAAA
:10185000812444EA421445E7214C4EF2010341E75A
:101860004FF6FF720F21083942FA01F343EA412291
:10187000296690B28DE71B4B1849B3F90030A5F8E3
:101880005C4081FB0321DA17C2EB2112D2B242F491
:10189000C062BBE7C7297FF613AF134BA5F85840CA
:1018A0001A7842F40072B1E70C21DCE70E21DAE786
:1018B0000D21D8E70921D6E70A21D4E70B21D2E789
:1018C000C8030020FB3D0700C303002034040020B0
:1018D00064060020D45B0008A60600201F85EB519B
:1018E0003B670700AC060020C606002030B5039C0D
:1018F00005468D4209DC13E0A34213D0B1EB6C0F17
:101900000DD0754510DC0446724601EB020C181927
:1019100095424FEA6C0E4FEA6000EDDB204630BD89
:101920009542FBDA184630BD0EF101010346E0E7AF
:101930000346401A48BFC81A704700BF04494A6AA4
:1019400080B292B24B6A9B1A9BB28342FAD3704721
:101950000050014000F1FF3C58B106494A6A92B27A
:101960004B6A9B1A9BB2B3F57A7FF9D3BCF1010C99
:10197000F4D2704700500140F0B5074683B00E46E0
:1019800014461D4672B6684602F02AFD694638467E
:101990008DF8066000958DF8054002F051FC62B6A6
:1019A00003B0F0BDBFF34F8F0549064BCA6802F480
:1019B000E0621343CB60BFF34F8F00BFFDE700BF72
:1019C00000ED00E00400FA0570B5BB4CBB4D82B0E1
:1019D0002968C022204603F0E5F86378022B40F224
:1019E0001581A279511EC9B2E37D2A2B55D8181F43
:1019F000052852D9032B55D90A3BDBB2202B56D9E7
:101A0000237EA3F10800C0B2882858D803EB8303D3
:101A1000AB48AC4E03EB83039B00A0FB03033129CF
:101A2000A9484FEA9303B0FBF3F3F362AB804DD8C0
:101A300002EB8202520002F5C87189B2637E2A81EC
:101A4000A3F13200642898BFD218A37EA98103EBCA
:101A500083034FEAC30303F1140398BF92B2022039
:101A6000EB816A8101F02AFF6378002B38D1E88985
:101A70004FF4FA73009340F6B8324FF47A734FF490
:101A80009671FFF733FFA37CA5F8500013B34FF412
:101A90007A73C4F8C83002B070BD1020032B84F8EC
:101AA000C000A9D8DB00DBB203F10A00E07584F8BE
:101AB000C030237EA3F10800C0B28828A6D981488F
:101AC00041F26F733129EB80C362B1D94FF4C87111
:101AD0000022B3E74FF4FA63C4F8C83002B070BD17
:101AE000A07F0B2888BF052001F0E8FE94F8213084
:101AF00094F8202094F8221094F82300A87503F29B
:101B00006B335B006B8294F82830053B142B84BF49
:101B1000052384F8283094F8293002F27712013B2B
:101B20005200092B2A8294F8252088BF0A2302F14B
:101B3000FA0288BF84F8293094F82A302A830022D8
:101B400084F827205A1E01F25E51082AA98269D919
:101B50000A2384F82A3094F82B30617AE27AA07A4A
:101B6000A862463B462B84BFFF2384F82B3094F8B1
:101B70002C30013B622B9CBF012384F8C13094F8C8
:101B80002D30013B092B84BF052384F82D3094F8B8
:101B90002E3049005200092B6962EA6206D8042BF4
:101BA0000CD8DFE803F0039B840B7B00474A00233B
:101BB000012184F8C23084F8C33011706379092B95
:101BC0004CD8092284F8C42085F8483085F849307B
:101BD00085F84A30E8893E4AE17EB0F5967F3CBF01
:101BE000002385F84B302023B3FBF1F1A2FB003238
:101BF000334B5209B2FBF1F2A5F84C20A3FB0023B2
:101C0000DB08B3FBF1F3A5F84E3031E7314AC4F8F5
:101C1000052000214FF06413C4F80930C4F80D10FA
:101C20000122E1E6C3EB4312C3EB82035B000E33F8
:101C3000DBB2C82B2ED8AB769AB269891144698180
:101C4000298911442981A98B1144A983A9890A44AE
:101C50001C49AA814A6C13434B647CE7002284F838
:101C6000C42095F84810A2F13332A2FB0323DA080E
:101C7000B1EBD30F88BF85F8482095F849309A42D8
:101C800038BF85F8492095F84A309A4238BF85F820
:101C90004A209FE7C8221346AA76CEE70E490B4A90
:101CA00001230B700021117084F8C23086E70123F4
:101CB00084F8C33082E700BF000500200000002048
:101CC000ABAAAAAA002C0140709D24001504002094
:101CD0001F85EB51A001000A17040020024A0123CE
:101CE00084F8C230137069E715040020024B0348E2
:101CF0001A68C02102F020BF00000020000500206B
:101D000038B5294C94F85430012B3DD094F8553017
:101D1000264D5A1E12F0FF0224D084F8552003F0FD
:101D2000010384F8523072B695F83F313BB362B686
:101D300002F0BEFED5F8C830D5F84021A16D03F5FC
:101D4000FA7393423CBF012384F8563094F855301F
:101D500005EB4303002285F83C2185F84421A3F8D4
:101D6000461138BD0123062284F8552085F83E31FE
:101D700084F8523072B695F83F31002BD7D194F8E1
:101D8000550003F067FAD2E794F85520074D013269
:101D9000D2B2062A99BF84F8552002F0010384F8D4
:101DA000553085F83E31BCE70000002000050020DA
:101DB0001C4AD36823F0010310B51B4CD360FFF716
:101DC0009FFF1A49B4F85601B4F854218B6D0244B0
:101DD00003EB520394F82F2058088865C2B994F891
:101DE000C02000FB02F2C2F38F1291F85610A4F843
:101DF0005A21C2EB9303A4F85C3181B1D4F860316D
:101E000042F20F7293429CBF0133C4F8603110BD9F
:101E100094F8582100FB02F2C2F38F12E5E702F0BA
:101E20003FFEEBE7005401400005002000000020C9
:101E300038B5174D95F85C3073B1002403E095F880
:101E40005C30A34208DD02F017FE95F85230834261
:101E500004F10104F3D138BD72B602F015FE0D4A4B
:101E60000D48B2F85C11446AB2F856510B4BA2F817
:101E70005451A2F856410131002242625A62D9629D
:101E80001A61DA6842F00102DA6062B638BD00BF5A
:101E90000000002000050020000800400054014020
:101EA00070B5C44CA37C82B0002B5CD094F8C230D7
:101EB000C14D53BBAA7DB4F86601520002F57A7198
:101EC000884240F33381637C95F854209A4200F0B5
:101ED000678240F2FF7300934FF4FA622F23FFF7FB
:101EE00005FDAB7D02465B00B4F86601A4F86C21E9
:101EF000C3F57A72824200F3658103F57A738342F7
:101F000080F2188194F8C23093B3B4F86621B2F528
:101F1000836FC0F01581637C95F85410994200F0EE
:101F20000A826FF400635100194489B2A2F13003B0
:101F30009BB2A4F86C11B3F57A7F0CD2617C95F852
:101F40005460C1F10100864200F00F825B002F3324
:101F50009BB2A4F86C312F2A0AD80023A4F86C3164
:101F600084F86B3104E0B4F86631934DA4F86C3119
:101F700094F86E2195F85D309A4203D9A37D002B29
:101F800040F00C81E67C002E00F09C80B4F86C01DF
:101F90001D2800F2B2800023A4F8703194F8283094
:101FA00003EB8303B0EB830F4FEA830180F2B08031
:101FB00094F86A31002B40F0838094F87C31002B38
:101FC0007ED0E27CB4F8700150232E2113FB021363
:101FD000834227DB94F87D31002B40F0FF81237D85
:101FE000002B40F01E8194F86421A4F88031002A6F
:101FF00040F04881237FC4F86021012185F8561004
:10200000002B40F03D8194F83F31002B58D103F074
:10201000E3F894F83F61002E52D1B4F87021B4F87F
:10202000800120E094F86431002B00F0DD812B89E1
:10203000002A00F0EA804FF4FA620092283340F25E
:10204000FF728921FFF752FC80B2A4F880010021C1
:10205000E67CB4F8702184F83F1150232E2113FB45
:1020600006139A42B6DD2E2A12D9617F1E230B4138
:10207000D4F860118B420BD96B89834284BFA4F8DA
:1020800080311846AB8983423CBFA4F880311846A2
:10209000B5F8923083423CBFA4F88031184694F8DA
:1020A000C13033B1B5F994309842C4BF98B2A4F8A6
:1020B0008001D4F88C31002B02DD2F2A00F2D6806B
:1020C00002B070BD94F872315BB394F87331002B99
:1020D00046D1D4F878213949D31781FB0212C3EBDA
:1020E00022339BB2B3F5006FA4F87031C0F0868044
:1020F00040F2FF73A4F870315AE71E283FF44EAF48
:1021000094F8282002EB82029200904211461BDBD9
:1021100040F2FF720092A023FFF7E8FBA4F87001E1
:1021200046E7B4F86C31A4F8703141E7C2F57A7231
:10213000904247DB0023A4F86C3184F86B31E1E670
:10214000A2F130039BB2F6E6A02300931E212F23B9
:10215000FFF7CCFB0346A4F87031B4F86C011DE71F
:10216000D5E91832B4F86C0100922F2140F2FF72C9
:10217000FFF7BCFBB4F86C21114B93FBF0F3E07E4E
:102180002E2A4FEA500093FBF0F3A4F87431A0D844
:10219000A4F87061AE66C4F8786109E703F01CF832
:1021A00002F072FC00226623A4F8702184F86E31DC
:1021B000FEE600BF0005002000000020AD8BDB68BC
:1021C00000879303637C95F85460C3F101018E424C
:1021D00000F093802F230093002140F2FF73FFF75C
:1021E00085FBAB7D02465B00B4F86601A4F86C2168
:1021F000C3F57A729042FFF685AE7EE62F2B3FF64E
:10220000D7AE3023A4F87031D2E64FF4FA620092D0
:102210002F2140F2FF72FFF769FB80B2A4F8800122
:1022200015E794F8643193BB267FC4F8603101222E
:1022300085F8562084F83D313EB3E17C41BB012E48
:1022400026D194F8293003EB830303EB8303DB00EF
:102250009BB240F2CE729342A4F8823140F20781E1
:1022600003F050F9E17C94F83F6113E08349DA17F9
:1022700081FB0313C2EB23331844A4F880011FE74A
:1022800003F040F994F83F61C5E602F0A5FFE17C58
:1022900094F83F6195F85530013BC3EB0312B5F854
:1022A000903003EB82031AB2B2F5B47F9BB2A6BFA3
:1022B000A3F5B4739BB2A4F8842103F1770212B2A0
:1022C000A8BFA4F88431B2F5B47FA8BFA3F1F1028E
:1022D000A4F8862103F1EF0212B2B2F5B47FA6BFD3
:1022E000793BA4F88831A4F888210023012908BF8C
:1022F00084F86A11A4F880318DE6B5F85000A96D14
:10230000884280F09080B4F86811C72900F28B8071
:102310000122002685F85620C4F8606185F8543003
:1023200002F0B2FBAA7DB4F8660184F86B6152003A
:10233000C2F57A724EE7B5F85010AA6D914262D29A
:10234000B4F86821C72A5ED80122C3F10103002630
:1023500085F8562085F85430C4F8606102F094FB8B
:10236000B4F8662184F86B61DBE5B5F85020AB6DFD
:102370009A4262D2B4F86831C72B5ED80123002696
:1023800085F85630C4F8606185F8541002F07CFB83
:10239000B4F8662184F86B615300313B9BB2D8E5F9
:1023A000B5F85000AA6D904234D2B4F86821C72A1B
:1023B00030D8C3F101030026012285F85430C4F857
:1023C000606185F8562002F05FFBA97DB4F86601D4
:1023D00084F86B61490001F57A717AE501F078FAC9
:1023E000002384F87D31FAE502F0F6FE95F85630C8
:1023F00053B32B89E27CB4F87001A4F87E3101213B
:1024000084F8641114E694F86A21002A9CD1A4F897
:102410006621A2E594F86A21002ACAD14FF47A70A5
:10242000A4F8660155E594F86A1100297FF470AFAD
:102430004FF47A70A4F86601CCE694F86A31002B68
:102440009CD1A4F8663188E594F8643113B102F0A8
:1024500027FBCEE7FFF754FC094B42F2107141F223
:102460008832A9655A62012384F86431EFE702F0EB
:1024700079FEE17C84F83F610CE700BFAD8BDB683F
:102480000008004010B50E4C94F89031012B0DD08F
:10249000022B03D0BDE81040FFF702BDB4F8940151
:1024A000FFF708F9002384F8903110BDFEF79AFE7B
:1024B000002384F89031BDE81040FFF7F1BC00BF65
:1024C00000050020F8B54F4E4F4F96F854100029E4
:1024D00077D1B7F8843101331AB2B7F886310133B6
:1024E000B2F5B47F1BB2B2BFA7F88421A7F884115C
:1024F0000A46B3F5B47FA8BF0023A7F88631B7F822
:10250000883101331BB2B3F5B47F77DAA7F888318D
:1025100006EB4202B6F86813B2F99830B0883B4D2A
:102520003B4C0B4400FB03F385FB0312D81797F8D1
:102530002D30C0EBE21003FB00F0C31784FB00203A
:10254000C3EBA00080B202F06FFDB7F98631B6F898
:10255000680306EB4303B3F9982097F82D30024443
:10256000B08800FB02F285FB0201D017C0EBE1103E
:1025700003FB00F084FB0023C017C0EBA30080B274
:1025800002F058FDB7F98831B6F8680397F82D20A6
:1025900006EB4303B3F998300344B08800FB03F320
:1025A00085FB0315D817C0EBE51002FB00F084FB98
:1025B0000034C017C0EBA40080B2BDE8F84002F0C0
:1025C0003FBDB7F88421B7F88631013A12B2013B1A
:1025D0001BB2002AB8BF40F26712002BB8BF40F20E
:1025E0006713A7F88631B7F88831A7F88421013B33
:1025F0001BB2002BB8BF40F2671387E70023A7F890
:10260000883185E70000002000050020D34D6210CE
:102610006766666638B5234D2349AB6D4A6A234C1D
:1026200003EB430313FA82F3A4F8562100224A6213
:1026300094F8C020980800FB02F2C2F38F12C2EB9C
:10264000D303A4F85A21D4F86021A8659BB2042AC8
:10265000A4F85C3117D94A6A9342FCD8FFF750FBC3
:10266000D4F86031617F0022013384F83C2184F882
:102670003D21C4F8603141B1132B03D9AB6DB3F5E3
:10268000FA6F07D938BD4B6AE8E7D4F8C830AA6DAD
:102690009A42F7D2002385F85630BDE8384002F060
:1026A000FFB900BF00000020000800400005002026
:1026B000F8B5814CB4F89801B4F89A31B4F89C118B
:1026C000B4F89E21B4F88051A4F868510130013368
:1026D000A4F89801A4F89A3194F8A00194F87C31F8
:1026E000013101320343A4F89C11A4F89E2121D1A9
:1026F00094F8A121F2B1B4F86C51002D40F0AF81F3
:10270000B4F8A23101339BB244F620618B42A4F8A5
:10271000A2310FD9B4F8A4311E2B40F22C8294F8C8
:10272000243001218B4284F87C1100F0298204239B
:1027300084F87D31E17F79B1604BB4F8A82193F83A
:102740006A33013B01320B4492B203EB8303B2EBD9
:10275000830FA4F8A8217ADC94F86A61002E51D185
:10276000564D95F8563023B194F86431002B40F063
:102770003E81B4F89E31142B19D994F8C13001214F
:10278000002284F8AB11A4F89E21002B00F09C805D
:1027900094F86431002B40F07981637F3BB994F861
:1027A000723123B194F86431002B40F0DE8094F84C
:1027B000C430B4F89C219A422AD8B4F87E21A4F8F7
:1027C000682194F87C311BB194F86411002954D12C
:1027D00094F83F11002941D0E988B4F88231384893
:1027E00001FB03F380FB0350DB17A3EBE0130B4467
:1027F0009BB2A4F8AE313348A4F87E21C0E90D3372
:10280000C162C363B4F8B0310133A4F8B031F8BD8C
:10281000D4F86031B4F87E110022952BA4F89C21E5
:102820003BD895F84830DBB285F89833B4F8682186
:10283000501A984203DDCA1892B2A4F86821881A87
:102840008342BEDACB1A9AB2A4F86821B9E7012212
:10285000002384F8AA21A4F8A8317DE7207F02286C
:1028600000F0E680E988164801FB02F3A0FB0303B1
:10287000C3F3CF13A4F8AE31BDE7B4F870112F291C
:10288000A6D9E9880E4801FB02F3A0FB0303DB098C
:1028900001339BB2A4F8AE31ADE79529C1D9D4F884
:1028A0004031B3F5FA7F8CBF95F8493095F84A303E
:1028B000DBB285F89833B9E700050020000000205E
:1028C000D34D6210002C0140637F002B3FF467AFB3
:1028D00094F86431002B3FF46AAFAB6DB5F86E230A
:1028E000D5F88013D5F878039A1AD5F89033C5F83F
:1028F000702300FB02119942C5F88013C4BF19462A
:10290000C5F880335B428B42C4BF1946C5F880339B
:10291000D5F88833D5F87C03C5F88823D31A00FB93
:1029200003F3D5F87403C5F8843300FB0233D5F8FC
:1029300094230B449342C5F88C33C4BF1346C5F8A7
:102940008C2352429A42D4F88C11C4BFC5F88C2310
:1029500013469B4A0B44934240F3F480C4F88C2105
:1029600094F87231002B3FF422AFD4F89431B4F8CC
:102970007421A96F286F9A1AD5F88830AA6600FBCF
:1029800002119942A967C4BF1946AB675B428B42EB
:10299000C4BF1946AB67D5F88030686FC5F8802092
:1029A000D31A00FB03F3E86EEB6700FB0233D5F8A4
:1029B0008C200B449342C5F88430C4BF1346C5F83D
:1029C000842052429A42D4F87811C4BFC5F88420BA
:1029D00013467C4A0B44934240F3C780C4F87821E5
:1029E000D4F86031632B9CBF0023AB67DFE602F0B5
:1029F0004BF802F041F895F852309BBB002800F0EC
:102A0000938094F83C31013384F83C3194F844319C
:102A1000002B7FF4AEAE94F83C2195F86C339A42CB
:102A20007FF6A7AE012384F84431FFF7F3FDA0E65B
:102A3000002B3FF417AF02F00DFCE988237B624ABC
:102A400001FB03F3A2FB0323DB0903EB83035B001E
:102A500078339BB2B4F86821A4F8AE31CBE6A4F881
:102A6000A23167E6002873D194F83C31013384F831
:102A70003C3194F84431002B7FF47BAE94F83C2138
:102A800095F86B339A427FF674AECBE794F82C201E
:102A9000B4F9AC31296BA86A02EB820202EB820224
:102AA000A3EBC2022B6C2A6200FB0211994229633C
:102AB000C4BF19462B635B428B42C4BF19462B63CC
:102AC000AB6BE86AAA63D31A00FB03F3686A6B6313
:102AD00000FB02336A6C0B449342EB63C4BF1346A2
:102AE000EA6352429A423949C4BFEA631346DA178D
:102AF00081FB0313C2EB2332B5F8943029899B1A6A
:102B00001BB28B42A5F89430BCBF0BB2A5F8943031
:102B1000B3F5FA6F03DD4FF4FA63A5F89430637FE1
:102B2000002B7FF4DAAE1BE794F83D3195F8532083
:102B30000133DBB29A4284F83D31BFF467AF84F8C9
:102B40003C0116E6002B37DC0023C4F88C3107E784
:102B500094F83D3195F853200133DBB29A4284F862
:102B60003D3186D284F83C6103E6002BB8BF0023D8
:102B7000C4F8783134E784F8A151A4F8A251D9E51A
:102B8000B4F8A61112484B08A0FB0323DB09B1F5EA
:102B9000B97F84F8A031FFF4CDAD0E4F4AF6AA26D6
:102BA00000F096FE6420FEF7D5FE94F8A0313E605A
:102BB0000135AB42F4DCBDE5C4F88C31D0E600BF92
:102BC00060E31600F0583801D34D6210AD8BDB681E
:102BD000B9D31FB1003000402DE9F04F85B002F0AD
:102BE00089F84FF47063A94AD3F8E010914205D1F7
:102BF000A74AD3F8E410914200F0BF83A54DA64C3C
:102C000002F08EF902F032FAFEF7DEFEE378022BD4
:102C100003D123791D2B00F0E78341F602510323F2
:102C2000A4F803102A689C486370C02101F084FF57
:102C3000637C227DA988E980013B18BF012385F8C8
:102C4000543002B9E2740023A4F8A43102F090F8E1
:102C5000924B4AF6AA221A6001F0A6FF94F873314B
:102C600013B1012384F8723102F03CF86889298994
:102C7000AA89AE888A4BB3FBF6F39BB21844194479
:102C8000864FDFF82092DFF82082DFF820A26881EB
:102C900002EB43032981AB814AF6AA26B4F84A1114
:102CA000B4F84831B4F84C21B4F84E010B44134445
:102CB000B4F85011B4F8522103440B441344D4F82F
:102CC000602104335B10042AC4F8943100F2BA8105
:102CD000A37C002B00F03882042385F86B3385F841
:102CE0006C33637D3E60012B00F0B681022B00F057
:102CF000C081B4F8B03142F21072934209D994F80D
:102D00007C11002940F0208349F64042934200F2B2
:102D10004083B4F8982144F620639A4210D9B4F95C
:102D2000AC31D4F8B4211B0489FB03011944DB172F
:102D3000C3EB212313440022C4F8B431A4F8982132
:102D4000D4F86021B2F57A7F40F29C810021B4F87A
:102D50006C3184F86E11C72B40F2FC81E17C11B11B
:102D60009F2B40F29A8194F8B811002900F09F81BE
:102D7000B3F5C87FC0F09781D4F8943194F83E0140
:102D800088FB03C1A1EBE371C4F8401110B10A2A1A
:102D900000F2EA8194F8C131002B00F09180AB6D14
:102DA000322B40F28D80424B1022002183F8101309
:102DB00083F81A2383F8462394F8ABB1BBF1010FD3
:102DC00000F08D8094F86A314FF0000B84F8D3B195
:102DD000002B40F0048194F86431364AD4F8941101
:102DE000354892FBF1F213FB02F39BB2A0FB0320E8
:102DF00095F84B20A4F8D431C008A4F8D601002AD5
:102E000040F0FA814FF4FA63A5F8923094F82B1051
:102E100094F8C6018142C0F0D681D4F86031632BAA
:102E200000F26E81AB6DB3F5FA7F40F269810C233D
:102E300085F85C3094F82F30002B40F078811F4AE1
:102E4000526A4AF6C8739A427FF628AF94F864B182
:102E5000BBF1010F7FF422AF94F86E31013384F897
:102E60006E3101F011FEB4F8703185F856B02F2B99
:102E700005D8002384F8643141F28833AB65002320
:102E8000C4F86031FFF7C6FB08E700BFDAE3255955
:102E9000D963B84E0000002000050020003000403B
:102EA00080A90300B7600BB6565555551F85EB51E9
:102EB00000E100E0C0270900CDCCCCCC00080040E8
:102EC000C74B0022102183F8101383F81A2383F8CC
:102ED000462394F8ABB1BBF1010F7FF473AF01F05F
:102EE00019FC5946BF4800F0B5FEB4F8C20101F024
:102EF000ADFCB4F8C821BC4BA4F8C40140F6E441D1
:102F000001FB02F2A3FB0213D21A03EB5203B5F842
:102F10009A2384F8C601DB0A94F8D000B4F838E1AB
:102F200002FB03F3B4F8A621AAFB031304EB400C45
:102F3000C2EBC20202EB53120130D4F8CC30BCF821
:102F4000D4B0ACF8D4E0C0B23128734488BF0020BC
:102F5000A3EB0B0384F8D000C4F8CC30AAFB030326
:102F60001B0940F6E440A4F83A319BB2C4F8CC31D6
:102F700000FB03F39D48A0FB030343F38F23002BC7
:102F8000B8BF0023A4F8AC3194F82430D110012B41
:102F9000C2F3CF02A4F8A62100F06B81022B08D166
:102FA000237A934240F26E81B4F8D0310133A4F811
:102FB000D03194F86A318E48B4F8D01142F21072D0
:102FC00000FB0322914200F3658100224FF0000BC9
:102FD00084F8AB2184F8D3B1002B3FF4FCAEB4F8F5
:102FE0007031302B6ED994F87C21002A6AD0313BA5
:102FF000572B00F26E8194F8D831002B40F0E3811A
:10300000FFF760FA94F81BE0B4F8700178223021E1
:1030100041F6583340F22A3CB3FBFEF3BCFBFEFC06
:10302000CDF800C0FEF762FCA5F89E0380B2FEF763
:1030300085FCB5F89E234FF41673B3FBF2F3A4F8A6
:10304000D4312BE6032385F86B3385F86C33637D2D
:103050003E60012B7FF44AAEAB880093A86D5B08FD
:10306000C8226021FEF742FC637DE880022B7FF4DA
:1030700040AED4F84031A3F16502942A39D81B013F
:10308000EB8036E6B4F86C31C3B9642A84F86E314B
:1030900060D8E17C00293FF466AE002184F86E110F
:1030A00094F8B81119B1002384F86E3164E6952BB9
:1030B00094BF64230A2385F85D305DE6642A7FF6B9
:1030C0004DAE48E694F81CB001239B4584F8D831F6
:1030D00000F09F80BBF1020F00F0B780454B00224B
:1030E000C3E90D22DA6302F077F80023A4F8D431A3
:1030F000D4E5013B622B31D84FF4C863EB80F8E58F
:103100000C230093D4F8400103234FF4FA72642196
:10311000FEF7ECFBAB6D85F85C00312B9CBF022306
:1031200085F85C3094F82F30002B3FF488AE1723DD
:103130000093B4F868010D234FF4FA626421FEF79E
:10314000D5FB84F858017AE6062385F86B3385F8B9
:103150006C33C6E5002184F86E11FFE5F82B84BFBF
:103160004FF47A63EB80C4E5D4F8BC01FEF7E0FBD2
:10317000D4F84031B0EB530F1AD9B3F5FA6F17D228
:1031800094F8C021013284F8C021A27C0021C4F847
:1031900060119AB9B4F870212F2A0FD9002284F84F
:1031A00064216A895208A4F87E21012285F85620FC
:1031B000002284F83E21C4F8BC31EBE5AA6DB2F5DB
:1031C0007A7FEED9EAE7B5F89C33012200925B08DA
:1031D00001F10A020A39FEF789FBA5F892001CE604
:1031E00000E100E00024014001011000FD0FC0FFDC
:1031F00054D9FFFF002C0140B5F89C330093AB8BF2
:10320000B5F84E20B5F84C10FEF770FBA5F892000B
:10321000FCE594F82930EA88794903EB830303EB52
:103220008303DB009BB2A4F8823102FB03F381FB32
:103230000301DB17A3EBE11313449BB2632BA4F848
:10324000AE313BD802F05EF94FE7584602F002F883
:10325000EA88237B02FB03F3694AA2FB0323DB0911
:1032600003EB8303674A5B007833C2E90D33D36312
:103270003BE794F8A0312A8B89B202FB03F38B421F
:103280003FF792AE94F8D231002B7FF492AEA4F8BF
:10329000D0318EE64FF0000B012384F8D231A4F830
:1032A00070B101F099FF01F0EFFB94F86A3184F8F6
:1032B00064B1A4F8A4B184F87CB186E601F052FFB1
:1032C000504BB4F8AE2184F83FB1C3E90D22DA6364
:1032D0000BE7012384F8D831FFF7F4F8B4F8703124
:1032E000C82B04D95023A4F884B1A5F89E33B5F8AF
:1032F0009E03FEF723FBB4F98431002B7FF4CEACA0
:10330000414984F86A31012284F83F3142F228337E
:10331000AB65C4F84031C4F8BC3185F856204B6227
:1033200084F86421637F95F8A02385F85520142242
:10333000C4F860211BB1B5F8A233A4F87E31FEF7C2
:10334000DFFC01F083FEA9E401F046FF2D4B0025D0
:10335000C3E90D55DD6384F87C51A4F8705184F8FD
:10336000A151A4F8A45101F079FE28484FF48072CD
:10337000294602F01BFCFEF715FB93F8EC30244DB8
:103380002B2B39D0352B34D01F2B04BF214B2B6076
:1033900035E4039101F020FF03991A4B84F87C1166
:1033A000C3E90D11D963A4F8701184F8A111A4F830
:1033B000A411039101F052FE039914484FF4807256
:1033C00002F0F4FBD7E7144AD36823F00103D3607B
:1033D00001F05AFB0B4BC3E90DBBC3F83CB002F044
:1033E000CFF884F8D8B10BE66378022B3FF620AC17
:1033F00013E40A4B2B6002E4094B2B60FFF7FFBB81
:10340000D34D6210002C0140000800403807002016
:1034100000000020007C00080054014000F8000873
:1034200000F80108F0B5604CD4E90002101A6FF4FE
:10343000487240F2765382189A4283B02AD85B4E83
:103440005B4D002333802B78002B3CD06B780146FA
:10345000ABB9AB78002B00F08E80A888554F0133B4
:103460003988AB70FEF764FA322866D900223B88AF
:103470002A706A78AB804AB1D4E90031C91A40F2A7
:10348000E14399424DD9AB794B2B77D80023A868FB
:10349000338004E04649484B886800221A80474937
:1034A000474A0B881268A0EB030C944503DD1344D4
:1034B0000B8003B0F0BD1C1AA242BABF9B1A0B804E
:1034C000088003B0F0BD3F4A947C74B13E4A128834
:1034D00090421AD83D494FF47A7409880094FEF757
:1034E00005FAA86000233380D9E7324B1A88374B9E
:1034F000198840F2FF7300932F23FEF7F7F9302865
:10350000CEBFA860AC602046ECE72A4B511C1A885D
:103510004FF4FA63009340F2E933FEF7E7F9A8604D
:10352000E0E72A48AB790288C2EBC20201331144BA
:10353000DBB2C908AB710180A6E73B886268C3EBC8
:10354000C3012368D31AAA780B44C3F3CF03322AEA
:103550003B808ED9193B9BB23B80A3F2D663194ABC
:1035600003EBD3735B1082F8213001236B7000F002
:10357000AFF93B887DE780B2A8806FE7134A114915
:10358000138819339BB21380A3F2EE2303EBD3739A
:103590005B10002481F820302C70FEF7A7FBAC7183
:1035A00000F096F972E700BF38070020B00600204F
:1035B0000C07002012000020A40600206606002050
:1035C000B803002000050020140000201000002097
:1035D000514BF0B5514F1968002544F6206E1A463C
:1035E000A7F804E003F17804AC462E4652F8043FF5
:1035F0008B42A3EB0100194606D070453CBF1FFA71
:1036000080FE0126844401259442EFD1002E3ED055
:10361000A7F804E0424A4348FDB113784FEA5C152D
:10362000012BC56045D0404C2378012B32D0117856
:103630000B4311D10EF1FF31022945D83B2D0BD898
:103640003A493B4C0B7001233A4913700E22227009
:1036500020220374BA710B70F0BD1378C560012B82
:10366000E1D10EF1FF33022B48D9AEF10403042B54
:10367000D9D80123137003222D4902742B4C2D4AF3
:1036800023700720087013702021B971F0BD44F633
:10369000206EBFE7AEF1C90292B244F656518A429B
:1036A000DAD82249234A13708F2008700221B97199
:1036B000F0BD0EF1FF33022B19D83B2D1ED91A4C49
:1036C0002378012BB3D1F0BDAEF10403042B02D853
:1036D000632DC1D8CDE7AEF1C9039BB244F6565273
:1036E0009342B9D801231149124A2370DBE7AEF1A6
:1036F0000403042B97D8632DE1D8BAE70D4E0B4C89
:103700000B490123337003741370002323700E23BD
:103710000B702023BB7186E738070020B803002018
:10372000C20500200C070020C3050020C2030020B2
:10373000C3030020A106002070B5524C237813B1BA
:10374000514B1B7833B9514B1B78002B6ED0012B9A
:103750000AD070BD4E4B1B78002B54D001F024FAD8
:103760004C4B02221A7070BD474B1B78002B50D176
:10377000494D2B78012B75D0484B1B78012B68D015
:103780002378002BE5D12B78EBB1454A537C072BEE
:1037900019D844490988052915D94348C16F0068DB
:1037A0000133091A5069DBB210FA81F1082B537406
:1037B000516108D1C1F3CF033C48C1F3CF115C186C
:1037C000591A048111833A4C2088002838D0394B8B
:1037D000DD79002DBDD1334A40F2DC53984215808B
:1037E000B7D92F4E718BFEF7A3F8322848D8337F14
:1037F0000133DBB2322B337702D97578002D3BD001
:103800002388738370BD01F013FA224B01221A70D2
:1038100070BD1F4B1B787BB1274B1888FDF74AFF03
:10382000FDF7E0FCBDE8704001F0BEB9FFF7D0FE47
:10383000BDE8704001F0B8B9BDE8704001F0F8B9DA
:10384000174B1B78002BC2D1164A13880133138003
:1038500070BD01F03FFA154B48B103229A7101F097
:10386000A3F98DE7FDF7BEFC01F09EF984E7022283
:103870009A71FFF7D7FDF2E700F02AF801233370C1
:103880003577BDE77C060020C1060020A106002098
:103890003407002090060020C2050020C305002048
:1038A0000C070020A406002038070020B8030020E1
:1038B0006C06002000050020940600200B28034B16
:1038C00028BF0B2000EB400018707047290700202C
:1038D0002DE9F04F344A83B0117D01910123137516
:1038E00072B6DFF8C8A0324F324E01F049FE40F602
:1038F000B83941F26F73CAF82C30CAF83890CAF858
:103900003C904FF46F7B7D8845B300244FF0010855
:103910001FFA88F000EB800303EB8303DB009BB20C
:1039200003F6B83CA9EB03039BB21FFA8CF2C0F17B
:10393000000ECAE90D235846CAF83C900FFA8EF8DB
:10394000FDF7FCFF14F03F0F04F1010408BF4AF635
:10395000AA23A0B208BF33608542D9D84AF6AA2468
:10396000CAE90D99CAF83C901E203460FDF7F2FFB9
:10397000114B9F4202D037F804BFC4E70025CAE9C3
:103980000D55CAF83C5001F027FC0C4B1B88CAF8B7
:103990002C300B4B1D80346062B6034A019B1375BB
:1039A00003B0BDE8F08F00BF00050020002C0140EF
:1039B000E45B000800300040EC5B000804000020DD
:1039C000B0060020002103E00B4B5B58435004314C
:1039D0000A480B4B42189A42F6D30A4A02E00023E7
:1039E00042F8043B084B9A42F9D301F099FE02F0E9
:1039F000ABF8FFF7F1F87047305C000800000020DA
:103A0000C8030020C803002054080020FEE700007F
:103A1000836861F300038360704700BF4FF08073D9
:103A20000360704743680A7862F308234360836841
:103A30004A7862F34103836083688A7862F3CB2318
:103A40008360CB78C26A013B63F31752C26270474E
:103A5000836861F308238360704700BF836843F085
:103A600008038360704700BF8068C0F3C0007047E0
:103A7000836843F004038360704700BF8068C0F32D
:103A80008000704710B4112917D8DFE811F0120038
:103A900079007E00830088008D00920097009C00D2
:103AA000A100A600AB00B000B500BA00BF00C40082
:103AB0007400046963F302040461013A0F2A0DD80B
:103AC000DFE802F00E13181D22272C31363B40454B
:103AD0004A4F5408C36A61F3D333C36210BC7047C2
:103AE000436B61F304034363F8E7436B61F34913EA
:103AF0004363F3E7436B61F38E234363EEE7436B6A
:103B000061F3D3334363E9E7436B61F318534363D2
:103B1000E4E7436B61F35D634363DFE7036B61F3EA
:103B200004030363DAE7036B61F349130363D5E727
:103B3000036B61F38E230363D0E7036B61F3D3332D
:103B40000363CBE7036B61F318530363C6E7036BAF
:103B500061F35D630363C1E7C36A61F30403C36296
:103B6000BCE7C36A61F34913C362B7E7C36A61F391
:103B70008E23C362B2E7C46863F35754C4609CE702
:103B8000046963F3C504046197E7046963F3881467
:103B9000046192E7046963F34B2404618DE70469CF
:103BA00063F30E34046188E7046963F3D13404617C
:103BB00083E7046963F3944404617EE7046963F373
:103BC0005754046179E7046963F31A64046174E784
:103BD000046963F3DD6404616FE7C46863F302049E
:103BE000C4606AE7C46863F3C504C46065E7C46879
:103BF00063F38814C46060E7C46863F34B24C46053
:103C00005BE7C46863F30E34C46056E7C46863F3CB
:103C1000D134C46051E7C46863F39444C4604CE792
:103C2000836807298CBF43F000736FF35963836087
:103C3000836861F353438360836862F31453836042
:103C4000704700BF024B9A6860F3D7529A60704782
:103C500000240140836861F396538360704700BF7E
:103C6000054B1A6818B961F300021A60704761F3D6
:103C700010421A60704700BF0024004010B412497F
:103C80000B6843F001030B600B689B07FCD54B6886
:103C90000D4A6FF301034B60536813F00C0FC3F32D
:103CA0008101F9D1136823F0867323F48033136004
:103CB00041F610744FF480104FF41F035160D4622A
:103CC000106310BC9360704700100240030C03F1B6
:103CD000804303F5043300F01F001A68012303FA40
:103CE00000F030EA02030CBF01200020704700BF43
:103CF000030C03F1804303F5043301291A6800F033
:103D00001F0006D0012101FA00F022EA000018602D
:103D1000704701FA00F0104318607047030C03F17C
:103D2000804303F5043301291A6800F01F0006D010
:103D3000012101FA00F022EA00001860704701FA40
:103D400000F0104318607047042809D8DFE800F03D
:103D5000090F151B03000F4B5A6A61F300025A62E8
:103D600070470C4B1A6861F300021A607047094BE8
:103D70001A6861F310421A607047064B1A6861F3C3
:103D800018621A607047034B1A6A61F300021A62E4
:103D9000704700BF00100240024B5A6860F30712E0
:103DA0005A60704700100240024B5A6860F30A22C2
:103DB0005A60704700100240024B5A6860F3CD22EF
:103DC0005A60704700100240054B5A6860F38F320A
:103DD0005A605A68C0F3800060F31C725A607047E2
:103DE00000100240134BA0B95A6860F31042844699
:103DF0005A60104B5A6861F395425A605A68C1F391
:103E0000011060F35E725A60DA6A6CF31A62DA6269
:103E100070475A6842F480325A605A6801280BBFD2
:103E20006FF3514242F400324FF0020C4FF0000C9D
:103E30005A60DEE700100240024B5A6860F301024C
:103E40005A60704700100240024B5868C0F381006E
:103E5000704700BF0010024038B53F4D6B6813F04B
:103E60000C0F0446C3F3810228D0022A2FD03B4B0B
:103E7000236039483A4A41683A4DC1F30311515C15
:103E8000CB4063604168C1F302211144097C23FAED
:103E900001F1E1604168C1F3C221695CCB40A360DC
:103EA00045684168C5F30070C1F3813141EA800182
:103EB0000A44127EB3FBF2F3236138BD6B6D9805A3
:103EC000D5D52B6B9901D2D5274B2360D1E76968F3
:103ED000EB6A002BC1F300411DDAEA6AEB6AC2F318
:103EE000031CEA6AC3F3082302F0070269B3696896
:103EF0001E4811F4003F194908BF08460021A3FBE2
:103F0000000503FB01F10CFA02F20023FDF730F982
:103F100003462060ADE76B686A6812F0C04FC3F3D8
:103F20008343C2F341700CD10F2B0AD0023319B175
:103F3000094A526892030AD50C4800FB03F3236038
:103F400097E7013303EB0013F1E70848D7E703488D
:103F500000FB03F323608CE70010024000127A009C
:103F6000F05B0008005C0008006CDC0200093D000A
:103F7000012805D0054B5A6D6FF305125A6570473D
:103F8000024A536D43F030035365704700100240FE
:103F9000016840F2FF42024000236FF30001B2F5D6
:103FA000816F0160036043608360C3600ED2C3B25F
:103FB0000A4A0B49083BA2FB03231B0948689B00E4
:103FC0000F2202FA03F303434B607047B2F5916F7F
:103FD000FBD2C3B2014A0349083BECE7CDCCCCCCC1
:103FE0000000024000040240036812B1194301605E
:103FF000704723EA01010160704700BF036861F365
:1040000000030360704700BFD0F8A430DB0105D483
:10401000D0F8A43043F08073C0F8A430012919D03F
:10402000022910D0032923D004291AD0052926D02B
:1040300006292BD0072905D1D0F8A43062F3174305
:10404000C0F8A4307047D0F8A03062F30F23C0F856
:10405000A0307047D0F8A03062F30703C0F8A0305A
:104060007047D0F8A03062F31F63C0F8A0307047EB
:10407000D0F8A03062F31743C0F8A0307047D0F8F2
:10408000A43062F30703C0F8A4307047D0F8A4301E
:1040900062F30F23C0F8A430704700BFB0F1805F17
:1040A0008CBF044B044B1B68034214BF012000204B
:1040B000704700BF00040240000002400023C0E936
:1040C0000033C0E902330382704700BF03684BF638
:1040D000EF721340036002680B89134303600368A7
:1040E0004A7C62F30D3303600368CA7B62F38B235F
:1040F000036003688A7B62F30923036003684A7BD9
:1041000062F3C713036003680A7B62F386130360DC
:104110000A7C036862F345130360D1E9002310B4FD
:104120004C894460826010BCC3607047014BD8600A
:10413000704700BF00200240024B0349034A596008
:104140005A6070470020024023016745AB89EFCDDC
:10415000024A136943F08003136170470020024054
:104160001B4A136943F0020313615061136943F062
:1041700040031361D368D90704D4D3685B0720D503
:10418000012011E04FF08043D168C80712D4D168F4
:10419000490713D4D268D20603F1FF334CBF022083
:1041A0000320002B08BF0420094B1A696FF341025A
:1041B0001A617047013BE7D10420F5E7013B01207C
:1041C000EFE7D36813F0100F14BF02200320EBE7D2
:1041D00000200240194A136943F001031361016092
:1041E000D368D90704D4D3685B0720D5012011E038
:1041F0004FF48013D168C80712D4D168490713D48B
:10420000D268D20603F1FF334CBF02200320002BFB
:1042100008BF0420094B1A696FF300021A61704746
:10422000013BE7D10420F5E7013B0120EFE7D3682C
:1042300013F0100F14BF02200320EBE70020024010
:1042400010B58B790A68032B1FFA82FE00F0C1803B
:10425000002B00F0B48091F804C0CC7903F008037F
:104260000CF004010B4304F003010B4391B2D2B2F2
:10427000002A4ED0CC0706D5026822F00F02026059
:1042800002681A4302608A0707D5026822F0F0022A
:104290000260026842EA031202604C0707D5026816
:1042A00022F470620260026842EA032202600A0796
:1042B00007D5026822F470420260026842EA0332C3
:1042C0000260CC0607D5026822F470220260026800
:1042D00042EA034202608A0607D5026822F47002AD
:1042E0000260026842EA035202604C0607D5026887
:1042F00022F070620260026842EA036202600A060B
:1043000007D5026822F070420260026842EA037236
:104310000260BEF1FF0F51D91EF4807F4FEA1E22CA
:1043200006D0416821F00F014160416819434160A6
:10433000940707D5416821F0F0014160416841EAE6
:1043400003114160510707D5416821F47061416054
:10435000416841EA03214160140707D5416821F40F
:1043600070414160416841EA03314160D10607D59F
:10437000416821F470214160416841EA0341416094
:10438000940607D5416821F470014160416841EA13
:1043900003514160510607D5416821F070614160C9
:1043A000416841EA03614160D20907D0426822F0C6
:1043B00070424260426842EA0373436010BD49792B
:1043C000182901F00F0307D0282991B208BF4161D5
:1043D0004DE7714600234AE791B2016147E700BF0C
:1043E000024B4FF6FF72C0E9002370470004000340
:1043F000C0F30723C0F3074CC3F12003A3EB0C0267
:104400004FF0FF339340D340020E02F1804202F599
:10441000803210B423FA0CF3146803FA0CF324EA84
:10442000030411B9146010BC7047C0B200FA0CF359
:104430002343136010BC70471F4BDB68C3F3022398
:1044400000B5C3F1070EBEF1040F03F1040C28BF41
:104450004FF0040EBCF1060F21D9033B4FF0FF3C97
:104460000CFA03FC22EA0C024FF0FF3C0CFA0EFCA3
:1044700021EA0C019940002841EA020112DB0F4AAF
:1044800009011318C9B283F800130123410900F090
:104490001F0003FA00F042F821005DF804FB00223F
:1044A0001346E1E7064B00F00F0009010344C9B2CF
:1044B00019765DF804FB00BF00ED00E000E100E0CC
:1044C000FCEC00E008B5354B98421FD0B0F1804FAE
:1044D00026D0334B98422FD0324B98420CD0324BDF
:1044E000984233D0314B98423AD0314B984241D028
:1044F000304B984248D008BD2F480121FFF70EFCF1
:10450000BDE808402C480021FFF708BC2B480121DA
:10451000FFF704FCBDE8084028480021FFF7FEBB78
:1045200001214FF48010FFF7F9FBBDE8084000219E
:104530004FF48010FFF7F2BB21480121FFF7EEFB9B
:10454000BDE808401E480021FFF7E8BB1D480121D7
:10455000FFF7E4FBBDE808401A480021FFF7DEBB87
:1045600019480121FFF7DAFBBDE808401648002191
:10457000FFF7D4BB15480121FFF7D0FBBDE8084089
:1045800012480021FFF7CABB11480121FFF7C6FB03
:10459000BDE808400E480021FFF7C0BB002C0140D9
:1045A0000004004000080040000C0040004C0140A6
:1045B0000050014000540140020010000B000C00AC
:1045C000010010000300100013000C0014000C0088
:1045D00015000C00036861F3C7130360704700BF48
:1045E000062909D8DFE801F013080E0809080400BD
:1045F000C36962F3CB23C3617047C36962F3C3032A
:10460000C3617047836962F3CB2383617047836919
:1046100062F3C30383617047062909D8DFE801F01C
:10462000090E13181D220400036A62F30C3303629F
:104630007047036A62F3000303627047036A62F320
:10464000820303627047036A62F3041303627047D4
:10465000036A62F3861303627047036A62F30823F6
:1046600003627047036A62F38A230362704700BFE4
:104670002DE9F04186B0054601A817461E4688463A
:10468000FFF7EAFBDDE90334114A954208BF1C46F7
:1046900004EB84046400B4FBF8F10E4CA4FB013479
:1046A000E40804EB8403A1EB43010429AB6888BF51
:1046B0000134A4B264F30F03AB60EB6867F30C330F
:1046C000EB602B6966F30D332B6106B0BDE8F0811A
:1046D00000380140CDCCCCCCC36861F34D33C3600E
:1046E000704700BFC36861F3C303C360704700BF76
:1046F000C36861F38203C360704700BF436961F31D
:10470000C7134361704700BF436961F3C30343614B
:10471000704700BF064B0748B3F804C00649074A74
:10472000A0F800C018885B8808801380704700BF1D
:104730002C070020C2060020C806002038060020F2
:1047400030B5012187B04FF4A010FFF7D1FA012254
:1047500011463648364CFFF757FC002202210B2049
:10476000FFF76AFE3348FFF713FC01A8FFF7A6FC2A
:10477000314B324A2F48019301A940F201234FF4F3
:104780004035ADF814300492CDE90245FFF79EFCA8
:10479000012228480221FFF727FC26480121FFF7C4
:1047A0002DFC01212648FFF7A3FA0220FFF70CFB9E
:1047B0006846FFF733F9234B234800936946FFF718
:1047C00031F90323194620480122FFF75BF91E48FF
:1047D000032302220621FFF755F903231A4610216D
:1047E0001948FFF74FF90120FFF72CFA012216486C
:1047F0000721FFF715FA14480121FFF729F912489C
:104800000121FFF705F91048FFF728F90E48FFF7D7
:104810002BF90028FAD10C480B4CFFF729F9204658
:10482000FFF72CF90028FAD107B030BD0000024094
:104830002C070020080002404C2401400001010127
:1048400009001800010100030024014048F2E803B8
:1048500000FB03F3002BB8BF03F6FF73064A43F2D5
:104860003810A0EB233082FB0023C017A0EBE3003D
:10487000053000B2704700BF310CC330704700BF35
:10488000FEE700BFFEE700BFFEE700BFFEE700BF98
:10489000704700BF704700BF704700BF704700BF40
:1048A00010B50220FFF7FAFB012800D010BD054C1F
:1048B0006060FFF72FFF0820FFF7F0FB012808BF1B
:1048C000606010BD0000024008B54FF40050FFF7D3
:1048D000E5FB012807D10B4B4FF480525A605A6C0C
:1048E0006FF300025A648020FFF7D8FB012800D044
:1048F00008BD044B4FF480525A605A6C6FF30002AB
:104900005A6408BD0000024008B54FF48000FFF76C
:10491000C5FB01280CD04FF40010FFF7BFFB0128A6
:1049200019D04FF40000FFF7B9FB012827D008BDCC
:10493000194B1B78002BEED0184A1949136A4FF413
:10494000800043F00203136248604FF40010FFF749
:10495000A5FB0128E5D1124B4FF480125A60DA6EA4
:104960006FF30002DA66FEF7E7FE0E4B4FF40042EB
:104970001A614FF40000FFF791FB0128D7D1084BD3
:104980004FF480125A60DA6E6FF30002DA66BDE807
:104990000840FEF7D1BE00BFC30500200004004060
:1049A000000002400004014008B50D4A0D4B12689A
:1049B0005B6AB3EB520F07D90B4B4FF400225A61DD
:1049C000BDE80840FDF734BA00F056F8074B1B78F5
:1049D000834200D008BD044B4FF400225A6108BD49
:1049E0004006002000080040000401405200002062
:1049F0000449054B4FF6FE70002208611A61FDF76D
:104A000057BE00BF004C0140002C01400349044A3E
:104A100000230B611361FDF7CBB900BF00540140C7
:104A2000002C0140034B4FF6FE714FF6FD721961E9
:104A30001A61704700500140704700BF074B1A6968
:104A4000910744BF4FF6FD721A61044B1A69D207F1
:104A500044BF4FF6FE721A61704700BF0004004069
:104A6000044B5A69120400D470474FF400425A6153
:104A7000FDF708BD00040140024B1868C0F3803008
:104A8000704700BF00240040044B1A684FF4002117
:104A900022F400221A605961704700BF00040140EF
:104AA000024A136843F40023136070470004014076
:104AB0001A4A1378012B2CD0042B2AD0022B23D096
:104AC000052B21D0032B0ED0062B0CD0144B1B78BA
:104AD00083B1144B9A6822F400229A60DA6842F497
:104AE0000022DA607047104B104A1A600C4B1B789A
:104AF000002BEED10B4B9A6842F400229A60DA68E0
:104B000022F40022DA607047074B094919601378D4
:104B1000D8E7054B074919601378CFE75500002007
:104B2000520000200004014000240040C500004065
:104B3000E5000040D5000040F8B542EA01039B07BC
:104B400000D0F8BD0029B8BF0331174604468D10C8
:104B5000FFF7F2FA124BB3F8E030802B8CBF4FF422
:104B600000624FF48062B7FBF2F302FB137393B160
:104B70006DB100263F1B21683819FFF72BFB01366A
:104B80000320FFF7D3FAB54204F10404F3D1BDE8E2
:104B9000F840FFF7DDBA3846FFF7E2FAE8E700BF72
:104BA00000F7FF1F00F0F4BFF8B51A4F1A4D1B4C69
:104BB0000021102304223846FCF7DEFE0026EA6EB0
:104BC000EA6610233B6120466662FFF77BFC4122C8
:104BD000A261134B13490B2222621A78A2624FF68C
:104BE000FF73E3626269104B42F00102626103F8F5
:104BF000046B0E4A6A67E26842F40072E260AB67D7
:104C00000B782B67236843F0010340F68B12236077
:104C1000EA66F8BD000C01400000024000040040BC
:104C2000C2030020BE0300203407002034040040EB
:104C300070B5204D204CEB6E43F010032046EB6620
:104C4000FFF740FC602103231C4AA1612362127814
:104C50001B4BA2625F210122E1621A706369194A4B
:104C600019491A4843F0010363616A67E368184A07
:104C700043F40073E360A967527817322A67E96E3C
:104C800041F00201E966E96E41F00801E966E96E6A
:104C900041F00101E966616C41F400416164216801
:104CA00041F001012160BDE8704010230422082179
:104CB000FCF762BE00000240000400401C07002018
:104CC000340700203404004034040020000C01406C
:104CD000C2030020024B986800F01000704700BF2C
:104CE000000C01400248102318220021FCF744BEAA
:104CF000000C014062B670471C4B4FF4AA7210B50D
:104D00001A60FEF7BBFF01210020FFF71DF801200C
:104D1000FEF7DCFF01280446F9D100202321FFF72C
:104D200061F821460220FFF70FF81920FEF7CEFFA9
:104D300001280446F9D10020FFF72EF80420FFF7E0
:104D40003BF80420FFF730F82046FFF711F9022066
:104D5000FFF772F8FFF778F80228FBD10020FFF781
:104D600007F9BDE8104000F01BBD00BF0020024065
:104D7000084B10B44CF6CC4245F255541C6004204C
:104D80001A604FF47A614AF6AA22586010BC996002
:104D90001A6070470030004070B501214FF4C01018
:104DA000FEF7A6FF2E482F4C2F4D0121FEF7A0FF46
:104DB0002E480121FFF71CFB6823002141F26F7090
:104DC00046F66802E062A1622046A261E361012228
:104DD000FFF706FC204601220221FFF701FC012219
:104DE00020460421FFF7FCFB20460121FFF7F2FBE0
:104DF000636C1F48782262F3070363640121FEF7A6
:104E000077FF1C480121FEF773FF28460223042286
:104E10000821FCF7B1FDA4F5105428460123042213
:104E20000821FCF7A9FD2046802304220821FCF775
:104E3000A3FD20464FF4806304220821FCF79CFD6B
:104E400020464FF4007304220821FCF795FD20460C
:104E50004FF48073BDE8704004220821FCF78CBD3C
:104E60000B001800002C0140000C0140010400243C
:104E7000020018000300180038B501214FF4C010DB
:104E8000FEF736FF1F48204C204D0121FEF730FF72
:104E90001F480121FEF72CFF1E480121FFF7A8FA49
:104EA0001D480121FFF7A4FA482220460621FFF7FA
:104EB000ABF801214FF4A010FEF71AFF10230422D3
:104EC00000212846FCF758FD144A40F68A111023A9
:104ED000E16682F810334FF480311160A4F5FE349E
:104EE0004FF6FF72E262A362226842F08002226003
:104EF000002104222846FCF73FFD236843F001030C
:104F0000236038BD0300180000000240000C01407F
:104F100001001C00020310300204082400E100E03C
:104F2000F8B5FFF7E9FE344C01214FF4A010FEF76D
:104F3000DFFE102384F810334FF480332360FFF733
:104F40002BFF2E480121FEF7D3FE2D4B2D484A2280
:104F50004FF6FF77DF6201219A62FEF7C9FE2A4B06
:104F600032228F26DA629E62302384F818334FF0A3
:104F700080732360254D26480121FEF7B9FE2548A0
:104F80000121FEF7B5FE2846022304220321FCF787
:104F9000F3FC28462023042203210025FCF7ECFC27
:104FA00084F846534023A36001212846FEF758FEAB
:104FB00019480121FEF79CFE184B4FF4FA72DA6291
:104FC0004B229A621A6842F080021A6084F81A53DF
:104FD0004FF08063236012480121FEF789FE114BD8
:104FE000DF629E621A6842F080021A60FFF744FF97
:104FF000BDE8F84000F01ABB00E100E002001C0030
:105000000008004013001800004C01400008014057
:105010000200180009001C0015001800005401408F
:105020001400180000500140014B5863704700BF46
:10503000002C0140014B9863704700BF002C0140D9
:10504000014BD863704700BF002C0140024A5369EE
:1050500043F0010353617047002C0140024B0022D2
:10506000DA625A62704700BF0004004010B5384C45
:10507000012220460021FFF7CFFA2046012202211B
:10508000FFF7CAFA204601220421FFF7C5FA0122E0
:1050900011462046FFF7C0FA204601220321FFF700
:1050A000BBFA204601220521FFF7B6FA2268294BF8
:1050B000294842F001022260626C42F400426264BC
:1050C000626942F0010262611968244A41F00101FB
:1050D0001960596941F001015961D96821F0010154
:1050E000D960016841F001010160116841F00101DE
:1050F00011605169A3F5006341F0010151611A6823
:1051000042F001021A605A6942F001025A61DA68FB
:1051100042F00102A4F59434DA60FFF711FB01229A
:1051200000212046FFF778FA23680D4A43F0010377
:105130002021236082F828134FF48073536002F11A
:10514000C04202F50C52136843F40043136010BDD3
:10515000002C014000540140005001400008004074
:1051600000E100E070B51A4C1A4D20464FF4806300
:1051700004221021FCF700FC4FF4806060614FF4C2
:105180000073204604221021FCF7F6FB4FF4007058
:1051900060614FF48073204604221021FCF7ECFB81
:1051A0004FF4807161612846022304220821FCF734
:1051B000E3FB2846012304220821FCF7DDFB2046FF
:1051C0008023BDE8704004220821FCF7D5BB00BF56
:1051D00000080140000C014038B51C4D1C4C022356
:1051E000042210212846FCF7C7FB02214FF48063FC
:1051F0000422696120461021FCF7BEFB4FF4806158
:1052000001230422616128461021FCF7B5FB01212E
:105210004FF400730422696120461021FCF7ACFBB7
:105220004FF4007080230422102160612046FCF7B7
:10523000A3FB8023636104224FF480731021204676
:10524000FCF79AFB4FF48073636138BD000C01409A
:1052500000080140013870B5052800F24C81DFE8F4
:1052600010F041007200AB00DE0017010600A24DF5
:10527000A24C0123042210212846FCF77DFB0121CA
:105280004FF400730422696120461021FCF774FB7F
:105290004FF4007180230422616120461021FCF745
:1052A0006BFB8023236104224FF48073102120467E
:1052B000FCF762FB924B1B7D4FF480726261002B06
:1052C0003AD10223042210212846FCF755FB022381
:1052D0006B61BDE8704089484FF480630422082167
:1052E000FCF74ABB854C844D8023042210212046C4
:1052F000FCF742FB80204FF4807304221021606190
:105300002046FCF739FB4FF48071012304226161D0
:1053100028461021FCF730FB01232B6104224FF4B7
:10532000007310212046FCF727FB754B1B7D4FF4C3
:1053300000726261002BC4D06F480223042208214E
:10534000FCF71AFBC5E76C4D6C4C022304221021BC
:105350002846FCF711FB02214FF4806304226961A7
:1053600020461021FCF708FB4FF480610123042242
:10537000616128461021FCF7FFFA01232B6104220A
:105380004FF4007310212046FCF7F6FA5C4B1B7DAE
:105390004FF400726261002B38D0584880230422F9
:1053A0000821FCF7E9FABDE8704054484FF48073D7
:1053B00004220821FCF7E0BA4F4D504C012304228F
:1053C00010212846FCF7D8FA01214FF4007304227B
:1053D000696120461021FCF7CFFA4FF400710223D7
:1053E0000422616128461021FCF7C6FA02232B61D2
:1053F00004224FF4806310212046FCF7BDFA404B95
:105400001B7D4FF480626261002BC6D18023042291
:1054100010212046FCF7B0FA80236361C3E7374CC4
:10542000354D8023042210212046FCF7A5FA802068
:105430004FF480730422102160612046FCF79CFA2F
:105440004FF4807102230422616128461021FCF789
:1054500093FA02232B6104224FF48063102120462B
:10546000FCF78AFA264B1B7D4FF480626261002BA9
:1054700038D02148012304220821FCF77DFABDE839
:1054800070401E484FF4007304220821FCF774BAE0
:10549000194D1A4C0223042210212846FCF76CFAFD
:1054A00002214FF480630422696120461021FCF739
:1054B00063FA4FF480618023042261612046102149
:1054C000FCF75AFA8023236104224FF480731021E1
:1054D0002046FCF751FA0A4B1B7D4FF48072626143
:1054E000002BC6D10123042210212846FCF744FAE0
:1054F00001236B61C3E770BD000C0140000801404F
:105500000005002038B51C4D1C4C0223042210213C
:105510002846FCF731FA02214FF480630422296106
:1055200020461021FCF728FA4FF480610123042261
:10553000616128461021FCF71FFA01214FF4007326
:105540000422296120461021FCF716FA4FF400705E
:1055500080230422102160612046FCF70DFA80238D
:10556000236104224FF4807310212046FCF704FAD3
:105570004FF48073636138BD000C014000080140A6
:1055800070B5274C237DABBB264D0223042210218E
:105590002846FCF7F1F902236B614FF4806322483F
:1055A00004220821FCF7E8F9237D8BBB1D4D012364
:1055B000042210212846FCF7DFF901236B611A4D04
:1055C0004FF40073042208212846FCF7D5F9237D07
:1055D000BBB98023042210212846FCF7CDF9802393
:1055E0006B61BDE8704010484FF4807304220821BD
:1055F000FCF7C2B90B48022304220821FCF7BCF9CE
:10560000CBE78023042208212846FCF7B5F9E8E718
:105610000448012304220821FCF7AEF9CFE700BFBC
:1056200000050020000C01400008014070B5314821
:10563000314C324D88B00121FEF75AFB3048012130
:10564000FEF756FB01214FF4A010FEF751FB2D4B46
:105650002D4801A94022CDE90123FEF7F1FD2046A6
:10566000FEF796FC1A2204212846FEF7CDFC03A87B
:10567000FEF724FD254B04932046254B254C039330
:10568000002603A94FF48073CDE90543ADF81C60F3
:10569000FEF71CFD6B6C204C204843F002036B644A
:1056A0006B6C43F008036B640121FEF7A1FE3346E7
:1056B000324620464FF4E131FEF7DAFF2046012161
:1056C000FFF710F820460121FFF712F820460121CC
:1056D000FFF71AF820460121FFF710F820460121B4
:1056E000FEF7FAFF324603210E20FEF7A5FE08B0B2
:1056F00070BD00BF0E0018004400024000000240D0
:105700000300180000040801000C0140CC04002034
:105710000438014010003100003801400104102C11
:1057200030B41B4A1B49D36943F08053D36191F8CD
:10573000503043F0040381F85030D3696FF31C7389
:10574000D361136843F00103136013689B07FCD512
:1057500053680F496FF3010353604B6813F00C0F4C
:10576000C3F38102F9D10B680B480C4C23F086730C
:1057700023F480330B6041F610754FF480134A60B8
:10578000CD620B634FF41F038B60846030BC7047A5
:10579000001002400070004000ED00E00010000822
:1057A00010B5FEF751FB60B1022816D02C482D4BE6
:1057B0002D495B682D4AC3F30313CB5CD8401060BE
:1057C00010BD284B5A6D9205F0D51A6B244B284812
:1057D00012F0007F08BF1846E9E7224B5968DA6AE1
:1057E000002AC1F300411CDAD86ADC6ADA6AC0F325
:1057F000031EC4F3082402F0070259B35B681D4876
:1058000013F4003F164B4FF0000108BF18460EFA84
:1058100002F20023A4FB000E04FB01F1FBF7A8FC3D
:10582000C5E758685B6813F0C04FC0F38340C3F30B
:1058300041720BD10F2809D0023019B1094B5B68B6
:105840009B0309D50B4B03FB00F0B0E7013000EBE5
:105850000210F2E70748DAE7014B03FB00F0A6E786
:1058600000127A0000100240105C0008C4030020FF
:10587000006CDC0200093D002DE9F047089E0D4652
:1058800004468846002B4DD18A42944668D9B2FA24
:1058900082F252B101FA02F3C2F1200120FA01F1C1
:1058A0000CFA02FC41EA030894404FEA1C45210C23
:1058B000B8FBF5FE1FFA8CF705FB1E8341EA034394
:1058C0000EFB07F199420BD91CEB03030EF1FF30DD
:1058D00080F01E81994240F21B81AEF1020E6344BA
:1058E0005B1AA4B2B3FBF5F005FB103344EA0344A2
:1058F00000FB07F7A7420AD91CEB040400F1FF33B1
:1059000080F00881A74240F2058164440238E41B1C
:1059100040EA0E4000211EB1D4400023C6E90043F6
:10592000BDE8F0878B4208D9002E00F0EE80002100
:10593000C6E900050846BDE8F087B3FA83F10029FF
:105940004AD1AB4202D3824200F2F980841A65EB5D
:10595000030301209846002EE2D0C6E90048DFE7A5
:1059600002B9FFDEB2FA82F2002A40F09180A1EB88
:105970000C054FEA1C471FFA8CFE0121B5FBF7F31B
:1059800007FB1350250C45EA00450EFB03F0A84227
:1059900008D91CEB050503F1FF3802D2A84200F23A
:1059A000CB8043462D1AA4B2B5FBF7F007FB105588
:1059B00044EA05440EFB00FEA64508D91CEB04048E
:1059C00000F1FF3502D2A64500F2BB802846A4EBC9
:1059D0000E0440EA03409EE7C1F120078B4022FA03
:1059E00007FC4CEA030C20FA07F405FA01F31C4308
:1059F000FD404FEA1C4900FA01F3B5FBF9F8200C11
:105A00001FFA8CFE09FB185540EA054508FB0EF00D
:105A1000A84202FA01F20BD91CEB050508F1FF3A86
:105A200080F08880A84240F28580A8F10208654491
:105A30002D1AA4B2B5FBF9F009FB105544EA05454F
:105A400000FB0EFEAE4508D91CEB050500F1FF3446
:105A50006CD2AE456AD90238654440EA0840A0FBE2
:105A60000294A5EB0E05A542C846A64656D353D0D0
:105A70005EB1B3EB080265EB0E0505FA07F722FAF3
:105A800001F3CD401F43C6E900750021BDE8F08752
:105A9000C2F1200320FA03F10CFA02FC25FA03F309
:105AA00095400D434FEA1C471FFA8CFEB3FBF7F1FC
:105AB00007FB11302B0C43EA004301FB0EF0984228
:105AC00004FA02F408D91CEB030301F1FF382FD2CA
:105AD00098422DD9023963441B1AADB2B3FBF7F0DB
:105AE00007FB103345EA034500FB0EF3AB4208D930
:105AF0001CEB050500F1FF3816D2AB4214D9023871
:105B00006544ED1A40EA014138E73146304607E77F
:105B10008646E5E61846FAE64B45A9D2B9EB0208F7
:105B200064EB0C0E0138A3E74046EAE7204694E711
:105B30004146D1E7D0467BE7023B654432E7084661
:105B400009E76444023842E770B50D4D0D4C641B03
:105B5000A4100026A64209D10B4D0C4C00F02EF8E3
:105B6000641BA4100026A64205D170BD55F8043B65
:105B700098470136EEE755F8043B98470136F2E7BF
:105B8000285C0008285C0008285C00082C5C0008E1
:105B90000A44914200F1FF3300D1704710B511F86B
:105BA000014B03F8014F9142F9D110BD0244034665
:105BB000934200D1704703F8011BF9E7F8B500BF25
:105BC000F8BC08BC9E467047F8B500BFF8BC08BCDE
:045BD0009E46704736
:105BD400191B12131D1516171A090A0B1E0D0E0F89
:105BE400BC033901F7028B017E02C10200000000F0
:105BF4000000000001020304060708090000000079
:105C04000102030402040608020C0810000000004C
:0C5C14000000000001020304060708095C
:085C200058FCFF7F01000000A9
:045C2800C911000896
:045C2C00A5110008B6
:105C300000F801086F176F1778007800C800D007C8
:105C40004C046C07DC0564004A01780090010000F8
:105C5000000000009001000000000000E8030000C8
:105C60000000000000000000000000000000000034
:105C7000204E0000A0860100020101011400460030
:105C8000DC05010601010100D4300000050A000016
:105C9000E803000010270000000000000A000000D8
:105CA0000000000064000000000000000000000090
:105CB00000000000000000001027000050C300009A
:105CC000B400D007D0070000B400B700BA00BD0090
:105CD000C100C400C700CA00CD00D000D300D60068
:105CE000D900DC00E000E300E600E900EC00EF0092
:105CF000F200F500F700FA00FD00000103010601C3
:105D000009010B010E0111011301160119011B01FB
:105D10001E0120012301250128012A012C012F0148
:105D200031013301350138013A013C013E014001A6
:105D3000420144014601470149014B014D014E0119
:105D400050015101530154015601570158015A01A4
:105D50005B015C015D015E015F0160016101620147
:105D60006301630164016501650166016601670104
:105D700067016701680168016801680168016801DD
:105D800068016801680167016701670166016601D2
:105D900065016501640163016301620161016001E4
:105DA0005F015E015D015C015B015A015801570111
:105DB000560154015301510150014E014D014B0157
:105DC0004901470146014401420140013E013C01B5
:105DD0003A0138013501330131012F012C012A012B
:105DE00028012501230120011E011B0119011601B3
:105DF000130111010E010B0109010601030100014C
:105E0000FD00FA00F700F500F200EF00EC00E900F9
:105E1000E600E300E000DC00D900D600D300D000AB
:105E2000CD00CA00C700C400C100BD00BA00B70061
:105E3000B400B100AE00AB00A700A400A1009E001A
:105E40009B009800950092008F008C0088008500D0
:105E500082007F007C0079007600730071006E0084
:105E60006B006800650062005F005D005A0057002B
:105E7000550052004F004D004A00480045004300C5
:105E800040003E003C003900370035003300300050
:105E90002E002C002A0028002600240022002100C9
:105EA0001F001D001B001A00180017001500140029
:105EB0001200110010000E000D000C000B000A0073
:105EC00009000800070006000500050004000300A3
:105ED00003000200020001000100010000000000B8
:105EE00000000000000000000000000000000100B1
:105EF000010001000200020003000300040005008D
:105F0000050006000700080009000A000B000C004D
:105F10000D000E00100011001200140015001700F3
:105F200018001A001B001D001F0021002200240081
:105F3000260028002A002C002E00300033003500F7
:105F4000370039003C003E00400043004500480057
:105F50004A004D004F005200550057005A005D00A6
:105F60005F006200650068006B006E0071007300E6
:105F7000760079007C007F008200850088008C001C
:105F80008F009200950098009B009E00A100A40045
:105F9000A700AB00AE00B10078001E030300641937
:105FA00000000000010000000000000032000000BE
:105FB00000000000000000000000000000000000E1
:105FC0001027000050C300000200D200D007640078
:105FD00005007800E8030614013278004B00010048
:105FE0005A005A001E000201FA000000204E200054
:085FF00050C3180700127A00EB
:107BE0006E6F7661585F3132535F46343135000035
:107BF0000000000000000000000000000000000085
:04000005080039C5F1
:00000001FF
