:020000040800F2
:1000000000060020290400082B0400082B04000827
:100010002B0400082B0400082B0400082B04000804
:100020002B0400082B0400082B0400088D5C00083A
:100030002B0400082B0400082B0400082B040008E4
:100040002B0400082B0400082B0400082B040008D4
:100050002B0400082B0400081575000841750008E2
:100060006D75000899750008C57500086D3A00089F
:10007000953A0008C13A0008ED3A0008193B00081B
:10008000413B00086D3B00082B0400082B040008CE
:100090002B0400082B0400082B040008F17500084D
:1000A0002B0400082B0400082B0400082B04000874
:1000B0002B0400082B0400082B0400082B04000864
:1000C0002B0400082B0400082B0400082B04000854
:1000D0002B0400082B0400082B040008DD76000820
:1000E000557600082B0400082B0400082B04000898
:1000F0002B0400082B0400082B040008993B00087F
:100100002B0400082B040008197700082B040008B2
:100110002B040008F17600082B0400082B040008CB
:10012000C53B0008ED3B0008193C0008453C0008B1
:10013000713C00082B0400082B0400082B04000865
:100140002B0400082B0400082B0400082B040008D3
:10015000993C0008C53C0008F13C00082B0400084D
:100160002B0400082B0400082B0400082B040008B3
:100170002B040008796800082B0400082B040008F1
:100180002B0400082B040008057700082B04000846
:100190002B0400082B0400082B0400082B04000883
:1001A0002B0400082B0400082B0400082B04000873
:1001B0002B0400082B0400082B0400082B04000863
:1001C0002B0400082B0400082B0400082B04000853
:1001D0002B040008656800082B0400082B040008A5
:1001E0002B0400082B0400082B0400082B04000833
:1001F0002B0400082B0400082B0400082B04000823
:100200002B0400082B0400082B0400082B04000812
:100210002B0400082B0400082B0400082B04000802
:100220002B0400082B0400082B0400082B040008F2
:10023000C97600082B0400082B0400082B040008D2
:100240002B0400082B0400082B0400082B040008D2
:100250002B0400082B0400082B0400082B040008C2
:100260002B0400082B0400082B0400082B040008B2
:100270002B0400082B0400082B0400082B040008A2
:100280002B0400082B0400082B0400082B04000892
:100290002B0400082B0400082B0400082B04000882
:1002A0002B0400082B0400082B0400082B04000872
:1002B0002B0400082B0400082B0400082B04000862
:1002C0002B0400082B0400082B0400082B04000852
:1002D0002B0400082B0400082B0400082B04000842
:1002E0004ECF4EA5A6B6F729252C46ED55BBA164E9
:1002F00032D4DF3D6EF726AE193EA406FC975E7839
:10030000FEC26C69059D05FB0000000000000000B6
:1003100000000000000000000000000000000000DD
:1003200000000000000000000000000000000000CD
:1003300000000000000000000000000000000000BD
:1003400000000000000000000000000000000000AD
:10035000000000000000000000000000000000009D
:10036000000000000000000000000000000000008D
:10037000000000000000000000000000000000007D
:10038000000000000000000000000000000000006D
:10039000000000000000000000000000000000005D
:1003A000000000000000000000000000000000004D
:1003B000000000000000000000000000000000003D
:1003C000000000000000000000000000000000002D
:1003D000000000000000000000000000000000001D
:1003E000000000000000000000000000000000000D
:1003F00000000000000000000000000000000000FD
:1004000000000000000000000000000000000000EC
:1004100000000000000000000000000000000000DC
:10042000000000000000000002E000F000F8FEE71D
:1004300072B6374880F30888364880F30988364812
:100440003649086040F20000CCF200004EF63471EC
:10045000CEF200010860BFF34F8FBFF36F8F40F201
:100460000000C0F2F0004EF68851CEF200010860A4
:10047000BFF34F8FBFF36F8F4FF00000E1EE100A14
:100480004EF63C71CEF200010860062080F314881D
:10049000BFF36F8F05F05CFC06F0F2FD4FF05530B6
:1004A0001F491B4A91423CBF41F8040BFAE71D4922
:1004B000184A91423CBF41F8040BFAE71A491B4A1B
:1004C0001B4B9A423EBF51F8040B42F8040BF8E76D
:1004D00000201849184A91423CBF41F8040BFAE742
:1004E00005F074FC06F050FE144C154DAC4203DAD6
:1004F00054F8041B8847F9E700F042F8114C124DFC
:10050000AC4203DA54F8041B8847F9E705F05CBCF9
:1005100000060020002200200000000808ED00E096
:100520000000002000060020208E0008002200208D
:100530006C22002070220020C4540020E002000839
:10054000E0020008E0020008E00200082DE9F04F98
:100550002DED108AC1F80CD0D0F80CD0BDEC108A6B
:10056000BDE8F08F002383F311882846A0470020C0
:1005700004F08CFDFEE704F0E5FC00DFFEE7000080
:1005800038B500F07FFC294B41F6F0721B6C9BB232
:1005900093421DD14FF0006005F0A2F980B2B0F592
:1005A000006F15D1224AD2F8D83023F02063C2F868
:1005B000D830BFF34F8FBFF34F8F1E491E4BCA6811
:1005C00002F4E0621343CB60BFF34F8F00BFFDE73F
:1005D00000F01CFE05F008FB054605F04DFB044647
:1005E00000BB164B9D421FD001339D4241F288351E
:1005F00012BF04460025012400F02AFF20B1002587
:10060000032000F06DF82C46002005F0F7FA0CB13D
:1006100000F07CF800F09AFD284600F023F900F085
:1006200075F8F9E70025E7E70546E5E70020005201
:100630000044025800ED00E00400FA05010007B094
:1006400008B500F0EBFBA0F120035842584108BD6B
:1006500007B541F21203022101A8ADF8043000F001
:10066000FBFB03B05DF804FB38B5302383F311883E
:10067000174803680BB104F0EDFD0023154A4FF451
:100680007A71134804F0DCFD002383F31188124CC7
:10069000236813B12368013B2360636813B1636867
:1006A000013B63600D4D2B7833B963687BB9022041
:1006B00000F0AEFC322363602B78032B07D1636814
:1006C0002BB9022000F0A4FC4FF47A73636038BDAC
:1006D0007022002069060008902300208822002054
:1006E000084B187003280CD8DFE800F00805020852
:1006F000022000F07FBC022000F06CBC024B002204
:100700005A6070478822002090230020F8B500F03E
:100710009FFE30B14B4B03221A7000224A4B5A60A5
:10072000F8BD4A4B4A4A1C4619680131F8D00433D7
:100730009342F9D16268474B9A42F1D9464B9B6884
:1007400003F1006303F500339A42E9D2002000F080
:10075000B3FB0220FFF7C4FF404B0021D3F8E82091
:10076000C3F8E810D3F81021C3F81011D3F8102102
:10077000D3F8EC20C3F8EC10D3F81421C3F814110B
:10078000D3F81421D3F8F020C3F8F010D3F81821CF
:10079000C3F81811D3F81821D3F8802042F0006272
:1007A000C3F88020D3F8802022F00062C3F88020B4
:1007B000D3F8803072B64FF0E023C3F8084DD4E987
:1007C0000004BFF34F8FBFF36F8F254AC2F8841028
:1007D000BFF34F8F536923F480335361BFF34F8FBF
:1007E000D2F8803043F6E076C3F3C905C3F34E3345
:1007F0005B0103EA060C29464CEA81770139C2F80D
:100800007472F9D2203B13F1200FF2D1BFF34F8F56
:10081000BFF36F8FBFF34F8FBFF36F8F536923F415
:10082000003353610023C2F85032BFF34F8FBFF340
:100830006F8F302383F31188854680F30888204723
:100840006EE700BF882200209023002000000208ED
:1008500020000208FFFF0108002200200044025887
:1008600000ED00E02DE9F04F93B0B04B2022FF21C6
:1008700000900AA89D6800F013FCAD4A1378A3B954
:100880000121AC4811700360302383F311880368A1
:100890000BB104F0DFFC0023A74A4FF47A71A5489E
:1008A00004F0CEFC002383F31188009B13B1A34B0B
:1008B000009A1A60A24A1378032B03D00023137006
:1008C0009E4A53604FF00009009CCA464E46C846F7
:1008D000012000F08FFB24B1984B1B68002B00F027
:1008E0002982002000F09AFA0390039B002BF2DB90
:1008F000012000F06FFB039B213B1F2BE8D801A2D6
:1009000052F823F085090008AD090008410A0008E3
:10091000D1080008D1080008D1080008C70A00085B
:10092000910C0008AB0B00080D0C0008350C0008FA
:100930005B0C0008D10800086D0C0008D108000805
:10094000DF0C0008250A0008D10800083B0D00084C
:1009500091090008250A0008D10800080D0C0008BC
:10096000D1080008D1080008D1080008D108000803
:10097000D1080008D1080008D1080008D1080008F3
:10098000410A00080220FFF75BFE002840F0FC81CE
:10099000009BB9F1000F08BF1C4641F2123302213F
:1009A00005A8ADF8143000F057FA91E74FF47A70CB
:1009B00000F034FA071EEBDB0220FFF741FE0028AF
:1009C000E6D0013F052F00F2E181DFE807F0030ADE
:1009D0000D1013360523042105A8059300F03CFAF9
:1009E00017E004215148F9E704215648F6E70421AD
:1009F0005548F3E74FF01C08404608F1040800F0A2
:100A00005DFA0421059005A800F026FAB8F12C0F34
:100A1000F2D101204FF0000800FA07F747EA0A0A6E
:100A20005FFA8AFA00F088FB26B10AF00B030B2B61
:100A300008BF0024FFF70CFE4AE704214348CDE736
:100A4000002EA5D00AF00B030B2BA1D10220FFF73B
:100A5000F7FD074600289BD00120002600F02CFA65
:100A60000220FFF73DFE1FFA86F9484600F034FAEF
:100A7000044680B1039948460136A1F14002514233
:100A8000514100F039FA0028EDD13E46B9460446FE
:100A900041F2121383E725460120FFF721FE234B85
:100AA0009B68AB4207D9284600F008FA013040F0B5
:100AB00070810435F3E70025214BB9463E461D7091
:100AC0001E4B5D60AEE7002E3FF462AF0AF00B03F1
:100AD0000B2B7FF45DAF0220FFF702FE322000F007
:100AE0009DF9071EFFF654AF17F0030B7FF450AFCC
:100AF0000E4A7B19926893423FF64AAFB7F5807F62
:100B00003FF746AF124B5F45019323DD4FF47A70F8
:100B100000F084F90390039A002AFFF639AF039A94
:100B20000BF1010B019B03F8012BECE700220020E5
:100B30008C230020702200206906000890230020EA
:100B40008822002004220020082200200C220020FD
:100B50008C220020C820FFF773FD834600283FF455
:100B600017AF1F2D11D8C5F120020AAB25F00300E5
:100B70008A49BA42184428BF3A46019200F06AFAFC
:100B8000019AFF21854800F08BFABB10C7F387025A
:100B900082492846019300F08BFA0646002800F0AF
:100BA000FB80019B05EB83053CE70220FFF748FD36
:100BB00000283FF4EDAE00F0BDF900283FF4E8AEA8
:100BC0000027BB46764B9B68BB4218D91F2F11D814
:100BD0000A9B01330ED027F0030312AA134453F8E3
:100BE000203C05935846042205A9043700F0A6FBD3
:100BF0008346E7E7384600F061F90590F2E7CDF863
:100C000014B0042105A800F027F90BE700236421A4
:100C100004A8049300F016F900287FF4B9AE02206E
:100C2000FFF70EFD00283FF4B3AE049800F078F90A
:100C30000590E6E70023642104A8049300F002F97C
:100C400000287FF4A5AE0220FFF7FAFC00283FF44D
:100C50009FAE049800F066F9EAE70220FFF7F0FC87
:100C600000283FF495AE00F075F9E1E70220FFF7A8
:100C7000E7FC00283FF48CAE05A9142000F070F9C1
:100C800007460421049004A800F0E6F83946B9E7C5
:100C9000322000F0C3F8071EFFF67AAEBB077FF4E0
:100CA00077AE3F4A07EB0803926893423FF670AE77
:100CB0000220FFF7C5FC00283FF46AAE27F00307C7
:100CC0004744B8453FF4AEAE404608F1040800F092
:100CD000F5F80421059005A800F0BEF8F1E74FF4FF
:100CE0007A70FFF7ADFC00283FF452AE00F022F915
:100CF00000283FF4CDAE0A9B01330CD008220AA98C
:100D0000002000F0D5F900283FF4C2AE2022FF21D8
:100D10000AA800F0C5F900F09BFB30B10323214A7B
:100D200013700023204A5360B2E6FFF791FC1F487E
:100D300004F0B2F913B0BDE8F08F002E3FF428AEF6
:100D40000AF00B030B2B7FF423AE0023642105A8CC
:100D5000059300F077F8074600287FF419AE0220CB
:100D6000FFF76EFC834600283FF412AEFFF770FCDD
:100D700041F2883004F090F9059800F025FA5E46BB
:100D80003C4600F0D9F9A3E506464BE64FF00008D3
:100D9000FEE53E46B9467BE65E4679E68C220020BB
:100DA000002200208822002090230020A08601003D
:100DB0002DE9F84F4FF47A7306460D46002402FBE6
:100DC00003F7DFF85080DFF8509098F900305FFAB1
:100DD00084FA5A1C01D0A34210D159F824002A46A3
:100DE00031460368D3F820B03B46D847854205D149
:100DF000074B012083F800A0BDE8F88F0134042CD4
:100E0000E3D14FF4FA7004F047F90020F4E700BF93
:100E1000DC2300201022002014220020002307B52C
:100E2000024601210DF107008DF80730FFF7C0FFE2
:100E300020B19DF8070003B05DF804FB4FF0FF30D0
:100E4000F9E700000A46042108B5FFF7B1FF80F07A
:100E50000100C0B2404208BD074B0A4630B41978C1
:100E6000064B53F82140014623682046DD69044BB8
:100E7000AC4630BC604700BFDC23002014220020B9
:100E8000A086010070B50A4E00240A4D04F03AFC19
:100E9000308028683388834208D904F02FFC2B68FF
:100EA00004440133B4F5003F2B60F2D370BD00BFA2
:100EB000DE2300209823002004F0FEBC00F1006037
:100EC00000F500300068704700F10060920000F506
:100ED000003004F073BC0000054B1A68054B1B88FA
:100EE0009B1A834202D9104404F008BC00207047CA
:100EF00098230020DE23002038B50446074D29B191
:100F000028682044BDE8384004F010BC286820441C
:100F100004F0FAFB0028F3D038BD00BF982300206E
:100F20000020704700F1FF5000F58F10D0F8000846
:100F300070470000064991F8243033B1002308229D
:100F4000086A81F82430FFF7BFBF0120704700BF57
:100F50009C230020014B1868704700BF0010005C04
:100F6000194B01380322084470B51D68174BC5F3AF
:100F70000B042D0C1E88A6420BD15C680A46013C6E
:100F8000824213460FD214F9016F4EB102F8016B81
:100F9000F6E7013A03F10803ECD181420B4602D295
:100FA0002C2203F8012B0424094A1688AE4204D1EE
:100FB000984284BF967803F8016B013C02F1040269
:100FC000F3D1581A70BD00BF0010005C242200202D
:100FD000B0830008022804D1054B4FF400129A6137
:100FE00070470128FCD1024B4FF40022F7E700BF05
:100FF00000100258022803D1044B20229A61704746
:101000000128FCD1014B0822F8E700BF001002586C
:10101000022805D1064A536983F0200353617047C3
:101020000128FCD1024A536983F00803F6E700BFA8
:101030000010025870B504464FF47A764CB1412C3A
:10104000254628BF412506FB05F0641B04F024F863
:10105000F4E770BD002310B5934203D0CC5CC454B8
:101060000133F9E710BD0000013810B510F9013F58
:101070003BB191F900409C4203D11AB10131013AD0
:10108000F4E71AB191F90020981A10BD1046FCE758
:1010900003460246D01A12F9011B0029FAD1704703
:1010A00002440346934202D003F8011BFAE770475B
:1010B0002DE9F8431F4D14460746884695F824202D
:1010C00052BBDFF870909CB395F824302BB92022E6
:1010D000FF2148462F62FFF7E3FF95F824004146C1
:1010E000C0F1080205EB8000A24228BF2246D6B21A
:1010F0009200FFF7AFFF95F82430A41B17441E445D
:101100009044E4B2F6B2082E85F82460DBD1FFF7F4
:1011100011FF0028D7D108E02B6A03EB820383423A
:10112000CFD0FFF707FF0028CBD10020BDE8F88320
:101130000120FBE79C230020024B1A78024B1A7017
:10114000704700BFDC23002010220020F8B5194CA6
:10115000194803F0A9FA2146174803F0D1FA246888
:101160004FF47A70154ED4F89020154DD2F804380B
:10117000114F43F00203C2F80438FFF75BFF20462B
:10118000104903F0CBFBD4F890200424D2F80438A3
:1011900023F00203C2F804384FF4E133336055F80A
:1011A000040BB84202D0314603F0DCF9013CF6D121
:1011B000F8BD00BF688B000858340020C42300200D
:1011C00014220020708B00080C4B70B50C4D0446A7
:1011D0001E780C4B55F826209A420DD00A4B002160
:1011E00018221846FFF75CFF0460014655F82600F8
:1011F000BDE8704003F0B6B970BD00BFDC2300202D
:101200001422002058340020C42300202DE9F04788
:1012100071B6464B01201D68454BB3F80080002392
:101220001A46194602F00CFE0446802004F04EFCDB
:101230000746002862D0002C60D03E4EADB24FF081
:10124000800A7369284643F0C0637361D6F814318D
:1012500043F0C063C6F8143104F050FA05EB0802FD
:1012600000FB05F34FF4D06C50434FF03D0E984215
:1012700033D93269520144D4D6F81021510140D4F7
:10128000216803F100628A602268D7602268C2F890
:1012900004A02268C2F800C0D4F80090D9F8002059
:1012A00042F00102C9F80020D4F80090D9F80020DB
:1012B00022F01E02C9F80020D4F80090D9F80020CE
:1012C000D207FBD494F80C90803361680EFA09F2CF
:1012D0000A60CCE7002004F0EFFA204602F0F0FDAF
:1012E000384604F02BFC134B5A6942F0C0625A6135
:1012F000D3F8142142F0C062C3F8142161B6BDE8EE
:10130000F0870D4B9A6A42F400729A629A6A42F42C
:1013100000429A6261B60026012004F0CDFAB04581
:10132000D8D9A819013604F001FAF8E7982300206B
:10133000DE2300200020005200ED00E030B50A441A
:10134000084D91420DD011F8013B5840082340F35D
:101350000004013B2C4013F0FF0384EA5000F6D157
:10136000EFE730BD2083B8ED30B5002489B00B4DD8
:101370001C22214601A80094FFF792FE2022694614
:10138000281906F0C5FF30B92034B4F5A07FF5D197
:10139000012009B030BD0020FBE700BFE8020008D3
:1013A0002DE9F04FE1B00546884616461F46FFF787
:1013B000DBFF002841D1AB69482B40D1082205F161
:1013C0001C01204806F0A4FF0446002837D1DFF8AE
:1013D00078A00146DFF874901C22009001A8FFF766
:1013E0005FFE0AEB040B20226946584606F090FF88
:1013F00028B92034B4F5A07FF3D112201AE04FF4BD
:10140000B072002108A8FFF74BFE5A4605F12401EF
:1014100008A802F0EFF94246494608A802F0F0F9A0
:1014200008A83A46314602F0EBF908A802F0EAF9BA
:101430000028DED161B0BDE8F08F0020FAE711206E
:10144000F8E700BFD4830008E802000800000208A3
:10145000404A2DE9F34110686B4651686A4603C360
:1014600008233D493D4806F063FF0446002836D175
:101470000A24FFF779FF002867D0394A6B461068C5
:1014800051686A4603C308233649344806F050FFC2
:101490000546002859D00369B3F5F01F55D8418B94
:1014A00041F63A02914250D12F4A024402F1100112
:1014B0008B424AD3103B294900209E1AFFF73EFF7A
:1014C00005F11801074632460020FFF737FFAB68E9
:1014D0009F423AD1EB68984208BF002435E0036987
:1014E000B3F5F01F01D90B24C3E7B0F8661041F63D
:1014F0003A02914201D00C24BBE71B4E064406F190
:101500005C02934201D21024B3E75C3B00F1640714
:10151000324612499D1B0020FFF710FF39468046D6
:101520002A460020FFF70AFFA368984501D00D2442
:101530009FE7E3689842FAD120462B463A46314667
:10154000FFF72EFF0446002893D1204602B0BDE8E5
:10155000F08100BFC083000890FF1D00000002085A
:10156000C9830008DCFF1D000800FEF7837842787D
:101570001B04007843EA0223184370470068704751
:1015800008B50246FFF7FAFF0346101DFFF7F6FF06
:101590000146184608BD00000B0A017043700B0C91
:1015A000090E8370C170704708B501EB8202031FFA
:1015B00008460431FFF7E2FF43F8040F9142F7D1E8
:1015C00008BD000010B500EB82020C1F54F8041F88
:1015D000FFF7E2FF04309042F8D110BD2DE9F04151
:1015E00088460546FFF7CCFF06460C464046FFF707
:1015F000C7FF464005F108004C40FFF7C1FF074612
:101600000D4608F10800FFF7BBFF78406940304302
:101610002143BDE8F0810000F8B506460F46FFF70C
:10162000DDFF05460C4606F1100007F11001FFF73B
:10163000D5FF28432143F8BD2DE9F04F0368B7B02B
:10164000384CC1F1000A1A93436837491B938368E9
:10165000364D1C93C368364F1D930369DFF8F8B00D
:101660001E9343698AEA0B0B324E1F938369DFF89E
:10167000ECE02093C369DFF8E8C02193036A22936A
:10168000436A2393D0E9102362402B4C05922B4AE6
:1016900053400693836A2493C36A2593D0E91223A7
:1016A00062400D92264A5340264A0E93036B0092E5
:1016B0002693436B279381EAEA7320991793836BF0
:1016C00018912893C36B289A299300F15003119223
:1016D000299A21991292269A19910792279A1E996E
:1016E0000892249A159103921F99259A16910492B3
:1016F000DDE922421C990F911D9910911A990991C7
:101700001B990A911049CDE9015101F14F7101F581
:10171000D341583113910D4914910D49CDE90B7105
:101720000C4F1FE0D182E6ADABD9831F79217E1328
:101730002BF894FE85AE67BB1F6C3E2B7F520E517B
:101740008C68059B7488000819CDE05B3AF54FA5BD
:1017500072F36E3C3BA7CA846BBD41FB08C9BCF366
:1017600067E6096A0099097803EBC10553F831105F
:101770006D68611842EB0508099D49190A9D45EB02
:101780000808059D81EA0509069D88EA050A1AEB05
:101790000E0E4CEB090C8EEA04048CEA0202250EB4
:1017A00045EA0225120E42EA0422009C647809925E
:1017B00003EBC40253F834405268091948EB02089D
:1017C0004A190592099A48EB02020692059A82EAA2
:1017D0000A0A069A4FEA1A4182EA090941EA0942CD
:1017E00009994FEA1949349249EA0A423592349AE2
:1017F0001EEB02022A92359A4CEB02022B922A9A95
:1018000055402B9A51400A46490041EAD5716D0076
:10181000339145EAD2723292009A927803EBC20178
:1018200053F832204968039C0D9DA218049C44EB98
:10183000010E0F9912EB010A1099009A41EB0E0E5E
:101840000E9985EA0A058EEA0108039918EB070745
:1018500046EB050687EA010C74404FEA1C6141EA39
:101860000421240E44EA0C2492F803C003EBCC09B3
:1018700053F83CC0D9F804901AEB0C024EEB090E59
:1018800052180D924EEB04020E920D9A82EA08084D
:101890000E9A55404FEA184242EA05422D0C30920A
:1018A00045EA08423192309ABA182C92319A46EBA6
:1018B00002022D922C9A51402D9A5440620042EA25
:1018C000D1724900099241EAD4720492009A1279C5
:1018D00003EBC20153F832204D6807998A18089922
:1018E00041EB050515995218169941EB0505179915
:1018F00082EA0B04039285EA010A0B99009A1AEB1B
:1019000001060C9992F805E041EB040B079953F896
:101910003E8086EA010C0899039A8BEA01074FEA98
:101920001C6112EB080241EA07214FEA176747EAF8
:101930000C2703EBCE0CDCF8049045EB090552189C
:10194000159245EB07021692159A82EA0A0A169A30
:101950004FEA1A49544049EA0442240C2E9244EAC0
:101960000A42119C2F922E9AB6182F9A4BEB020B1B
:1019700071408BEA07077A0042EAD1724900089267
:1019800041EAD7720792009A917903EBC10253F8AA
:10199000311052686118129C44EB0208189A891899
:1019A000199A42EB0808019A029C4A40129F88EA61
:1019B000040E139C1EEB0405149C44EB0209119CBD
:1019C0006C4089EA070C270E47EA0C274FEA1C6C8B
:1019D0004CEA042C009CE47903EBC40A53F834402D
:1019E000DAF804A00919059C48EB0A08C9191791EF
:1019F00048EB0C011891179981EA0E0E18994FEADD
:101A00001E4A4A404AEA024A120C15EB0A0542EA0B
:101A10000E4E87EA050749EB0E0989EA0C0C4FEADE
:101A20004C0848EAD7727F00129247EADC721192A2
:101A3000009A117A03EBC10253F831105268611811
:101A4000069C44EB0208049A8918099A48EB02089C
:101A500081EA0A0A049A88EA0E0E1EEB06064BEB90
:101A60000A0B86EA0204099A270E8BEA020247EA69
:101A700002274FEA126C009A527A4CEA042C03EBCC
:101A8000C20453F832206468891848EB0408CA1964
:101A9000099248EB0C020A92099A8EEA020E0A9AFF
:101AA0008AEA020A4FEA1E4242EA0A424FEA1A4A08
:101AB00001924AEA0E420292019A92190B92029AFC
:101AC00042EB0B020C920B9A57400C9A8CEA020CD8
:101AD0004FEA4C0444EAD772359C7F00049247EAEF
:101AE000DC720392009A927A03EBC20153F832201F
:101AF0004E680D998A180E9941EB0606079912EB6C
:101B000001080899009A46EB0106349986EA040A0E
:101B100088EA0101079C1AEB050549EB010985EAF2
:101B2000040C089C89EA04074FEA1C6444EA072471
:101B30003F0E47EA0C2792F80BC003EBCC0E53F88C
:101B40003CC0DEF804E018EB0C0246EB0E0612195E
:101B50000F9246EB070210920F9A8AEA020A109A35
:101B600051404FEA1A4242EA0142090C059241EA09
:101B70000A420692059A52191392069A42EB0902FA
:101B80001492139A5440149A57407A0042EAD4723D
:101B90006400089244EAD7720792009A127B03EB22
:101BA000C20153F832204D6815998A18169941EBF5
:101BB0000505119912EB010A1299009A45EB0105EE
:101BC00030998AEA0106319985EA01072A9911EBD1
:101BD000070E2B9941EB060C11998EEA010412991C
:101BE0008CEA0108210E41EA08214FEA186848EA08
:101BF000042492F80D8003EBC80953F83880D9F813
:101C000004901AEB080245EB09055218159245EBB2
:101C100004021692159A5740169A56403A0C42EA18
:101C20000642360C0D9246EA07420E920D9A12EBCE
:101C30000E0E0E9A42EB0C0C81EA0E0184EA0C04A3
:101C40004FEA440A4AEAD1724900129241EAD47238
:101C5000179C1192009A917B03EBC10253F831104B
:101C600052686118189C44EB0208329A009C89184B
:101C7000339AE47B48EB02082E9A81EA02092F9AF4
:101C800088EA020A2C9A12EB0A072D9A42EB0906FF
:101C9000329A87EA020B339A4FEA1B65724045EA93
:101CA0000225120E42EA0B2203EBC40B53F8344018
:101CB000DBF804B0091948EB0B084919189148EBF7
:101CC0000201199118998AEA010A199989EA010908
:101CD0004FEA1A4141EA094B4FEA19491BEB070742
:101CE00049EA0A4185EA070541EB0606179182EAAF
:101CF00006014A0042EAD5726D0045EAD1740099A6
:101D000010310091009D3949A9427FF42BAD099B08
:101D10000C9D83EA0E010A9B83EA0C081A9B59402A
:101D20001B9B88EA0303C0E900130F9B13997B40B8
:101D30001F46109B73401E461C9B5F401D9B5E40D0
:101D4000159BC0E902760B9E5E40169B5D401E9B74
:101D50005E401F9B5D40189BC0E904655940199D7A
:101D6000149B83EA0508209B5940219B88EA0303C2
:101D7000C0E90613059B83EA0409069B83EA020A6D
:101D8000229B89EA0304239B8AEA0302C0E90842F2
:101D9000039B0D9A049C83EA020C0E9B259A5C40DF
:101DA000249B12998CEA03035440179AC0E90A3421
:101DB000079B83EA0B04089B83EA020A269B5C408C
:101DC000279B8AEA0302119BC0E90C42019A5A4000
:101DD000029B83EA010A289B5A40299B8AEA030353
:101DE000C0E90E2337B0BDE8F08F00BF348900088A
:101DF00070B505460E46144622B980222146503061
:101E0000FFF74EF924F00700E40004F038042844FA
:101E1000A4F12003C4F1200206FA04F406FA03F345
:101E200026FA02F21343D0E9146234431343C0E9A3
:101E3000144370BD28220021FFF732B90123242268
:101E4000002140F8043BFFF72BB90000002351F8B4
:101E5000232040F8232001330A2BF8D170470000DB
:101E6000002351F82320524240F8232001330A2B4B
:101E7000F7D17047002330B551F8234052F8235072
:101E80002C4440F8234001330A2BF5D130BD00002B
:101E9000002330B551F8234052F82350641B40F81A
:101EA000234001330A2BF5D130BD000030B552423A
:101EB000041F0439243054F8045F51F8043F84426D
:101EC00083EA050303EA020383EA05032360F2D1F0
:101ED00030BD00002DE9F04F8BB0044608460025C8
:101EE000FFF74CFB0190081DFFF740FB8301C81D65
:101EF0000093FFF73BFB4FEA401A01F10A00FFF79E
:101F000035FB4FEAC00B01F10D00FFF72FFB8600F8
:101F100001F11000FFF732FB814601F11400FFF7D9
:101F200025FB4FEAC01801F11700FFF71FFB47011F
:101F300001F11A00FFF71AFB030101F11D000493E0
:101F4000FFF714FB019A6C4B03EA800312F1007057
:101F500005934FEA906045F1000340EA83109B1619
:101F600081064FEA901C521A06926CEB4C020792C3
:101F7000009A101843F1000216F1007C45F10001AF
:101F80004FEA9C6C4CEA811C89164FEA8C634FEA3D
:101F90009C15F31A65EB450619EB0C0941F100019C
:101FA00010F1807C42F100054FEA5C6C4CEAC51CE4
:101FB0006D161AEB0C0AA0EB4C6245F1000519F105
:101FC000807008924FEA506041F1000240EAC2106E
:101FD0005216A9EB4061099118EB0001009142F102
:101FE00000021AF1007145F10005890E41EA8511E0
:101FF000AD161BEB01004FF0130B019045F10005EE
:10200000009810F1007042F10002800E40EA821048
:1020100092163F18029742F10002019F17F1807E4D
:1020200045F100054FEA5E6E4EEAC51E029D13EBB8
:102030000E0346F1000615F18077049D42F100027F
:102040007F0E039347EAC2175216ED1942F10002C0
:1020500013F1007C049546F100064FEA9C6C069B48
:102060004CEA861C15F10076059D42F10002B60E81
:1020700046EA8216921615EB060942F1000219F1A2
:10208000807542F100026D0E45EAC215A5FB0B2BCF
:10209000A9EB4565D218079B4BEB030B12F10078B7
:1020A000089B4BF1000B4FEA986848EA8B18A2EBAB
:1020B0008862226013EB08026260AAEB8162A26070
:1020C000019B6562A3EB4E61039BA3EB8C63E16014
:1020D0002361099B13EB0C036361009BA3EB8063FB
:1020E000A361029BA3EB4760049BA3EB8666E061C0
:1020F00026620BB0BDE8F08FFCFFFF012DE9F04F29
:102100000D688BB00C694FF0130B82FB055C82FBF2
:10211000044615F100774CF1000ABF0E47EA8A1712
:102120004FEAAA680AF07C4ABB064AEA971AEB1AF9
:102130004D6806936CEB0A0314F1007CC2FB057832
:10214000079346F1000E4FEA9C6C4D694CEA8E1CD9
:102150004FEAAE6A0EF07C4E4FEA8C634EEA9C1E4C
:10216000C2FB05CAE41A66EB0E0E17F1807548F142
:1021700000086D0E45EAC8154FEA6863A7EB45668F
:102180008F6808961CF18076C2FB07534AF1000A5B
:10219000760E15F1007946EACA1643F100034FEABC
:1021A0009969ACEB466749EA831909974FEA6A6A6D
:1021B0008F699B16A5EB8965C2FB076ACF680196FC
:1021C0004E46C2FB07630296019ECF6916F1007C62
:1021D0004AF1000A4FEA9C6C4CEA8A1C4FEAAA6A50
:1021E0006646C2FB076A0396029E16F1807843F1A9
:1021F00000034FEA586848EAC31814EB08044EEB92
:102200006366039B13F180770B6A496A4AF1000AFF
:102210007F0E856047EACA174FEA6A6ABE46C2FB6C
:1022200003EACDF810E014F1007E46F100034FEA16
:102230009E6E4EEA831E049B13F10076A4EB8E641F
:102240004AF10003B60E46EA83169B16B246C2FB5D
:1022500001A31AF18071CDF814A043F10003490ED7
:1022600041EAC3115B16A1FB0B2A0BFB03AA069BD9
:10227000D218079B4AEB030A12F100734AF1000AD5
:102280009B0E43EA8A13A2EB83620260089AD3187A
:102290004360029BA3EB4863C3600461099B13EB9B
:1022A0000E034361019BA3EB8C638361039BA3EB50
:1022B0004767049BA3EB8666059BC761A3EB41615F
:1022C000066241620BB0BDE8F08F00002DE9F04FCF
:1022D000A5B04FF0130E8146D1E90053D2E9008436
:1022E00008938B680EFB04F00193CB680993D1E946
:1022F00004C30A93D1E906730B93D1E908630C93E5
:1023000093680293D36804931369069353690D93FA
:1023100093690F93D3691693136A1893536A1993A9
:10232000089B5B001093099B5B0011930A9B5B0069
:1023300012930B9B5B0013930C9B5B001493029B0B
:102340000EFB03F31A93049B0EFB03FB069B0EFB91
:1023500003F317930D9B0EFB03F315930F9B0EFBDB
:1023600003F30E93169B0EFB03F30793189B0EFBD0
:1023700003F30593199B0EFB03F30393039A109B3E
:1023800083FB021A019B1A46059BC5FB081AC2FB78
:10239000031A119B1A46079BC2FB031A0E9BCCFB28
:1023A000031A129B1A46159BC2FB031A179B039A2A
:1023B000C7FB031A139BC3FB0B1A1A9BC6FB031A1A
:1023C000149BC3FB001A089B1B9188FB03300199E7
:1023D000C5FB0430C2FB013005990A460999C2FBCE
:1023E00001300799C1FB0C300E990A460A99C2FBCD
:1023F00001301599C1FB073017990A460B99C2FBAA
:1024000001301A99CBFB063002460C98C1FB003212
:102410001A93109B029983FB04301C92C5FB013078
:102420000199039AC8FB01301199C2FB013005994B
:10243000C1FB0C3007990A461299C2FB01300E9974
:10244000C1FB073015990A461399C2FB0130179951
:10245000C1FB06301499CBFB01300299CDE91D3048
:10246000089B83FB01B0049B0A99C5FB03B0019B49
:10247000C3FB04B0099BC8FB03B0039BC3FB0CB0B8
:10248000059BC3FB01B0079B0B99C3FB07B00E9BD9
:10249000C3FB01B017990C9BC2FB06B0C1FB03B094
:1024A000109B0499209083FB01310698CDF87CB0F5
:1024B000C5FB0031019802460298C2FB0031119819
:1024C000039AC0FB04311298C8FB0C31C2FB0031E7
:1024D0000598C0FB0731079802461398C2FB0031EC
:1024E0000E98C0FB0631159802461498C2FB0031C5
:1024F00006981593089B0D9A83FB00031791C5FB63
:102500000203019A9346049ACBFB0203099A93466D
:10251000029ACBFB02030A9ACCFB0403C8FB02031A
:10252000039AC2FB0703059A93460B9ACBFB02035F
:10253000079AC2FB06030E9A93460C9ACBFB020342
:102540000D9A2193109B0E9083FB02030F9AC5FBFB
:102550000203019A9346069ACBFB0203119A934613
:10256000049ACBFB0203029ACCFB0203129AC2FB31
:102570000403139A0399C8FB0703C1FB0203059ADE
:10258000C2FB0603079A9346149ACBFB02030F9AE9
:102590002293089B079083FB0203169AC5FB020354
:1025A000019A93460D9ACBFB0203099A9346069A29
:1025B000CBFB0203049ACCFB02030A9A9346029ACD
:1025C000CBFB02030B9AC7FB0403C8FB0203059A6B
:1025D000C1FB060393460C9ACBFB0203169A239386
:1025E000109B059083FB0203189AC5FB0203019A16
:1025F00093460F9ACBFB0203119A93460D9ACBFB9D
:102600000203069ACCFB0203129A9346049ACBFB70
:102610000203029AC7FB0203139AC2FB0403149A33
:10262000C8FB0603C1FB0203189A1193089B109084
:1026300083FB023219981799C5FB003201981546A1
:10264000169AC0FB0235099A0F98C2FB00350D9A05
:102650000698CCFB02350A9AC2FB0035049A029810
:10266000C7FB02350B9A159FC2FB00350C98C6FBC1
:1026700004352A461B9CC8FB003206931B9B08921C
:1026800013F100764AF10000B60E46EA801600F01B
:102690007C43B20643EA9613A21A6AEB030309923B
:1026A0000A931A9B9E191C9B43EBA060159B13F188
:1026B0000075179B4FEA956543F1000345EA8315C2
:1026C00003F07C44AA0644EA9514BA1A61EB0401AB
:1026D0000E9C6519219C44EBA36316F1807440F1B4
:1026E0000000640E44EAC014A6EB44660B961D9EDF
:1026F000341901941E9C44EB606015F1807443F121
:102700000003640E44EAC314A5EB44650C95079DD1
:102710002C190294229C44EB6363019C14F1007415
:1027200040F100004FEA94681F9C48EA801814EBBF
:10273000080B209C44EBA060029C14F10076059CE1
:1027400043F10003B60E46EA831614EB060A239CF7
:1027500044EBA3631BF1807C40F100004FEA5C6C0A
:102760004CEAC01C12EB0C0241EB60611AF180755F
:10277000109843F100036D0E039245EAC31540190A
:10278000AAEB45650490119840EB636312F1007762
:1027900041F10001BF0E47EA8117049911F100745D
:1027A000069943F10003A40E44EA83140919059124
:1027B000089941EBA363059911F1807043F100037F
:1027C000400E40EAC3105B16A0FB0E120EFB032363
:1027D000099A89180A9A43EB020311F1007E43F12A
:1027E00000034FEA9E6E4EEA831E0B9B13EB0E0313
:1027F000A1EB8E61C9F80430019BC9F80010A3EB6E
:102800008863C9F80830ABEB4C63C9F80C30039B04
:10281000A3EB8762C9F810200C9BC9F81C50DF1984
:10282000029BA3EB8666049BC9F81470A3EB846437
:10283000059BC9F81860A3EB4060C9F82040C9F8AF
:10284000240025B0BDE8F08F2DE9F04F95B0824609
:102850004FF02608D1E90262D1E9003008924FEA30
:10286000400B4FEA430ED1E904720392D1E90652BC
:1028700004920A6A05924A6A13210992720006922A
:10288000089A52000192039A52000292049A52004E
:102890000A9201FB05F20B92049A08FB02F20792DE
:1028A000059A01FB02F9099A039908FB02F208FB59
:1028B00001F88BFB021CC3FB031C7300C3FB091C48
:1028C000019B1C46079BC4FB031C0B9C7B00C3FBAA
:1028D000041C039BC3FB081C82FB06380C91019966
:1028E000CEFB0038C9FB01380799C1FB07380299B4
:1028F0000C460B99C1FB04380D938BFB00310198FA
:10290000CEFB0631C2FB00317800C9FB00310798CD
:1029100004460298C4FB00310B98C0FB05310898AF
:102920000E910B938BFB0631CEFB00310298C2FB5C
:102930000731C9FB0031C4FB0531CDE90F31019BE3
:10294000680002998BFB0334CEFB0734C6FB0634C8
:10295000C2FB01340799C9FB00340498C1FB003461
:102960008BFB07160793039B0898C3FB0E16069B69
:10297000C3FB00160A98C2FB05160B463146C9FB7D
:102980000031CDE91131029B8BFB0310069BCEFB7E
:102990000510C3FB0710019B1E46089BC6FB0310D6
:1029A0000A9BC2FB0310059B0E46C9FB03608BFB11
:1029B00005130896049ECEFB0613069EB146039EA1
:1029C000C9FB0613019EC6FB0713059E894606999F
:1029D000C2FB069313930A9BCDF80C908BFB0393D9
:1029E000CEFB0693C1FB0593DDE90116C1FB0693FF
:1029F0000999C7FB0793C2FB01930A93059B0E46F7
:102A00008BFB0312069BCEFB0612049EC3FB061231
:102A1000019BC3FB0512029D0E461346C7FB0563CF
:102A200006930C9B0C9D13F1007E05964CF1000162
:102A30004FEA9E6E4EEA811E01F07C434FEA8E62A1
:102A400043EA9E13AD1A6CEB03030995079D0C93A3
:102A50000D9B13EB0E0E079B48EBA16813F1007C56
:102A600044F100034FEA9C6C4CEA831C03F07C4168
:102A70004FEA8C6241EA9C11AA1A64EB0104119995
:102A800011EB0C0C129941EBA3631EF1807648F117
:102A90000001760E46EAC116AEEB466507950B9D22
:102AA000AD1901950E9D45EB61611CF1807E43F1EE
:102AB00000064FEA5E6343EAC613ACEB43650B9531
:102AC000089DEB18029340EB6663019810F10076C5
:102AD0000F9841F100014FEA966848EA811810EB1F
:102AE000080B109840EBA161029810F1007643F1B9
:102AF0000000B60E039B46EA80169B190393139BB6
:102B000043EBA0631BF1807C41F100004FEA5C6C59
:102B10004CEAC01C12EB0C0244EB60610398049277
:102B200010F180750A9843F100036D0E45EAC31554
:102B300019EB050940EB636312F100774FF01302C4
:102B400041F1000119F100744FEA976743F1000366
:102B5000A40E47EA8117059944EA83140919A9EBE1
:102B600084640591069941EBA363059911F1807086
:102B700043F10003400E40EAC3105B16A0FB021EA7
:102B800002FB03E3099A89180C9A43EB020311F143
:102B9000007E43F100034FEA9E6E4EEA831E079BC0
:102BA00013EB0E03A1EB8E61CAF80430019BCAF847
:102BB0000010A3EB8863CAF80830ABEB4C63CAF88B
:102BC0000C30049BA3EB87620B9BDF19CAF8102023
:102BD000CAF81470029BCAF82040A3EB8666039BD8
:102BE000A3EB4565059BCAF81860A3EB4060CAF8E3
:102BF0001C50CAF8240015B0BDE8F08F0029A1BF11
:102C0000CB1001F00701C05C40FA01F1ACBF01F04C
:102C1000010000207047000070B500F11C02041F85
:102C2000084E0120002556F8041B54F8043FC94300
:102C30005B1845EB05011B1841F10000A242F2D1DF
:102C400070BD00BFDC830008F8B5002406460846C6
:102C50000D46FFF7E1FFDFF834C00246C117C0F1AF
:102C6000000E20465CF8043B55F824702EEA03035E
:102C7000DB1940EB00079B1846F8243004F10104EF
:102C800041EB07020021082CECD1F8BDDC830008E1
:102C900010B50446FFF7CEF804F12800FFF7CEF890
:102CA00004F15000FFF7CAF804F17800BDE81040C5
:102CB000FFF7C0B838B50A4605460C462831FFF77D
:102CC000D9F82830FFF7E4F804F1500105F150007D
:102CD000FFF7BCF804F1780105F17800024ABDE87D
:102CE0003840FFF7F3BA00BF248400082DE9F04311
:102CF00095B0044616460D460A466846283104F14A
:102D00002808FFF7B7F80AA8FFF7C2F83246694665
:102D10006846FFF7DBFA0AA906F1280204F150071A
:102D2000084604F17809FFF7D1FA0AAA6946404635
:102D3000FFF7A0F82046FFF7ABF805F15002384640
:102D40001146FFF797F806F150023946FFF7BEFA31
:102D500006F1780205F178014846FFF7B7FA4A46CE
:102D600039466846FFF786F80AA8FFF791F8424609
:102D700021464846FFF7AAFA0AAA21462046FFF74D
:102D8000A5FA6A4641464046FFF7A0FA0AAA6946F4
:102D90003846FFF79BFA15B0BDE8F0832DE9F84FF0
:102DA0000A9E1C460546904618460F460A4628319C
:102DB000FFF760F8304605F1280AFFF769F8424648
:102DC0002146204605F15009FFF780FA08F1280254
:102DD00031463046FFF77AFA324621465046FFF731
:102DE00049F82846FFF754F807F1500205F1780B2F
:102DF00048461146FFF73EF808F1500207F1780106
:102E00005846FFF763FA5A4649462046FFF732F81C
:102E10003046FFF73DF8524629465846FFF756FA26
:102E2000324629462846FFF751FA22465146504677
:102E3000FFF74CFA324621464846BDE8F84FFFF707
:102E400045BA00002DE9F04714468946074610466A
:102E500004F1280809F1280A04F15005FFF7F4FCF1
:102E600051464046FFF7F0FC09F15001284604F1B5
:102E70007806FFF7E9FC294628460222FFF73EF9CB
:102E8000494607F1780952463046FEF7F3FF3146CE
:102E90004846FFF7D9FC224641463046FEF7EAFF96
:102EA0004046FEF7F5FF324649462046FEF7F0FF62
:102EB000424629462846FEF7EBFF2A462146384679
:102EC000FFF704FA4246314607F12800FFF7FEF902
:102ED0002A46414607F15000FFF7F8F932462146ED
:102EE0004846BDE8F047FFF7F1B9000038B5FC22CD
:102EF00004460D4611462846FFF780FE08B9013A00
:102F0000F8D14FF6FF7301322380E270A37038BD11
:102F10002DE9F84F9846C37805460E4693420CD1EA
:102F200011464046571EFFF769FE044640463946A3
:102F3000FFF764FE844209D1EF70B5F90030934287
:102F40000CBF95F902000020BDE8F88F511C4FF02E
:102F500000098E42A8BF0E4606F1FF3A971B04FAFD
:102F60000AF4BB466442CA450BF1010B09DD594620
:102F70004046FFF743FE00FA09F009F10109044455
:102F8000F1E739464046FFF739FE044463422340E7
:102F900013F0AA0F14BF0120002013F0CC0118BFBA
:102FA000022113F0F00340EA010018BF0423511C72
:102FB00003438E1B1E4444FA03F32E80AB70BBE721
:102FC000D0E9103210B5D0F8D04000211B1952F1D1
:102FD000000228BF0121C0E9103231B1D0E912321C
:102FE000013342F10002C0E9123210BD70B50D4646
:102FF000A0F1080600F1780428460835FEF7C0FA6B
:10300000E6E90201A642F7D170BD0000F8B504461A
:103010000D468E180027B54218D0D4F8D030802B3A
:1030200007D12046FFF7CCFF0021FEF705FBC4F8CF
:10303000D070D4F8D020204615F8011BFEF7D8FE3A
:10304000D4F8D0300133C4F8D030E4E7F8BD000044
:1030500008B5FEF7E1FA0843B0FA80F040090138FC
:1030600008BD000000231A468B4202D0C25401332F
:10307000FAE7704770B59EB005460C4604266846D0
:10308000FFF7E2FB69460AA8FFF7DEFB0AA908463C
:10309000FFF7DAFB0AAA21461046FFF717F90AAA3A
:1030A00069466846FFF712F969466846FFF7CCFBA8
:1030B0006A460AA96846FFF709F969460AA8FFF7B0
:1030C000C3FB0AA90846FFF7BFFB013EF9D16A46D8
:1030D0000AA968460926FFF7F9F869460AA8FFF722
:1030E000B3FB0AA90846FFF7AFFB013EF9D10AA9D5
:1030F0006A4613260846FFF7E9F80AA914A8FFF75D
:10310000A3FB14A90846FFF79FFB013EF9D10AAAC9
:1031100014A909261046FFF7D9F80AA90846FFF7AF
:1031200093FB0AA90846FFF78FFB013EF9D16A46D7
:103130000AA968463126FFF7C9F869460AA8FFF7C9
:1031400083FB0AA90846FFF77FFB013EF9D10AA9D4
:103150006A4663260846FFF7B9F80AA914A8FFF7DC
:1031600073FB14A90846FFF76FFB013EF9D10AAAC9
:1031700014A931261046FFF7A9F80AA90846FFF757
:1031800063FB0AA90846FFF75FFB013EF9D16A46D7
:103190000AA96846FFF79AF869466846FFF754FBA4
:1031A00069466846FFF750FB224669462846FFF706
:1031B0008DF828216846FFF755FF0DEB0100FFF75A
:1031C00051FF14A8FFF74EFF1EB070BD10B58CB0B4
:1031D000044602A80191FFF74DFF02A90846FFF738
:1031E00033FB02A90846FFF72FFB02A9019A084604
:1031F000FFF76CF802A90846FFF726FB019A02A91F
:103200002046FFF763F8282102A8FFF72BFF0CB038
:1032100010BD000070B58AB002460B4601F12806C9
:103220006D461868083353F8041C2C46B34203C497
:103230002546F6D11321099B684600244B43694675
:1032400003F180735B160568013408302B4450F895
:10325000045C052C05EBA3634FEA6363F3D11320F1
:10326000002443430868013408310344052C23F04B
:103270007C4041F8080C51F8040C00EBA3604FEAC5
:10328000606320F07E4041F8040CEBD11046DDE98C
:10329000003143EA8161FEF77FF90299019B101D1D
:1032A000C90441EA9311FEF777F90399029B02F1F1
:1032B0000800490341EA5331FEF76EF90499039B74
:1032C00002F10C00890141EAD341FEF765F902F1F0
:1032D0001000DDE9053143EA4161FEF75DF9079928
:1032E000069B02F11400C90441EAD311FEF754F918
:1032F0000899079B02F11800090341EA5331FEF7D0
:103300004BF90999089B02F11C00890141EA13510C
:10331000FEF742F928216846FFF7A4FE0AB070BD07
:103320002DE9F04F2DED028B9DB00C46642200215B
:1033300008EE100A03A8FDF7B3FE0DF10C080022F9
:10334000DFF8E0E0414604F13C099246CDF8008008
:103350005EF8043B251F8C4600269846284650F808
:10336000047FD346DCF800300197019FE8FB073B60
:103370009B194BF1000681454CF8043BEFD101321B
:103380000E640431092AE3D10021202203A8FDF7AD
:1033900087FE002103AB8E461A6C0020DFF888A060
:1033A0009C4690460646C1F108095AF8047BF3464C
:1033B000DCF8002001300197019FE8FB072B9219F0
:1033C0004BF1000648454CF8042BEED30131043391
:1033D0000829E1D11C3401210020009B1A6855F80E
:1033E000043FD2439B1840EB00025B18009941F860
:1033F000043B009142F10001A542EED103A9084629
:10340000FFF722FC082203A918EE100AFEF7DAF8EB
:10341000642103A8FFF726FE1DB0BDEC028BBDE8BA
:10342000F08F00BF34890008DC83000810B588B035
:1034300001466846FFF7EEFE9DF8004068462021F1
:1034400004F00104FFF70EFE204608B010BD000096
:1034500030B59FB00D46044650316846FFF7B6FEC2
:103460006A4629460AA8FEF731FF6A4605F1280197
:1034700014A8FEF72BFF14A92046FFF7CBFE0AA8DD
:10348000FFF7D4FFE37F282183EAC010E077684686
:10349000FFF7E8FD0DEB0100FFF7E4FD14A8FFF7CF
:1034A000E1FD1FB030BD000010B590B00446102201
:1034B00001466846FEF778F869462046FFF730FF78
:1034C00040216846FFF7CEFD10B010BD10B590B09A
:1034D0000C4601466846FFF79DFE214608A8FFF707
:1034E00099FE08A96846FFF7B3FD20210446684607
:1034F000FFF7B8FD0DEB0100FFF7B4FD601C10B045
:1035000010BD0000F0B595B004466846FEF79EFC7D
:1035100069462046FFF7AEFD21460AA8FFF794F959
:103520000AA96A460846FEF7D1FE6846FEF786FC01
:1035300069460AA8FFF7CAFF694606466846FEF7CD
:103540008FFC0AA8FFF7C2FF104A054668461146DD
:10355000FEF786FC69460AA8FFF7B8FF0746214632
:1035600068460A4AFEF7B2FE45EA07026946204667
:10357000FEF79CFC28210DEB0100FFF773FD684668
:10358000FFF770FD46EA050015B0F0BD8C84000819
:10359000DFF880C02DE9F0419046A0B004460E4609
:1035A0001D4600F108070CF138026346083703CBCB
:1035B000934247F8080C47F8041C9C46F5D186EA6C
:1035C0000522124B0021534000222360104B636000
:1035D0000023C4E93416C4E91023C4E912238DB1D1
:1035E0007C2201A80091FDF75BFD2A464146684612
:1035F000FDF730FD694604F15000FFF7F7FC80232A
:10360000C4F8D03020B0BDE8F08100BF08C9BDF2D9
:1036100067E6096A54840008002340211A46FFF730
:10362000B7BF00008830FFF7F7BF00002DE9F04773
:1036300004460D4617469AB3D0F8D0604FF0000A02
:1036400004F150094FF08008764206F07F0696425A
:1036500028BF164632463544BE1BFFF7D7FC26F07E
:103660007F072F44AF4213D0D4F8D030802B07D13E
:103670002046FFF7A5FC0021FDF7DEFFC4F8D0A02F
:1036800029464846FFF7B2FC8035C4F8D080E9E708
:1036900006F07F0239462046BDE8F047FFF7B6BC8A
:1036A000BDE8F0878830FFF7C1BF00002DE9F8437F
:1036B00004460D46D0F8D0607F2E06D83246002151
:1036C00020460136FEF794FBF6E72046A4F10807F2
:1036D000FFF776FC0121FDF7AFFFD4F8D4202E468A
:1036E00022F00708A84446450CD057F8081F30467A
:1036F000D7F80490FDF750FF301D08364946FDF716
:103700004BFFF0E722F00703D4F8D4209A4217D9F0
:1037100003F0070223F00700DE08D100204454F82C
:1037200036204768C1F12006A1F12000CA4007FAFF
:1037300006F627FA00F032430243EA540133E3E786
:103740002046D821BDE8F843FFF78CBC8830FFF74E
:10375000ADBF000010B5B6B004466846FFF718FFCD
:103760006846DDE93812FFF761FF21466846FFF73A
:103770009DFF36B010BD0000002307B5CDE9001253
:103780001A464021FFF7E6FF03B05DF804FB000096
:1037900003689B68184700002DE9F0410E46044677
:1037A00015460139024606F13F0042F8043B11F884
:1037B000017F814202F8017BF9D16A1E04F16401A4
:1037C00005F11F0012F8017F824201F8017BF9D157
:1037D00020465B6898472368314620469B68202234
:1037E00098472368294620469B682022BDE8F0417F
:1037F00018470000014BFFF7CFBF00BF58890008F2
:10380000FFF7C6BF2DE9F04F8046ADF56F7D054649
:1038100058F8043B16A905F1240A05F16409DB6890
:1038200026AC984716A8FFF73FFE0822514604A889
:10383000FDF7BAFE494630A8FEF74CFB3AA8FEF762
:10384000FDFA30A944A8FEF7FFFF864A44A92046A6
:10385000FEF73CFD44A93AAA0846FEF719FB2046AC
:103860002146FEF707FB44A92246FEF72FFD21461D
:103870002046FFF747FE28B94FF0FF300DF56F7D6A
:10388000BDE8F08F224644A92046FEF71FFD2046E2
:10389000FFF7CCFD95F88330B0EBD31F03D0214662
:1038A0002046FEF7DDFA44A830AA2146FEF70EFDB9
:1038B00004A8FFF7B1F90028DED121462046FEF723
:1038C000CFFA44A94EAF0846FEF7CAFA76AA2146B7
:1038D0003846FFF7B7FA21469EA8FFF7EBF99EAAF4
:1038E000394676A8FFF702FA76A9C6A8FFF7E2F9EB
:1038F00016A902A8FFF7FAFA03A85146FFF7F6FA4D
:103900009DF80B609DF80F3020469E4238BF1E4642
:10391000FFF7BEF93A4621462046FFF793FA16AB69
:103920003246032102A8FFF7F3FA05465346052164
:1039300003A8FFF7EDFA002D834623DD6D10A022CA
:103940009EAB02FB053221462046FFF7CFF9BBF1C3
:10395000000F3ADD76AB44494FEA6B0B78220093B7
:10396000204602FB0B120CAB2146FFF717FA013E73
:10397000D0D226A94846FFF76BFD49464046FFF7DF
:1039800067FB7BE7E3D005EBD5756FF09F019EAB3E
:1039900080A86D104D435919FEF758FA9EAB05F1FA
:1039A000280176A81944FEF751FA9EAB05F15001A3
:1039B0008AA81944FEF74AFA9EAB05F1780194A84B
:1039C0001944FEF74DFA76AABDE7D0D00BEBDB73B6
:1039D000254A6FF0770530A95B100CA803FB05257D
:1039E0002246FEF747FA76A8FEF752FA0CA905F12F
:1039F00028020846FEF76AFC76A92A460846FEF722
:103A000065FC76AA0CA930A8FEF734FA2046FEF72A
:103A10003FFA3AAA11461046FEF72CFA44A905F1DE
:103A200050020846FEF752FC44AA3AA90CA8FEF739
:103A30002FFA76A8FEF71EFA30AA214644A8FEF710
:103A400045FC76AA21462046FEF740FC30A90CAA88
:103A50000846FEF73BFC76AA0CA93AA8FEF736FC0E
:103A600085E700BFFC830008B484000808B5074B55
:103A7000074A196801F03D01996053680BB19068DD
:103A80009847BDE8084002F039B900BF0000024085
:103A9000E023002008B5084B1968890901F03D01B1
:103AA0008A019A60054AD3680BB110699847BDE84E
:103AB000084002F023B900BF00000240E0230020CC
:103AC00008B5084B1968090C01F03D010A049A6019
:103AD000054A53690BB190699847BDE8084002F068
:103AE0000DB900BF00000240E023002008B5084BDC
:103AF0001968890D01F03D018A059A60054AD3696C
:103B00000BB1106A9847BDE8084002F0F7B800BF53
:103B100000000240E023002008B5074B074A59681F
:103B200001F03D01D960536A0BB1906A9847BDE836
:103B3000084002F0E3B800BF00000240E02300208C
:103B400008B5084B5968890901F03D018A01DA601E
:103B5000054AD36A0BB1106B9847BDE8084002F0E4
:103B6000CDB800BF00000240E023002008B5084B9C
:103B70005968090C01F03D010A04DA60054A536BEB
:103B80000BB1906B9847BDE8084002F0B7B800BF92
:103B900000000240E023002008B5084B5968890D59
:103BA00001F03D018A05DA60054AD36B0BB1106C58
:103BB0009847BDE8084002F0A1B800BF00000240ED
:103BC000E023002008B5074B074A196801F03D01C2
:103BD0009960536C0BB1906C9847BDE8084002F0B7
:103BE0008DB800BF00040240E023002008B5084B58
:103BF0001968890901F03D018A019A60054AD36C70
:103C00000BB1106D9847BDE8084002F077B800BFCF
:103C100000040240E023002008B5084B1968090C95
:103C200001F03D010A049A60054A536D0BB1906D95
:103C30009847BDE8084002F061B800BF00040240A8
:103C4000E023002008B5084B1968890D01F03D01FB
:103C50008A059A60054AD36D0BB1106E9847BDE88E
:103C6000084002F04BB800BF00040240E0230020EF
:103C700008B5074B074A596801F03D01D960536EFA
:103C80000BB1906E9847BDE8084002F037B800BF0E
:103C900000040240E023002008B5084B5968890958
:103CA00001F03D018A01DA60054AD36E0BB1106F55
:103CB0009847BDE8084002F021B800BF0004024068
:103CC000E023002008B5084B5968090C01F03D01BC
:103CD0000A04DA60054A536F0BB1906F9847BDE84C
:103CE000084002F00BB800BF00040240E0230020AF
:103CF00008B5084B5968890D01F03D018A05DA6065
:103D0000054AD36F13B1D2F880009847BDE8084048
:103D100001F0F4BF00040240E023002000230C491E
:103D200010B51A460B4C0B6054F82300026001EBEF
:103D3000430004334260402BF6D1074A4FF0FF3373
:103D40009360D360C2F80834C2F80C3410BD00BFD1
:103D5000E02300206C890008000002400F28F8B51D
:103D600010D9102810D0112811D0122808D10F24F2
:103D70000720DFF8C8E00126DEF80050A04208D98D
:103D8000002653E00446F4E70F240020F1E707245F
:103D9000FBE706FA00F73D424AD1264C4FEA001CE9
:103DA0003D4304EB00160EEBC000CEF80050C0E916
:103DB0000123FBB273B12048D0F8D83043F001039F
:103DC000C0F8D830D0F8003143F00103C0F800311A
:103DD000D0F8003117F47F4F0ED01748D0F8D83004
:103DE00043F00203C0F8D830D0F8003143F00203AA
:103DF000C0F80031D0F8003154F80C00036823F00B
:103E00001F030360056815F00105FBD104EB0C03EB
:103E10003D2493F80CC05F6804FA0CF43C60212444
:103E20000560446112B1987B00F0D0F93046F8BDCE
:103E30000130A3E76C89000800440258E023002009
:103E400010B5302484F31188FFF788FF002383F333
:103E5000118810BD10B50446807B00F0CDF9012318
:103E60001549627B03FA02F20B6823EA0203DAB215
:103E70000B6072B9114AD2F8D81021F00101C2F8D2
:103E8000D810D2F8001121F00101C2F80011D2F8C7
:103E9000002113F47F4F0ED1084BD3F8D82022F025
:103EA0000202C3F8D820D3F8002122F00202C3F89E
:103EB0000021D3F8003110BDE02300200044025857
:103EC00008B5302383F31188FFF7C4FF002383F381
:103ED000118808BD026843681143016003B11847A7
:103EE00070470000024A136843F0C0031360704734
:103EF00000480040024A136843F0C0031360704753
:103F000000500040024A136843F0C003136070473A
:103F100000780040064BD3F8E8200243C3F8E820BD
:103F2000D3F810211043C3F81001D3F810317047B3
:103F30000044025837B5274C274D204600F006FBB9
:103F400004F11400009400234FF40072234900F0A0
:103F5000C3F94FF40072224904F138000094214B58
:103F600000F03CFA204BC4E91735204C204600F005
:103F7000EDFA04F11400009400234FF400721C4980
:103F800000F0AAF94FF400721A4904F138000094C5
:103F9000194B00F023FA194BC4E91735184C204689
:103FA00000F0D4FA04F1140000234FF40072154914
:103FB000009400F091F9144B4FF40072134904F18E
:103FC0003800009400F00AFA114BC4E9173503B029
:103FD00030BD00BF6424002000E1F505A8250020C5
:103FE000A82B0020E53E000800480040D024002017
:103FF000A8270020A82D0020F53E00080050004012
:104000003C250020A8290020053F0008A82F0020FB
:104010000078004038B5264D0446037C002918BFBF
:104020000D46012B06D1234B984230D14FF480200E
:10403000FFF770FF2A68236EE16D03EB5203A5665C
:10404000B3FBF2F36A68100442BF23F0070003F0E9
:10405000070343EA4003CB60AB6843F040034B6087
:10406000EB6843F001038B6042F4967343F0010365
:104070000B604FF0FF330B62510505D512F0102293
:1040800011D0B2F1805F10D084F8643038BD0A4B93
:10409000984205D0094B9842CCD14FF08040C7E7F9
:1040A0004FF48010C4E77F23EEE73F23ECE700BF27
:1040B0006C8A000864240020D02400203C250020C5
:1040C0002DE9F047C66D05463768F469210734626B
:1040D0001AD014F0080118BF4FF48071E20748BFEE
:1040E00041F02001A3074FF0300348BF41F04001E9
:1040F000600748BF41F0800183F31188281DFFF756
:10410000E9FE002383F31188E2050AD5302383F307
:1041100011884FF48061281DFFF7DCFE002383F334
:1041200011884FF030094FF0000A14F0200838D100
:104130003B0616D54FF0300905F1380A200610D598
:1041400089F31188504600F07DF9002836DA0821FD
:10415000281DFFF7BFFE27F080033360002383F3A1
:104160001188790614D5620612D5302383F311889D
:10417000D5E913239A4208D12B6C33B127F04007BD
:104180001021281DFFF7A6FE3760002383F3118856
:10419000E30618D5AA6E1369ABB15069BDE8F047C4
:1041A000184789F31188736A284695F864101940F6
:1041B00000F0E6F98AF31188F469B6E7B06288F393
:1041C0001188F469BAE7BDE8F0870000090100F141
:1041D0006043012203F56143C9B283F8001300F084
:1041E0001F039A4043099B0003F1604303F56143B9
:1041F000C3F880211A60704700F01F0301229A4023
:10420000430900F160409B0000F5614003F1604309
:1042100003F56143C3F88020C3F88021002380F8B0
:1042200000337047F8B51546826804460B46AA422B
:1042300000D28568A1692669761AB5420BD2184664
:104240002A46FCF707FFA3692B44A3612846A3680D
:104250005B1BA360F8BD0CD9AF1B18463246FCF7B8
:10426000F9FE3A46E1683044FCF7F4FEE3683B446B
:10427000EBE718462A46FCF7EDFEE368E5E70000A9
:1042800083689342F7B50446154600D28568D4E9A1
:104290000460361AB5420BD22A46FCF7DBFE63698E
:1042A0002B4463612846A3685B1BA36003B0F0BD89
:1042B0000DD93246AF1B0191FCF7CCFE01993A466D
:1042C000E0683144FCF7C6FEE3683B44E9E72A4670
:1042D000FCF7C0FEE368E4E710B50A440024C361BC
:1042E000029B8460C16002610362C0E90000C0E912
:1042F000051110BD08B5D0E90532934201D182689D
:1043000082B98268013282605A1C426119700021B0
:10431000D0E904329A4224BFC368436100F0F0FE42
:10432000002008BD4FF0FF30FBE7000070B53023E0
:1043300004460E4683F31188A568A5B1A368A26957
:10434000013BA360531CA36115782269934224BFEB
:10435000E368A361E3690BB120469847002383F328
:104360001188284607E03146204600F0B9FE0028B3
:10437000E2DA85F3118870BD2DE9F74F04460E4649
:1043800017469846D0F81C904FF0300A8AF31188EF
:104390004FF0000B154665B12A4631462046FFF71F
:1043A00041FF034660B94146204600F099FE0028CF
:1043B000F1D0002383F31188781B03B0BDE8F08FA0
:1043C000B9F1000F03D001902046C847019B8BF341
:1043D0001188ED1A1E448AF31188DCE7C160C361BD
:1043E000009B82600362C0E905111144C0E900002E
:1043F00001617047F8B504460D461646302383F335
:104400001188A768A7B1A368013BA36063695A1C20
:1044100062611D70D4E904329A4224BFE36863618B
:10442000E3690BB120469847002080F3118807E02C
:104430003146204600F054FE0028E2DA87F3118866
:10444000F8BD0000D0E9052310B59A4201D1826879
:104450007AB982680021013282605A1C82611C781C
:1044600003699A4224BFC368836100F049FE204675
:1044700010BD4FF0FF30FBE72DE9F74F04460E4625
:1044800017469846D0F81C904FF0300A8AF31188EE
:104490004FF0000B154665B12A4631462046FFF71E
:1044A000EFFE034660B94146204600F019FE0028A1
:1044B000F1D0002383F31188781B03B0BDE8F08F9F
:1044C000B9F1000F03D001902046C847019B8BF340
:1044D0001188ED1A1E448AF31188DCE702684368EC
:1044E0001143016003B11847704700001430FFF713
:1044F00043BF00004FF0FF331430FFF73DBF000013
:104500003830FFF7B9BF00004FF0FF333830FFF706
:10451000B3BF00001430FFF709BF00004FF0FF31B8
:104520001430FFF703BF00003830FFF763BF00000F
:104530004FF0FF323830FFF75DBF0000012914BF94
:104540006FF0130000207047FFF7F4BC044B0360CA
:1045500000234360C0E9023301230374704700BFA6
:10456000848A000810B53023044683F31188FFF7CE
:1045700051FD02230020237480F3118810BD000038
:1045800038B5C36904460D461BB904210844FFF73A
:10459000A5FF294604F11400FFF7ACFE002806DA57
:1045A000201D4FF40061BDE83840FFF797BF38BDCC
:1045B000026843681143016003B118477047000067
:1045C00013B5406B00F58054D4F8A4381A681178FC
:1045D000042914D1017C022911D1197901231289EE
:1045E0008B4013420BD101A94C3002F077FAD4F87A
:1045F000A4480246019B2179206800F0DFF902B04F
:1046000010BD0000143002F0F9B900004FF0FF3384
:10461000143002F0F3B900004C3002F0CBBA0000C5
:104620004FF0FF334C3002F0C5BA0000143002F0F6
:10463000C7B900004FF0FF31143002F0C1B90000DB
:104640004C3002F097BA00004FF0FF324C3002F0CD
:1046500091BA00000020704710B500F58054D4F8DE
:10466000A4381A681178042917D1017C022914D1C1
:104670005979012352898B4013420ED1143002F034
:1046800059F9024648B1D4F8A4484FF4407361790F
:104690002068BDE8104000F07FB910BD406BFFF707
:1046A000DBBF0000704700007FB5124B01250426D8
:1046B000044603600023057400F184024360294628
:1046C000C0E902330C4B0290143001934FF4407355
:1046D000009602F00BF9094B04F69442294604F1C6
:1046E0004C000294CDE900634FF4407302F0D2F91C
:1046F00004B070BDAC8A00089D460008C1450008A2
:104700000A68302383F311880B790B3342F82300B6
:104710004B79133342F823008B7913B10B3342F8F2
:10472000230000F58053C3F8A4180223037400206B
:1047300080F311887047000038B5037F044613B139
:1047400090F85430ABB90125201D0221FFF730FF4E
:1047500004F114006FF00101257700F0DDFC04F195
:104760004C0084F854506FF00101BDE8384000F06F
:10477000D3BC38BD10B5012104460430FFF718FF43
:104780000023237784F8543010BD000038B5044668
:104790000025143002F0C2F804F14C00257702F035
:1047A00091F9201D84F854500121FFF701FF2046A4
:1047B000BDE83840FFF750BF90F8803003F0600349
:1047C000202B06D190F881200023212A03D81F2A0C
:1047D00006D800207047222AFBD1C0E91D3303E030
:1047E000034A426707228267C3670120704700BF00
:1047F0003C22002037B500F58055D5F8A4381A685A
:10480000117804291AD1017C022917D119790123C1
:1048100012898B40134211D100F14C04204602F062
:1048200011FA58B101A9204602F058F9D5F8A44868
:104830000246019B2179206800F0C0F803B030BD2A
:1048400001F10B03F0B550F8236085B004460D4626
:10485000FEB1302383F3118804EB8507301D082156
:10486000FFF7A6FEFB6806F14C005B691B681BB1F5
:10487000019002F041F9019803A902F02FF90246D4
:1048800048B1039B2946204600F098F8002383F3A3
:10489000118805B0F0BDFB685A691268002AF5D08E
:1048A0001B8A013B1340F1D104F18002EAE70000CA
:1048B000133138B550F82140ECB1302383F311881F
:1048C00004F58053D3F8A4281368527903EB8203CC
:1048D000DB689B695D6845B104216018FFF768FEDD
:1048E000294604F1140002F02FF82046FFF7B4FE29
:1048F000002383F3118838BD7047000001F0FCBA33
:1049000001234022002110B5044600F8303BFCF79B
:10491000C7FB0023C4E9013310BD000010B53023EC
:10492000044683F311882422416000210C30FCF7F7
:10493000B7FB204601F002FB02230020237080F326
:10494000118810BD70B500EB8103054650690E4615
:104950001446DA6018B110220021FCF7A1FBA0690F
:1049600018B110220021FCF79BFB31462846BDE818
:10497000704001F0E9BB000083682022002103F0B1
:10498000011310B5044683601030FCF789FB204604
:10499000BDE8104001F064BCF0B4012500EB8104D7
:1049A00047898D40E4683D43A46945812360002325
:1049B000A2606360F0BC01F081BC0000F0B401258E
:1049C00000EB810407898D40E4683D4364690581FB
:1049D00023600023A2606360F0BC01F0F7BC00001C
:1049E00070B5022300250446242203702946C0F82E
:1049F00088500C3040F8045CFCF752FB204684F8E9
:104A0000705001F035FB63681B6823B129462046CE
:104A1000BDE87040184770BD0378052B10B50446FB
:104A20000AD080F88C300523037043681B680BB1F3
:104A3000042198470023A36010BD000001780529D8
:104A400006D190F88C20436802701B6803B11847A8
:104A50007047000070B590F87030044613B1002321
:104A600080F8703004F18002204601F01DFC63687C
:104A70009B68B3B994F8803013F0600535D00021FD
:104A8000204601F00FFF0021204601F0FFFE636881
:104A90001B6813B1062120469847062384F870301E
:104AA00070BD204698470028E4D0B4F88630A26F45
:104AB0009A4288BFA36794F98030A56F002B4FF00E
:104AC000300380F20381002D00F0F280092284F887
:104AD000702083F3118800212046D4E91D23FFF7BD
:104AE0006DFF002383F31188DAE794F8812003F047
:104AF0007F0343EA022340F20232934200F0C58072
:104B000021D8B3F5807F48D00DD8012B3FD0022BA0
:104B100000F09380002BB2D104F188026267022278
:104B2000A267E367C1E7B3F5817F00F09B80B3F52F
:104B3000407FA4D194F88230012BA0D1B4F8883002
:104B400043F0020332E0B3F5006F4DD017D8B3F550
:104B5000A06F31D0A3F5C063012B90D863682046C5
:104B600094F882205E6894F88310B4F88430B047DB
:104B7000002884D0436863670368A3671AE0B3F52D
:104B8000106F36D040F6024293427FF478AF5C4B10
:104B900063670223A3670023C3E794F88230012BE5
:104BA0007FF46DAFB4F8883023F00203A4F88830A6
:104BB000C4E91D55E56778E7B4F88030B3F5A06F18
:104BC0000ED194F88230204684F88A3001F0AEFA93
:104BD00063681B6813B101212046984703232370A3
:104BE0000023C4E91D339CE704F18B0363670123B1
:104BF000C3E72378042B10D1302383F31188204698
:104C0000FFF7BAFE85F311880321636884F88B509F
:104C100021701B680BB12046984794F88230002B16
:104C2000DED084F88B300423237063681B68002B6C
:104C3000D6D0022120469847D2E794F88430204607
:104C40001D0603F00F010AD501F020FB012804D056
:104C500002287FF414AF2B4B9AE72B4B98E701F017
:104C600007FBF3E794F88230002B7FF408AF94F849
:104C7000843013F00F01B3D01A06204602D501F09C
:104C800029FEADE701F01AFEAAE794F88230002B66
:104C90007FF4F5AE94F8843013F00F01A0D01B061A
:104CA000204602D501F0FEFD9AE701F0EFFD97E7FF
:104CB000142284F8702083F311882B462A46294653
:104CC0002046FFF769FE85F31188E9E65DB11522FC
:104CD00084F8702083F3118800212046D4E91D2335
:104CE000FFF75AFEFDE60B2284F8702083F311884B
:104CF0002B462A4629462046FFF760FEE3E700BF21
:104D0000DC8A0008D48A0008D88A000838B590F8F0
:104D100070300446002B3ED0063BDAB20F2A34D85E
:104D20000F2B32D8DFE803F037313108223231312E
:104D30003131313131313737856FB0F886309D42AE
:104D400014D2C3681B8AB5FBF3F203FB12556DB98D
:104D5000302383F311882B462A462946FFF72EFE7F
:104D600085F311880A2384F870300EE0142384F848
:104D70007030302383F31188002320461A461946E9
:104D8000FFF70AFE002383F3118838BDC36F03B118
:104D900098470023E7E70021204601F083FD00212A
:104DA000204601F073FD63681B6813B1062120469D
:104DB00098470623D7E7000010B590F870300446F6
:104DC000142B29D017D8062B05D001D81BB110BD44
:104DD000093B022BFBD80021204601F063FD002196
:104DE000204601F053FD63681B6813B1062120467D
:104DF0009847062319E0152BE9D10B2380F8703072
:104E0000302383F3118800231A461946FFF7D6FD95
:104E1000002383F31188DAE7C3689B695B68002B82
:104E2000D5D1C36F03B19847002384F87030CEE723
:104E30000023826880F8243083691B689968914256
:104E4000FBD25A68036042601060586070470000EF
:104E50000023826880F8243083691B689968914236
:104E6000FBD85A68036042601060586070470000C9
:104E700008B50846302383F3118891F82430032BBA
:104E800005D0042B0DD02BB983F3118808BD8B6A94
:104E900000221A604FF0FF338362FFF7C9FF00233F
:104EA000F2E7D1E9003213605A60F3E7034610B528
:104EB0001B68984203D09C688A689442F8D25A686A
:104EC0000B604A601160596010BD0000FFF7B0BF71
:104ED000064BD96881F824001868026853601A608C
:104EE0000122D86080F82420FBF730BBA8310020D5
:104EF0000C4B30B5DD684B1C87B004460FD02B46F9
:104F0000094A684600F09CF92046FFF7E1FF009B44
:104F100013B1684600F09EF9A86A07B030BDFFF7EC
:104F2000D7FFF9E7A8310020714E0008044B1A683A
:104F3000DB6890689B68984294BF0020012070470E
:104F4000A8310020094B10B51C68D868226853604E
:104F50001A600122DC6084F82420FFF779FF014603
:104F60002046BDE81040FBF7F1BA00BFA831002091
:104F7000044B1A68DB6892689B689A4201D9FFF774
:104F8000E1BF7047A831002038B50123084C002547
:104F90002370656001F092FE01F0B8FE05490648F5
:104FA00001F08EFF0223237085F3118838BD00BF06
:104FB00050340020E48A0008A831002000F080B9B5
:104FC000034A516853685B1A9842FBD8704700BF88
:104FD000001000E08B604B630023CA6100F12802DF
:104FE0000B6302230A618B840123886181F82630D8
:104FF00001F11003C26A4A611360C36201F12C031C
:105000000846CB6270470000D0E90131026841F8E0
:10501000183CA1F19C033839CB60036941F8243C6A
:10502000436941F8203C034B41F8043CC368024803
:10503000FFF7D0BF65050008A831002008B5FFF7CD
:10504000E3FFBDE80840FFF741BF000038B50E4B55
:10505000DC6804F12C05A062E06AA8420FD194F844
:1050600026303BB994F825309B0702BFD4E90432BF
:1050700013605A600F20BDE83840FFF729BF03686E
:10508000E362FFF723FFE7E7A8310020302383F333
:105090001188FFF7DBBF000008B50146302383F31A
:1050A00011880820FFF724FF002383F3118808BD2F
:1050B000054BDB6821B1036098620320FFF718BF3E
:1050C0004FF0FF30704700BFA831002003682BB1BC
:1050D0000022026018469962FFF7F8BE7047000090
:1050E000064BDB6839B1426818605A601360436050
:1050F0000420FFF7FDBE4FF0FF307047A8310020BD
:105100000368984206D01A68026050601846996297
:10511000FFF7DCBE7047000038B504460D46206836
:10512000844200D138BD036823605C608562FFF76C
:10513000CDFEF4E7036810B59C68A2420CD85C6809
:105140008A600B604C602160596099688A1A9A6085
:105150004FF0FF33836010BD121B1B68ECE70000AB
:105160000A2938BF0A2170B504460D460A2660197F
:1051700001F09EFD01F086FD041BA54203D8751CBD
:1051800004462E46F3E70A2E04D90120BDE87040FC
:1051900001F05EBF70BD0000F8B5144B0D460A2A41
:1051A0004FF00A07D96103F11001826038BF0A226B
:1051B000416019691446016048601861A81801F03F
:1051C00067FD01F05FFD431B0646A34206D37C1C2E
:1051D00028192746354601F06BFDF2E70A2F04D95E
:1051E0000120BDE8F84001F033BFF8BDA831002030
:1051F000F8B506460D4601F045FD0F4A134653F833
:10520000107F9F4206D12A4601463046BDE8F8404D
:10521000FFF7C2BFD169BB68441A2C1928BF2C46BE
:10522000A34202D92946FFF79BFF22463146034895
:10523000BDE8F840FFF77EBFA8310020B83100205C
:10524000C0E90323002310B45DF8044B4361FFF76A
:10525000CFBF000010B5194C236998420DD081686A
:10526000D0E9003213605A609A680A449A600023B9
:1052700003604FF0FF33A36110BD0268234643F87B
:10528000102F53600022026022699A4203D1BDE8C8
:10529000104001F007BD936881680B44936001F0F2
:1052A000F1FC2269E1699268441AA242E4D91144EE
:1052B000BDE81040091AFFF753BF00BFA831002016
:1052C0002DE9F047DFF8BC8008F110072C4ED8F824
:1052D000105001F0D7FCD8F81C40AA68031B9A4272
:1052E0003ED814444FF00009D5E90032C8F81C40FC
:1052F00013605A60C5F80090D8F81030B34201D15D
:1053000001F0D0FC89F31188D5E90331284698478C
:10531000302383F311886B69002BD8D001F0B2FCE5
:105320006A69A0EB040982464A450DD2022001F0C9
:105330008FFE0022D8F81030B34208D151462846DB
:10534000BDE8F047FFF728BF121A2244F2E712EB3C
:1053500009092946384638BF4A46FFF7EBFEB5E74C
:10536000D8F81030B34208D01444C8F81C00211AF1
:10537000A960BDE8F047FFF7F3BEBDE8F08700BFC6
:10538000B8310020A831002000207047FEE700005F
:10539000704700004FF0FF307047000002290CD02A
:1053A000032904D00129074818BF00207047032AA9
:1053B00005D8054800EBC20070470448704700203C
:1053C000704700BFCC8B00084C220020808B000867
:1053D00070B59AB005460846144601A900F0C2F817
:1053E00001A8FBF755FE431C0022C6B25B00104625
:1053F000C5E9003423700323023404F8013C01ABF7
:10540000D1B202348E4201D81AB070BD13F8011B1C
:10541000013204F8010C04F8021CF1E708B530234E
:1054200083F311880348FFF7E5F9002383F311881C
:1054300008BD00BF5834002090F8803003F01F02F0
:10544000012A07D190F881200B2A03D10023C0E95B
:105450001D3315E003F06003202B08D1B0F8843031
:105460002BB990F88120212A03D81F2A04D8FFF7EE
:10547000A3B9222AEBD0FAE7034A426707228267E0
:10548000C3670120704700BF4322002007B50529EC
:1054900017D8DFE801F0191603191920302383F318
:1054A0001188104A01210190FFF74CFA019802215E
:1054B0000D4AFFF747FA0D48FFF768F9002383F319
:1054C000118803B05DF804FB302383F3118807488B
:1054D000FFF732F9F2E7302383F311880348FFF72F
:1054E00049F9EBE7208B0008448B00085834002072
:1054F00038B50C4D0C4C2A460C4904F10800FFF756
:1055000067FF05F1CA0204F110000949FFF760FFC7
:1055100005F5CA7204F118000649BDE83840FFF7E6
:1055200057BF00BF304D00204C220020F88A0008F1
:10553000FE8A0008168B000870B5044608460D4622
:10554000FBF7A6FDC6B22046013403780BB9184616
:1055500070BD32462946FBF787FD0028F3D10120B4
:10556000F6E700002DE9F84F05460C46FBF790FDE5
:105570002C49C6B22846FFF7DFFF08B10236F6B263
:1055800029492846FFF7D8FF08B11036F6B2632E36
:105590000DD8DFF89080DFF89090244FDFF894A0CA
:1055A000DFF894B02E7846B92670BDE8F88F29460A
:1055B0002046BDE8F84F02F0DDBE252E2ED1072291
:1055C00041462846FBF750FD70B9DBF8003007353F
:1055D000093444F8093CDBF8043044F8053C9BF8F6
:1055E000083004F8013CDDE7082249462846FBF76D
:1055F0003BFD98B9A21C0E4B197802320909C95D0E
:1056000002F8041C13F8011B01F00F015345C95D9A
:1056100002F8031CF0D118340835C3E7013504F84B
:10562000016BBFE7EC8B0008168B0008FE8B0008AF
:1056300000E8F11F0CE8F11FF48B0008BFF34F8F57
:10564000044B1A695107FCD1D3F810215207F8D145
:10565000704700BF0020005208B50D4B1B78ABB956
:10566000FFF7ECFF0B4BDA68D10704D50A4A5A6002
:1056700002F188325A60D3F80C21D20706D5064AC7
:10568000C3F8042102F18832C3F8042108BD00BF29
:105690008E4F0020002000522301674508B5114BB2
:1056A0001B78F3B9104B1A69510703D5DA6842F039
:1056B0004002DA60D3F81021520705D5D3F80C2147
:1056C00042F04002C3F80C21FFF7B8FF064BDA683E
:1056D00042F00102DA60D3F80C2142F00102C3F873
:1056E0000C2108BD8E4F0020002000520F289ABFC9
:1056F00000F5806040040020704700004FF4003047
:1057000070470000102070470F2808B50BD8FFF72E
:10571000EDFF00F500330268013204D1043083420A
:10572000F9D1012008BD0020FCE700000F2838B5A2
:1057300005463FD8FFF782FF1F4CFFF78DFF4FF064
:10574000FF3307286361C4F814311DD82361FFF7C4
:1057500075FF030243F02403E360E36843F0800332
:10576000E36023695A07FCD42846FFF767FFFFF779
:10577000BDFF4FF4003100F04FFA2846FFF78EFFCF
:10578000BDE83840FFF7C0BFC4F81031FFF756FF3F
:10579000A0F108031B0243F02403C4F80C31D4F831
:1057A0000C3143F08003C4F80C31D4F810315B079E
:1057B000FBD4D9E7002038BD002000522DE9F84F76
:1057C00004460D46104644EA0203DE0602D00020DD
:1057D000BDE8F88F20F01F00DFF8D4B0DFF8D4A0C8
:1057E000FFF73AFF05EB0008454503D10120FFF71D
:1057F00055FFEDE720222946204602F089FD10B929
:1058000020342035F0E7234604F120021F68791C7C
:10581000DDD104339342F9D104F178432048214E7D
:10582000B3F5801F204B38BF184603F1F80332BF91
:10583000D946D1461E46FFF701FF0760A4EB050CD1
:10584000336805F11C0143F0020333602B1FD9F8C4
:10585000007017F00507FAD153F8042F8B424CF86B
:105860000320F4D1BFF34F8FFFF7E8FE4FF0FF3373
:105870000360336823F002033360BFF34F8F0B4B99
:10588000C3F85C42BFF34F8FBFF36F8F20222946CE
:10589000204602F03DFD0028B2D03846A7E700BF01
:1058A000142100520C2000521420005200ED00E0A0
:1058B000102000521021005210B5084C237828B156
:1058C0001BB9FFF7C9FE0123237010BD002BFCD0CC
:1058D0002070BDE81040FFF7E1BE00BF8E4F0020F2
:1058E000314B1A6C120C120442EA10401A6C8242BC
:1058F00001D1186C7047BFF34F8F1A695207FCD162
:10590000D3F810215107F8D1DA69D207FCD44FF04F
:10591000FF325A61C3F814214FF080425A62BFF33C
:105920004F8F9A69D10708D5204A9A6002F1443214
:105930009A60BFF34F8FBFF36F8F1B4B9A69D207EB
:105940002DD4DA6951002CD45864BFF34F8F1A69F3
:105950005207FCD1D3F810215007F8D19A6942F0D0
:1059600002029A61BFF34F8FBFF36F8F0E4BDA695C
:10597000D107FCD4DA6952000AD54FF080425A624E
:105980009A6942F001029A61BFF34F8F084870474D
:105990009A6942F001029A61BFF34F8FA9E7054867
:1059A00070470548704700BF002000523B2A190885
:1059B000030000E0020000E0010000E02DE9F04FEC
:1059C0000D4685B0814658B111F00D0614BF202256
:1059D000082211F00803019304D0431E034269D04A
:1059E000002435E0002E37D009F11F0121F01F09F6
:1059F0004FF00108314F05F00403DFF8CCA005EAB1
:105A0000080BBBF1000F32D07869C0072FD408F122
:105A100001080C37B8F1060FF3D19EB9284D49465D
:105A2000A819019201F094F90446002839D12036D2
:105A3000019AA02EF3D1494601F08AF904460028C4
:105A40002FD1019A49461F4801F082F9044660BBF4
:105A5000204605B0BDE8F08F0029C9D1014628468F
:105A6000029201F075F90446D8B9029AC0E713B161
:105A700078694107CBD5AC0702D578698007C6D5D0
:105A8000019911B178690107C1D549460AEB48105F
:105A9000CDE9022301F05CF90446DDE90223002888
:105AA000B5D04A460021204601E04A460021FBF7D6
:105AB000F7FACDE70246002E96D199E7108C000840
:105AC000D04F0020904F0020B04F00200121FFF761
:105AD00075BF000070B5144D0124144E40F2FF3222
